:100000000C940C050C9429050C9429050C942905D5
:100010000C9429050C9429050C9429050C942905A8
:100020000C9429050C9429050C942F300C94023162
:100030000C94D3260C9429050C9429050C942905BD
:100040000C9429050C9429050C9429050C94290578
:100050000C9429050C9439270C9429050C94290536
:100060000C9429050C9429050C9429050C94290558
:100070000C9429050C9429050C9429050C94290548
:100080000C9429050C9429050C9429050C94290538
:100090000C9429050C9429050C9429050C94290528
:1000A0000C9429050C9429050C9429056572676F39
:1000B000646F785F657A2F73616570204020302E01
:1000C000362E3133372D333038392D6762313630A3
:1000D00034652D6469727479006572676F646F7836
:1000E0005F657A2F73616570204020302E362E3187
:1000F00033372D333038392D676231363034652D42
:100100006469727479000000F0A102532B00E000D2
:10011000E100E10100001E00140004001D000000C9
:1001200004081F001A0016001B002D022968200079
:1001300008000700060003512C4421001500094562
:100140001900E2001901220017000A420500000010
:100150001B01065D3A0800003B0800000601075D30
:100160001308000001530000500423001C000B0082
:10017000110000004F04240018000D0010002A7424
:100180004B0025000C000E003600035130442600C1
:1001900012000F0037002D452F682700130033424F
:1001A0003800055D4E002A0031002871E500650029
:1001B000000035002B00E000E100340200001E00CA
:1001C000140004001D00100000001F001A0016009B
:1001D0001B000C002C0020000800070006000B008C
:1001E0002C002100150009001900E200190122006D
:1001F00017000A00050000001B012300000000009A
:1002000029000000060100000000000001000000BD
:10021000500423001C000B00110000004F042400B8
:1002200018000D0010002A744B0025000C000E0071
:10023000360003513044260012000F0037002D45D0
:100240002F682700130033423800055D4E002A0056
:1002500031002871E5006500000001002B00E0007E
:10026000E100010000000000F400F200F7000100CE
:1002700004080000F000F100F6000100105000003A
:10028000F500F300F80013502C440000F900FA00C8
:100290000100E2001901000001000000010000005F
:1002A0001B01010001000000010000000601000028
:1002B0000000000011500000AC000100010001002E
:1002C00001000000AB0053005F005C0059006200B9
:1002D000A900550060005D005A006300AE005400A4
:1002E00061005E005B008500A80056005700010019
:1002F00001000100AA002A0031002871E500650014
:10030000000012502B00E000E1000000000000009F
:100310001E021E002D000000010000001F021F0031
:100320002E020000105000002002200035000100C5
:100330002C440000210221003402000000000000D3
:10034000220222002D0200000000035D00000000D8
:10035000000000000000045D00000000000000003C
:100360000100000023022300000000000100000043
:100370002402240034002A004B000000250225003E
:100380003602000027020000350026003702000078
:1003900026020000350227002E0000004E002A0031
:1003A00031002871E5000000000000002B00E00093
:1003B000E100000000003A0000004A0000000000D8
:1003C00001003B00500100004C00000010503C00B8
:1003D0004F011B01000000002C443D0000004D00B7
:1003E0000000E20000003E0000000000500100009C
:1003F00000003F000000000000000000000040007E
:100400000000000000000000500441000601500000
:100410003C0000004F0442001D0151004B004E0003
:100420004B00430000005200500400000100440053
:1004300000004F004F0400002F6845001901000024
:100440003C0000004E002A0031002871E500000049
:10045000000012502B00E000E1000100000001004C
:100460000100010001000100010001000100010084
:100470000100010010500100010001000100010015
:100480002C440100010001000100010000000100F6
:1004900001000100010000000000035D00000000F9
:1004A000000000000000045D0000000000000000EB
:1004B000010000000000000000000000010000003A
:1004C00042003E003A0000004B00000043003F00A5
:1004D0003B00000027020000440040003C000000F8
:1004E00026020000450041003D0000004E002A00A9
:1004F00031002871E500000000000000000000004D
:1005000000002A2B2800000000000000000000006E
:10051000000000000029000000002C1E34202122D1
:1005200024342627252E362D3738271E1F2021223A
:10053000232425263333362E37381F0405060708B3
:10054000090A0B0C0D0E0F101112131415161718A3
:10055000191A1B1C1D2F3130232D350405060708E1
:10056000090A0B0C0D0E0F10111213141516171883
:10057000191A1B1C1D2F3130354C000000000000E3
:10058000000000000000000000000000000000006B
:10059000000000000000000000000000000000005B
:1005A000000000000000000000000000000000004B
:1005B000000000000000000000000000000000003B
:1005C000000000000000000000000000000000002B
:1005D000000000000000000000000000000000001B
:1005E000000000000000000000000000000000000B
:1005F00000000000000000000000000000000000FB
:1006000000000000000000000000000000000000EA
:1006100000000000000000000000000101010101D5
:1006200001000101010100000000000000000000C5
:1006300000000000010001000101010101010101B0
:10064000010101010101010101010101010101019A
:100650000101010101000000010100000000000093
:10066000000000000000000000000000000000008A
:100670000000000000010101010000047F3F1F6431
:100680003214643214783C1E1E140A0522232526D7
:1006900028292A2C2D2F3032333536383A3B3D3E2F
:1006A0004042434547494A4C4E5051535557595A79
:1006B0005C5E6062646668696B6D6F717375777993
:1006C0007B7D7F81838587898A8C8E909294969892
:1006D0009A9C9E9FA1A3A5A7A8AAACAEAFB1B3B4A4
:1006E000B6B8B9BBBCBEBFC1C2C3C5C6C7C9CACBF9
:1006F000CCCDCED0D1D2D2D3D4D5D6D7D7D8D9D9C4
:10070000DADADBDBDBDCDCDCDCDCDDDDDDDDDCDC2C
:10071000DCDCDCDBDBDBDADAD9D9D8D7D7D6D5D449
:10072000D3D2D2D1D0CECDCCCBCAC9C7C6C5C3C215
:10073000C1BFBEBCBBB9B8B6B4B3B1AFAEACAAA86A
:10074000A7A5A3A19F9E9C9A98969492908E8C8A1E
:1007500089878583817F7D7B79777573716F6D6BF9
:100760006968666462605E5C5A5957555351504ED1
:100770004C4A4947454342403E3D3B3A3836353383
:1007800032302F2D2C2A292826252322FFAA7F55F7
:100790004000010101010101010101020202020206
:1007A0000202020203030303030303030404040419
:1007B00004040405050505050606060606070707E1
:1007C000070708080808090909090A0A0A0B0B0B98
:1007D0000C0C0C0D0D0D0E0E0E0F0F0F1010111135
:1007E00011121213131414151516161717181819B9
:1007F000191A1A1B1B1C1D1D1E1E1F202021222220
:10080000232424252626272829292A2B2C2D2D2E62
:100810002F30313232333435363738393A3B3C3D7C
:100820003E3F404142434445464748494A4C4D4E6D
:100830004F50515354555658595A5B5D5E5F616233
:1008400064656668696B6C6D6F7072737577787AC2
:100850007B7D7E8082838587888A8C8E8F9193951D
:1008600096989A9C9EA0A2A3A5A7A9ABADAFB1B341
:10087000B5B7BABCBEC0C2C4C6C9CBCDCFD1D4D621
:10088000D8DBDDDFE2E4E7E9EBEEF0F3F5F8FAFDC3
:10089000FF04033000000016034500720067006F7C
:1008A0000044006F007800200045005A0000001648
:1008B000034500720067006F0044006F007800205D
:1008C0000045005A0000000403090409023B00022D
:1008D0000100A0FA0904000001030101000921112F
:1008E0000100012240000705810308000A090401F4
:1008F00000010300000009211101000122C00007CE
:1009000005820320000A1201100100000008EDFE1C
:10091000071301000102030105010902A10185027B
:100920000901A100050919012905150025019505F1
:1009300075018102950175038101050109300931B5
:100940001581257F95027508810609381581257F57
:10095000950175088106050C0A38021581257F95D9
:100960000175088106C0C005010980A10185031A2F
:1009700081002A830016010026030095017510816D
:1009800000C0050C0901A10185041A01002A9C027E
:10099000160100269C02950175108100C005010911
:1009A00006A1018505050719E029E7150025019530
:1009B00008750181020507190029EF150025019529
:1009C000F075018102050819012905950575019148
:1009D00002950175039101C005010906A1010507F2
:1009E00019E029E715002501950875018102950197
:1009F000750881010507190029FF150026FF0095DC
:100A000006750881000508190129059505750191EC
:100A100002950175039101C011241FBECFEFDAE0EA
:100A2000DEBFCDBF12E0A0E0B1E0E0EFF9E602C02A
:100A300005900D92A430B107D9F726E0A4E0B2E00A
:100A400001C01D92A339B207E1F70E94622D0C94F8
:100A500074340C94000080B38C7080BB81B3836FBE
:100A600081BB089584B1807F84B985B1807F85B9C9
:100A70008AB1837F8AB98BB1837F8BB93E984698C0
:100A80000895CF93C82F873070F58091060190911B
:100A90000701892B89F564E670E080E40E94B617AF
:100AA0009093070180930601892BD1F464E670E0EE
:100AB00082E10E9412189093070180930601892B0E
:100AC00079F481E090E001C0880FCA95EAF764E606
:100AD00070E080950E9412189093070180930601A0
:100AE000CF910C9465188A30B9F040F4883071F0D9
:100AF000893079F0209A2898CF9108958C3091F020
:100B000070F08D30B9F73E9A4698F6CF219A299821
:100B1000F3CF229A2A98F0CF239A2B98EDCF529AAE
:100B20005A98EACF539A5B98E7CFCF93873008F073
:100B300040C08091060190910701C0E0892B71F4BB
:100B400064E670E080E40E94B617909307018093FA
:100B50000601892B31F0C0E00E9465188C2FCF91DF
:100B6000089564E670E083E10E94121890930701F3
:100B700080930601892B79F764E670E081E40E9496
:100B8000B6179093070180930601892B21F784E61D
:100B900090E00E94411897FF05C090930701809351
:100BA0000601D9CFC82FC0951092070110920601F7
:100BB000D3CFCFB18FB1869586958C73C3708C2BB4
:100BC000C82FC095CBCF08950C94E3050E948907E8
:100BD00090E090930701809306010E9432050E94E5
:100BE0002B05E5E0F2E0A3E1B2E011921D9282E074
:100BF000E331F807D1F78EE00E94F00C0C949109D4
:100C00000E94890790E090930701809306010E945B
:100C100032050E942B05E5E0F2E0119282E0E3311B
:100C2000F807D9F70895EF92FF920F931F93CF9390
:100C3000DF938091060190910701892B91F08091BB
:100C400004028F5F8093040281110BC00E94890708
:100C500090E09093070180930601892B11F40E9484
:100C60001E0703E112E0C0E0D0E087E0E82EEC0EC2
:100C70008C2F0E9441058E2D0E9441058C2F0E94D1
:100C80009505F80191918F01F12C891721F0319789
:100C90008083FF24F3948E2D0E949505F8019681A0
:100CA0008917D9F0868381E08F29D82B0E943205DD
:100CB000CF5FC730D1F62D2F4EE065E072E083E1C3
:100CC00092E00E94730D0E949B0981E0DF91CF9119
:100CD0001F910F91FF90EF90089580E0E5CFE82FEE
:100CE000F0E0EB5FFD4F8081089508953BB1242F24
:100CF000209523233BB1432B3FB7F894680F791F0E
:100D00008617970711F43FBF0895FC015191CF0159
:100D1000E8E04BB9000000C057FF2BB9550F0000A9
:100D200000C000C000C02BB900C0EA9591F7E8CF21
:100D30002AB1242B2AB9660F771F660F771F0E94EE
:100D400076068FE391E00197F1F700C00000089567
:100D500040E80C949806CF93DF938091390680FD8C
:100D600037C0EEE3F6E011821082128213823496CD
:100D700086E0EA37F807B9F70E94B01764E670E03A
:100D800084E80E94B617CEE3D6E064E670E088817E
:100D90000E94121864E670E089810E94121864E6CD
:100DA00070E08A810E94121864E670E08B810E94D4
:100DB0001218249686E0CA37D80739F70E946518BA
:100DC0006FE070E08EE396E0DF91CF910C94A8067F
:100DD000CEE3D6E0CE010E94020F249686E0CA3709
:100DE000D807C1F7C9CF259A2D9A0895269A2E9A29
:100DF0000895279A2F9A089556985E9808952598F1
:100E00002D98089526982E98089527982F9808953C
:100E10000E94FC060E94FF060E9402070C94050730
:100E200090E0909389008093880090938B0080934A
:100E30008A0090938D0080938C0008950E9408078B
:100E40008FEF0E9410070E94F3062FEF80E792E0D9
:100E5000215080409040E1F700C000000E94F6065B
:100E60002FEF80E792E0215080409040E1F700C0F2
:100E700000000E94F9062FEF80E792E021508040A9
:100E80009040E1F700C000000E94FF062FEF80E7CE
:100E900092E0215080409040E1F700C000000E94A5
:100EA00002072FEF80E792E0215080409040E1F769
:100EB00000C000000E9405070C94080789EA80938F
:100EC000800089E08093810024982C983F988AB113
:100ED0008F7C8AB96E98479A8BB180638BB9769A6A
:100EE0000E94672560933006709331068093320626
:100EF0009093330667702FEF629FC0011124959580
:100F00008795959587950E9410070E941E070C945F
:100F1000250880E290E0909307018093060180917C
:100F2000210281110EC00E94B01781E0809321023E
:100F30002FEF83ED90E3215080409040E1F700C017
:100F4000000064E670E080E40E94B6179093070109
:100F500080930601892B09F04EC064E670E080E0C2
:100F60000E9412189093070180930601892B09F0C3
:100F700042C064E670E080E00E941218909307017E
:100F800080930601892BB9F564E670E08FE30E9437
:100F900012189093070180930601892B61F50E9436
:100FA000651864E670E080E40E94B617909307012C
:100FB00080930601892BF9F464E670E08CE00E94CE
:100FC00012189093070180930601892BA1F464E61F
:100FD00070E080E00E941218909307018093060150
:100FE000892B49F464E670E08FE30E941218909315
:100FF0000701809306010E946518809106010895FB
:10100000109230061092310610923206109233067A
:1010100084E08061809330066091300670913106E3
:1010200080913206909133060E946B250C947725AF
:10103000611108C0FC018281882321F089ED90E0D4
:101040000E948E0990E080E008950895FB018A30A7
:101050002DE5920771F08B302DE5920791F08930E4
:101060009D45B1F482818823A1F00E94D32580E0C0
:1010700008958281882369F08CEA90E00E948E09AD
:10108000F6CF8281882329F081E00E943413EFCFCC
:1010900081E00895CF92DF92EF92FF92CF936B01A0
:1010A0007C010E94EC24C82F0E94FC060E94FF06CF
:1010B0000E9402070E940507C150C73040F4EC2F80
:1010C000F0E0EA58FB4C0C94E3320E94F306C701AF
:1010D000B601CF91FF90EF90DF90CF9008950E94DE
:1010E000F3060E94F606F3CF0E94F3060E94F9066B
:1010F000EECF0E94F3060E94F606F8CFCF93DF935F
:101100009C013A9521153F4168F5EC01CC27D1703F
:10111000DC01AA27B270AC01442754709C0122273D
:10112000387094FF11C080E1CD2B09F480E0AB2B27
:1011300009F08062452B09F08064232B09F0806858
:10114000FB01DF91CF91099481E0CD2B09F480E080
:10115000AB2B09F08260452B09F08460232B81F3CF
:101160008860EECFDF91CF910895CF93DF93EC01AC
:10117000805E9109089720F064E37EE1209711F4E6
:1011800062E67BE1CE010E947E088C2FDF91CF9139
:101190000C940C1ACF93DF93EC010E94F91ACE0144
:1011A000805E9109089720F06BE37EE1209711F4AF
:1011B00069E67BE1CE01DF91CF910C947E08CF935D
:1011C000DF93EC010E94B508CE01DF91CF910C9422
:1011D000CA0881E008950C9426081F93CF93DF93EB
:1011E00000D000D00F92CDB7DEB749835A836B830E
:1011F00020915D0589819A8121111BC06623A9F088
:101200000E94A523182F682F89819A810E944E235E
:1012100069817A81812F0F900F900F900F900F901E
:10122000DF91CF911F910C94360A0E947C23182FD6
:10123000EFCF0E94A52369817A81EDCFFC01408127
:1012400051816281738184810C94ED081F93CF9347
:10125000DF9390E0FC01E650FB4F1491FC01E65057
:10126000FA4FD49186589A4FFC01C491DD2319F0AE
:1012700081EE0E940C1ACC2319F086EE0E940C1A03
:10128000812F0E944F1BCC2319F086EE0E94F91A81
:10129000DD2331F081EEDF91CF911F910C94F91A8B
:1012A000DF91CF911F910895FF920F931F93CF93DA
:1012B000DF938C01F62EF8018491882349F1E8012F
:1012C0002196813049F4FE011491812F0E940C1A5D
:1012D000812F0E94F91A06C0823089F4FE018491A0
:1012E0000E940C1A8E010F5F1F4F8F2D815018F333
:1012F000EFE9FFE03197F1F700C00000F7CF83304E
:1013000019F4FE018491E5CF0E942609E801EACF95
:10131000DF91CF911F910F91FF90089560E00C94A1
:1013200054090E943925811102C00E94D3250E94D0
:10133000C40D0C945E070C94E405282F2F7041F027
:10134000822F90E02A3010F44D9608950697089564
:1013500087E290E0089508950C94AB0981E0089528
:101360000C94AE09CF93C82F0E94AC098C2FCF915B
:101370000C94B00908950E94581E0E94BA092FEFDC
:1013800084E39CE0215080409040E1F700C00000E1
:101390000C945D270F931F93CF93DF93EC010E9472
:1013A0001E098C01BE010E942B17882309F441C03D
:1013B000BE01C8010E94EB088823D9F1BE01C80113
:1013C0000E943B0E8823A9F1BE01C8010E94191595
:1013D000882379F1BE01C8010E945A15882349F17A
:1013E000BE01C8010E943C14882319F18A81882318
:1013F00041F001158CE51807D1F00E3D8CE518077A
:10140000F1F006311C4551F50E943A249A81992346
:10141000D9F08A7A91E009F490E090932202811148
:1014200011C089E20E9415240E94892402C00E94F2
:10143000BB0980E0DF91CF911F910F9108950E9429
:10144000D325F7CF85E3EECF80912202811104C02E
:1014500089E20E941C24E8CF85E3FBCFCE01DF9117
:10146000CF911F910F910C94E9080895972F70E088
:1014700026E0929F600D711D1124FB0194E5899F68
:10148000E00DF11D1124EE0FFF1FE65FFE4F859169
:1014900094910895FC01EE0FFF1FEA5FFE4F8591C6
:1014A00094910895CF93DF930E94360A0E94160C00
:1014B000EC01811520E5920708F042C0811530E467
:1014C000930708F018C1883E910528F5803E9105E4
:1014D00008F0A4C0883A910588F4853A910508F08F
:1014E00093C08130910509F499C0009709F496C022
:1014F000049708F093C0D0E0C0E090C08F3B910506
:1015000008F490C0805C9109C03CD105A0F30E9412
:101510004A0AEC0183C08115904250F4C11581E064
:10152000D80708F07BC0C03FD10528F3D06576C04E
:10153000C11590E3D90708F0D4C0CE019F70E7CF62
:10154000811525E5920758F5811534E5930708F0D4
:1015500001C1811542E5940750F4C11581E5D80712
:1015600008F4CCC0DC2FCC27C16FD06A57C0982FAD
:10157000969596959E0123703327C115D34508F0A3
:10158000DAC0C1E0D0E002C0CC0FDD1F2A95E2F73F
:1015900020E2929FC0011124C82BD92BCAC0C115CB
:1015A0008AE5D807A0F4C11599E5D90708F0E2C08B
:1015B000C11526E5D20708F4D2C0C11538E5D30716
:1015C00008F499CFDC2FCC27C06FD06A27C0C11593
:1015D0004BE5D40708F48FCFC1158CE5D80708F484
:1015E000D7C0CE0190568115904208F084CF8D2F40
:1015F0008F710E94AD0C90E0982F882788279F71EB
:101600009C012C2BE901B4C0853A910509F4C3C0B3
:10161000863A910509F0C2C0C2E8D0E4CE01DF915C
:10162000CF910895883A910509F4BBC0893A910594
:1016300009F4BAC08A3A910509F4B9C08B3A910508
:1016400009F4B8C08C3A910509F4B7C08B3B9105F9
:1016500009F4B6C08C3B910509F4B5C08D3A9105EB
:1016600009F4B4C0803B910509F4B3C08E3A9105EA
:1016700009F4B2C08F3A910509F4B1C0813B9105DC
:1016800009F4B0C0823B910509F4AFC0833B9105DA
:1016900009F4AEC0843B910509F4ADC0853B9105CA
:1016A00009F4ACC0863B910509F4ABC0873B9105BA
:1016B00009F4AAC0883B910509F4A9C0893B9105AA
:1016C00009F4A8C08D3B910509F4A7C08E3B910594
:1016D00009F4A6C08A3B910509F4A5C0C0E0D4E492
:1016E0009DCFCE019927D3FF03C0EC01D86C96CFD4
:1016F000EC01D06C93CFDF70D06A90CFCE01E4E0E4
:1017000096958795EA95E1F783702C2F2695269577
:10171000237040E2249F90011124382B8C2F83707A
:10172000C1E0D0E002C0CC0FDD1F8A95E2F7C22BEA
:10173000D32BDC6873CFC1E0D0E002C0CC0FDD1F3B
:101740002A95E2F730E2939FC0011124C82BD92BD0
:10175000DA6864CFD82FCC27C46FD06A5FCF8C2FC4
:101760000E94AD0CC82FD0E0DC2FCC27CC27DF7136
:10177000D06254CF8C2F8F700E94AD0C34E0D69580
:10178000C7953A95E1F7CF709C2FEC01D06946CF11
:10179000DD27D06643CFC1E8D0E440CFC3E8D0E432
:1017A0003DCFC2EED4E43ACFC9EED4E437CFCAEE8F
:1017B000D4E434CFC5EBD4E431CFC6EBD4E42ECFA0
:1017C000C3EBD4E42BCFC4EBD4E428CFC7EBD4E4F1
:1017D00025CFCCECD4E422CFCDECD4E41FCFC3E8AA
:1017E000D5E41CCFCAE8D5E419CFC2E9D5E416CFB9
:1017F000C4E9D5E413CFC1E2D6E410CFC3E2D6E406
:101800000DCFC4E2D6E40ACFC5E2D6E407CFC6E2E4
:10181000D6E404CFC7E2D6E401CFCFE6D4E4FECECF
:10182000C0E7D4E4FBCECAE2D6E4F8CE8238910514
:10183000B1F1B0F48133910509F475C048F48932EF
:10184000910509F469C08A32910509F473C00895BD
:101850008533910509F459C08933910501F1089543
:10186000833E9105A9F138F4803E9105F9F0823E5E
:10187000910549F10895863E9105A9F1873E9105AC
:10188000C9F1843E910519F52091810621FF1FC001
:101890008091800684FD14C087EE90E00895209129
:1018A00080062370A1F080EE90E0089520918006DC
:1018B00020FD47C03091810630FF09C024FF44C09D
:1018C00090E080E004C02091800622FDF7CF0895CB
:1018D0002091800622FD3BC03091810630FDE3CF90
:1018E00024FFF5CFEDCF2091800623FFF0CF24FD1C
:1018F000E7CFD2CF2091800623FD2CC03091810606
:1019000031FFEECF84EE90E008952091800625FF10
:10191000DECF89E290E008952091800625FFD7CFA1
:1019200085E390E008952091800626FFD0CF8AE2DB
:1019300090E008952091800626FFC9CF81E390E0D2
:10194000089589E390E0089583EE90E0089582EE93
:1019500090E0089586EE90E008959091800692FFC1
:1019600006C0282F28712830F9F4877F846093FF00
:1019700006C0282F28712831F1F4877E84612091D8
:10198000810620FF06C0382F38713830D9F4877FA0
:10199000816021FF06C0282F28712831D1F4877E6D
:1019A000816194FD877E0895282F24712430F9F6F3
:1019B0008B7F8860DCCF282F2471243101F78B7E48
:1019C0008861DDCF382F3171313019F78E7F886013
:1019D000E0CF282F2171213121F78E7E8861E1CF60
:1019E000CF93C82F90E00E94F53280932402909309
:1019F0002502282FFC019BEF8E2F821B8C1710F0E5
:101A0000CF9108959193F8CFEF92FF920F931F9388
:101A1000CF93DF931092230250912402E52FF0918F
:101A2000250240E0A62FB0E07BEF9AEFE92EF12CE3
:101A30009E2F951B981748F040932302DF91CF917A
:101A40001F910F91FF90EF90089591919B3F81F32B
:101A5000292F30E0691768F08D01021B130B9801E4
:101A60002E3131056CF09F0121503109E901788355
:101A7000DFCFE701C21BD30B9E012A0F3B1FF0CF24
:101A800041E0D6CF0F931F93CF93DF93109226029E
:101A90005091240230912302DB018C01E52FF0915B
:101AA000250290E08E2F851B841748F03093230287
:101AB00090932602DF91CF911F910F9108956D9120
:101AC000E80189918E01681751F060816B3F49F4FC
:101AD0002083BD0161507109EB01888331E03196AB
:101AE000E1CF91E0FCCFCF92DF92EF92FF921F9374
:101AF000CF93DF937C016B01C42F122F0E94032729
:101B00006AEF70E00E94BB32D82F809123028823B5
:101B100019F16D2F8C2F0E94040D112369F02D2FC8
:101B20004C2FB601C701DF91CF911F91FF90EF902D
:101B3000DF90CF900C94420D80912302882379F39B
:101B4000809126028111EBCFDF91CF911F91FF9001
:101B5000EF90DF90CF9008951111E1CFF1CFCF93A7
:101B6000DF93EC0197FF0CC0FB018281882341F0D9
:101B70000E94DA0DCE019F770E941E0E0E94060E73
:101B800081E0DF91CF9108958CE090E00E942C34A9
:101B900090E0B0E0A0E08093340690933506A093E7
:101BA0003606B09337060895609134068CE090E0D5
:101BB0000C9440340E943A24809338060E944D24AD
:101BC00080913406813089F0882359F0823091F079
:101BD0008430B9F08FE39CE90197F1F700C0000071
:101BE000089582EE0E940C1AF5CF88E193E00E94DE
:101BF000DF08F0CF82EE0E940C1A87E50E944F1B8F
:101C0000E9CF86EE0E944F1B88E1F8CF8091340621
:101C1000813071F0882341F0823031F0843061F0FE
:101C2000809138060C944A2482EE0E94F91AF8CF6B
:101C30008CE20E944F1BF4CF88E2FBCF0F931F93DF
:101C4000CF93DF938C01CCE0D0E0C8010C2E02C012
:101C5000969587950A94E2F78F700E949D090E94DD
:101C60004F1B2497CC3F8FEFD80779F7DF91CF91A7
:101C70001F910F9108950F931F93CF93DF93EC0162
:101C80008B01FB018281882371F0C33EFCE5DF07F5
:101C900019F188F4C13EECE5DE07C9F081E0C23EEF
:101CA000FCE5DF0789F0B801CE01DF91CF911F91EC
:101CB0000F910C94AF0DC43E8CE5D80779F084E009
:101CC000C53EECE5DE0779F78093340602C010923A
:101CD00034060E94D40DE7CF82E0F6CF83E0F4CF44
:101CE000AF92BF92CF92DF92FF920F931F93CF9349
:101CF000DF93362F472FE82FF0E0EF56F84F7111A2
:101D00000DC06491762F862FDF91CF911F910F9197
:101D1000FF90DF90CF90BF90AF900895C72FD0E095
:101D20002491F22E022F10E056E0659FC00111248D
:101D3000EFEFF0E0BF010E94BB32832F90E0880FED
:101D4000991F35E5369FD001379FB00D11248A1BAE
:101D50009B0B982F990F980F6F01CC1ADD0AC09E2C
:101D6000D001C19EB00DD09EB00D11248B2F949F39
:101D7000A0011124452F55276F01C41AD50AC09E12
:101D8000A001C19E500DD09E500D11245F01A91AD3
:101D9000B108AC9E6001AD9ED00CBC9ED00C11244D
:101DA000CD2CDD24EC19FD09E09FE001E19FD00D71
:101DB000F09FD00D1124ED2F62307105A1F048F491
:101DC0006115710569F06130710589F0EB2F852F80
:101DD00007C06430710571F088F066307105B1F7A5
:101DE0006E2F722F91CFE22F2B2F8D2FF9CFE22F55
:101DF000252FF6CFEB2F822F2D2FF2CF2B2F8F2DCC
:101E0000E52FEECFFC01828120813181982F2817A8
:101E100008F4922F391708F4932F9383391B3183D9
:101E2000291B2083891B828308950895CF93DF9314
:101E3000762FE901682F842F0E94700E79836883C2
:101E40008A831B82DF91CF9108950F931F93CF93C5
:101E5000DF93EC0110E000E090910A019017110669
:101E600009F06CF40E94AB068C8190E001968170C1
:101E700099278C83DF91CF911F910F910895209125
:101E80002A02200F312F311D220F331F220F331F43
:101E9000225C394F4C8160913B0680913A069695C1
:101EA0009017110651F04CF0442349F040913C0644
:101EB0000E94160F0F5F1F4FCFCF4423B9F340E0AE
:101EC000F7CF0F931F93CF93DF938C01FC01848195
:101ED000958101968170992795838483C0E0D5E52B
:101EE00080910A01C81730F0DF91CF911F910F91B7
:101EF0000C94AB0620912A022C0F3327331F220F9C
:101F0000331F220F331F225C394F8C2F8695F80127
:101F100044815581840F952F911D817040913C061D
:101F200060913B068D9F802D11240E94160FCF5F7C
:101F3000D7CF0F931F93CF9380912A0290910B01DB
:101F400024E0829FF0011124E25CF94F891730F1FF
:101F5000C0E060910A01C61740F10E94AB062091D3
:101F6000080180912802820F809328029091090134
:101F7000920F90930901191654F4082E000C990B36
:101F800040910A014150550B841795071CF021958B
:101F900020930801CF911F910F9108951182108213
:101FA000128213828F5F3496D1CF0C2F10E070E035
:101FB000C8010E94CF32E0912A02E80F80912802E6
:101FC000082E000C990B24E0E29FF0011124081761
:101FD0001907ACF080910901082E000C990B8017AD
:101FE00091076CF09F01225C394F40913C06609153
:101FF0003B0680913A060E94160FCF5FAACFE25CA3
:10200000F94F1182108212821382F7CFAF92BF92E2
:10201000CF92DF92EF92FF920F931F93CF93DF93B4
:10202000FC018281EE24EA9480FD02C0EE24E39458
:10203000F12C3FE0B32E80910A01F816C8F00E94FF
:10204000AB068091290291E0E91255C0811102C0CE
:1020500080910A01815080932902DF91CF911F91D5
:102060000F91FF90EF90DF90CF90BF90AF900895C9
:10207000C0912A020F2D10E0C00FD12FD11DCC0F1F
:10208000DD1FCC0FDD1FC25CD94F198218821A8266
:102090001B8224E0C22ED12CA12C809129028A0D12
:1020A00080311CF16B2D0E94AD32892F082E000C5F
:1020B000990B0817190791F480913C068C9DA0019B
:1020C0008D9D500D112455954795559547959E0129
:1020D00060913B0680913A060E94160FAE0CF1E02B
:1020E000CF1AD108D1F6F394A6CF87FFDFCF909116
:1020F0000A01890FDBCF90E0019660910A0170E040
:102100000E94CF32A8CFFF920F931F93CF93DF93FC
:10211000EC01F12C0FEF10E060910A01F61670F05F
:102120000E94AB069A818C8190FF24C08F5F8C83C4
:10213000DF91CF911F910F91FF90089520912A0276
:102140002F0D3327331F220F331F220F331F225C23
:10215000394F70E0C8010E94CF32962F8C81409198
:102160003C0660913B06F99E800D11240E94160FDB
:10217000F394D2CF8150DBCF80913906982F9E7F88
:1021800029F4817082608093390608958A34E8F3D7
:1021900081708864F8CF88E090E00C943434CF925A
:1021A000DF92EF92FF926B017C010E94BC10B7019D
:1021B000A60188E090E0FF90EF90DF90CF900C9424
:1021C0005234E9E3F6E083E0808311828FEF82836B
:1021D0008383148260817181828193810C94CF10FA
:1021E0008091390680FF02C08695089580E00895A9
:1021F000E9E3F6E080818E7F808360817181828156
:1022000093810E94CF10109233022FEF80E792E06B
:10221000215080409040E1F700C000000C94AB06D4
:10222000E9E3F6E080818E7F8083109233022FEF06
:1022300080E792E0215080409040E1F700C000002C
:102240000C94AB0680913D06833018F48F5F809329
:102250003D066091390670913A0680913B06909157
:102260003C060C94CF1080913D06882319F08150D4
:1022700080933D066091390670913A0680913B0645
:1022800090913C060C94CF109091390690FF15C0A8
:1022900090912A0220910B0134E0939FF0011124C8
:1022A000E25CF94F921710F00C94AB0681836083C7
:1022B000428313829F5F3496F5CF0895CF93DF93C7
:1022C00000D000D0CDB7DEB79091390690FF0AC09C
:1022D0009E012F5F3F4F0E94160F4B8169818A81BB
:1022E0000E9444110F900F900F900F90DF91CF91AB
:1022F0000895CF93DF93EC01EC81F0E0E457F94FC0
:102300004491E9E3F6E0628181810E945E118C8153
:102310008F5F8C83DF91CF910895CF93DF93EC0192
:10232000E9E3F6E0438162818C810E945E118C8139
:102330008F5F8C83DF91CF910895AF92BF92CF9240
:10234000DF92EF92FF920F931F93CF93DF9300D012
:1023500000D0CDB7DEB7182FF62E042FE22E9091C5
:10236000390690FF29C0E92FE695AE2FB0E0AB52B9
:10237000BE4F8C91809332029E7F923061F59E0118
:102380002F5F3F4F812F0E94160F4B8169818A81F9
:102390000E94441110933A06F0923B0600933C06CB
:1023A000EE2051F06091390670913A0680913B061B
:1023B00090913C060E94CF100F900F900F900F90BD
:1023C000DF91CF911F910F91FF90EF90DF90CF9011
:1023D000BF90AF900895823019F400913C06DACF97
:1023E000863019F410913A06D5CF8930D9F3893166
:1023F00089F6E9518E2F8170D82EE695F0E0E457EA
:10240000F84FA590B490C12CBB2460910A01C61668
:1024100018F00E94AB06BECFEC2DF0E0AE9EC001DE
:10242000AF9E900DBE9E900D112470E00E94BB32B5
:10243000812FD11012C0860F20912A022E0F3F2F1C
:10244000311D220F331F220F331F225C394F402FC3
:102450006F2D0E94160FC394D8CF861BEDCFE9E3F2
:10246000F6E09181282F438162818CE0890F0C94E2
:102470009D1181E00C942F12E9E3F6E09181282F61
:102480004381628184EF890F0C949D1181E00C944B
:102490003C12E9E3F6E062812FEF620F08F46FEF80
:1024A000282F438181810C949D1181E00C94491265
:1024B000E9E3F6E062812FEF621B08F460E0282F69
:1024C000438181810C949D1181E00C945812E9E3C1
:1024D000F6E043812CE0420F08F44FEF282F628191
:1024E00081810C949D1181E00C946712E9E3F6E080
:1024F00043812CE0421B08F440E0282F6281818157
:102500000C949D1181E00C94761220E00C949D11A6
:102510000F931F93CF93DF9300D000D0CDB7DEB7DA
:102520008C018091270281110AC09E012F5F3F4FCD
:102530004FEF6FEF0E94160F8A8180932702F801F8
:102540008481813071F0882339F040E0823011F4C9
:102550004091270280E003C08091270240E060E0C4
:1025600004C06091270240E080E00E944411F8011D
:10257000848190E0019663E070E00E94CF32848312
:102580000F900F900F900F90DF91CF911F910F91AF
:10259000089560913906669570E04BE050E08CE05C
:1025A00091E00E941F34892B19F481E0809333025B
:1025B0000E94032790932C0280932B020895909100
:1025C000390690FF35C09170811128C092609093B8
:1025D0003906662351F06091390670913A06809170
:1025E0003B0690913C060E94CF106091390666959B
:1025F00070E04BE050E08CE091E00E941F34892BAA
:10260000A1F01092330281E080932E0240913C06AB
:1026100060913B0680913A060C948512853210F049
:102620009864D5CF880F982BD2CF0E94C912EBCFD8
:102630000895682F90913906969581E0890F85322B
:1026400008F081E00C94DF1281E00C941913682FDC
:102650009091390696958FEF890F09F484E20C94D6
:10266000DF1281E00C94271361E00C94DF12E9E3A0
:10267000F6E080818160808386950C94341380918C
:10268000390680FD0C94F8100C94371360E00C941C
:10269000DF128091310281112EC00E9439258111F3
:1026A00004C00E94D3250E94E1100E94CB106093C9
:1026B000390670933A0680933B0690933C066E7FF2
:1026C00061F40E94E1100E94CB1060933906709370
:1026D0003A0680933B0690933C060E94BC101092F1
:1026E00033028091390680FF03C086950E9446130D
:1026F00081E0809331020895E9E3F6E08081816012
:10270000808386950C9446131092330208950F939C
:102710001F93CF93DF9380913302882309F48DC0F8
:1027200080913202E0913906E695E81BE0932D0294
:102730008230C9F5F0E0E857F94FE491CE2FD0E0B0
:1027400009E711E180912E02882389F010922E0270
:102750000E9403279E0120953095820F931F90932E
:102760002C0280932B021092300210922F02809143
:102770002B0290912C020E940F278C179D0708F4C2
:102780005CC0E0912B02F0912C02CE0FDF1FD093A2
:102790002C02C0932B028BE292E0F801DF91CF91E3
:1027A0001F910F910994863049F4F0E0EB57F94FEF
:1027B000E491CE2FD0E00DE811E1C4CF893051F47F
:1027C000E695F0E0EE57F94FE491CE2FD0E003E824
:1027D00010E1B8CF8F3051F4E695F0E0E158F94FB1
:1027E000E491CE2FD0E006E010E1ACCF853149F482
:1027F000F0E0E458F94FE491CE2FD0E009E91FE072
:10280000A1CFC8EED3E001E61FE0883109F49ACFEA
:10281000833239F4EAE7F6E0C591D49108E812E191
:1028200091CFC4EFD1E005E21FE0843209F48ACFF2
:10283000C0EDD7E005E11FE085CFDF91CF911F917B
:102840000F910895FA01811101C0FB010994CF9302
:10285000DF93C82FD62F0E94F0108C1740F00E94F3
:10286000F0108D1720F4DF91CF910C9424138C2F4E
:10287000DF91CF910C9434130F931F93CF938C015E
:10288000FB01C281CC2309F465C00E943A24827204
:10289000F801E25CFC45E431F10538F4E358FB4C07
:1028A0000C94E3320E943F13C0E08C2FCF911F9114
:1028B0000F91089541E353E164E273E10E94221411
:1028C000F3CF44E253E161E373E1F8CF46E452E130
:1028D00069E372E1F3CF49E352E166E472E1EECFDE
:1028E00044E652E165E572E1E9CF45E552E164E68F
:1028F00072E1E4CF42E852E163E772E1DFCF43E700
:1029000052E162E872E1DACF43E351E162E271E160
:10291000D5CF42E251E163E371E1D0CF81E00E9483
:102920003413C2CF65E082E00E942714BDCF68E077
:1029300086E0FACF6EE089E0F7CF64E18FE0F4CF74
:1029400067E185E1F1CF88E1EACF62E289E1ECCF8E
:1029500083E2E5CFC1E0A9CF0F931F93CF93DF931D
:10296000C62FD42F022FFC0182818823C9F06093E7
:1029700036020E940327909335028093340280E24E
:102980008C0F883008F050C0C77081E001C0880FFC
:10299000CA95EAF7DF91CF911F910F910C94621BBA
:1029A00010913602161335C0809134029091350291
:1029B0000E940F27883C910560F5C0E2CD0F1D17DE
:1029C000B9F080E2810F883040F4177081E001C0D7
:1029D000880F1A95EAF70E94691BC83048F481E015
:1029E0009D2F977001C0880F9A95EAF70E94621B8D
:1029F000802F0E944F1BC830B8F4D77081E001C00F
:102A0000880FDA95EAF7DF91CF911F910F910C941F
:102A1000691B80E28C0F883038F4C77081E001C0F8
:102A2000880FCA95EAF7EFCFDF91CF911F910F91F1
:102A300008959C01CB01233F4CE5340731F190F41C
:102A4000283DFCE53F07E9F0293D4CE5340769F1F5
:102A5000273D3C4579F426E241EE61EE0E94AC143C
:102A600080E00895253FFCE53F07B9F090F0263F50
:102A70003C45B9F0FC0182818823D1F010923602E6
:102A8000089527E245EE65EEE9CF26E241EE60EEDD
:102A9000E5CF27E245EE64EEE1CF26E241EE62EEBD
:102AA000DDCF27E245EE66EED9CF28E241E0EBCF5D
:102AB00081E00895CF93DF93EC01FB0182818823AD
:102AC00009F419C1C230FCE5DF07C0F1C6319CE54D
:102AD000D90730F09E012A5F3C452930310570F559
:102AE0000E944C259093810680938006C031ECE5CE
:102AF000DE0709F4CFC008F05BC0C8308CE5D8070A
:102B000009F4B6C088F5C430ECE5DE0709F4A8C0C6
:102B1000C0F4C2308CE5D80709F49CC080918006CF
:102B20008260C330DC4509F498C0809180069091A2
:102B300081060E945A250E94581E80E0DF91CF91A5
:102B40000895809180068061C630ECE5DE0709F4C7
:102B500084C0809180068860C730DC4508F47DC061
:102B600080918006806279C0CC308CE5D80709F46A
:102B700089C070F4809180068C60CA30ECE5DE0775
:102B800009F46BC008F478C0809180068E7F65C020
:102B9000CE308CE5D80709F479C0809180068B7F10
:102BA000CF30DC4508F459C0809180068F7E55C037
:102BB000CB3FECE5DE0709F457C030F5C3318CE5B7
:102BC000D80709F46FC078F4C131ECE5DE0709F4E9
:102BD00065C0C231DC4509F0A8CF0E94581E809123
:102BE00080068F773AC0C5318CE5D80709F462C0FA
:102BF00008F476C0809181068160CA3FDC4509F007
:102C000094CF8093810691CFCF3FFCE5DF0709F495
:102C10004DC088F4809181068D7FCD3F9CE5D9071A
:102C200081F3809181068E7FCE3FDC4550F3809109
:102C300081068360E6CFC130FDE5DF0709F459C0A6
:102C400008F444C080E0C230DD4509F06ECF0E9438
:102C5000D5256BCF8091800681608093800665CFFB
:102C6000809180068460F9CF809181068260C9CF0F
:102C7000809180068064F1CF0E94581E809180066A
:102C80008068EBCF809180068D7FE7CF80918006B2
:102C9000877FE3CF809180068F7DDFCF8091800694
:102CA0008F7BDBCF80918006837FD7CF8091810699
:102CB0008C7FA7CF8091800682FB992790F921E035
:102CC000922790FB82F990FB83F9C7CF8091810610
:102CD000982F909591708E7F892B90FB81F991CFE1
:102CE0000E94581E90918006892F97FB87F9805883
:102CF000B4CF81E0ACCF81E021CF0895089508954D
:102D000008950F931F93CF93DF93EC018B010E94E3
:102D10007D160E94581E0E94982219830883DF9115
:102D2000CF911F910F9108958F929F92AF92BF9272
:102D3000CF92DF92EF92FF921F93CF93DF93EC013C
:102D40007B01142F8090CF059090D005A090D105E5
:102D5000B090D2050E94581E0E94982286E0180268
:102D600060011124CE15DF05C1F40E94581E809227
:102D7000CF059092D005A092D105B092D205812FB7
:102D8000DF91CF911F91FF90EF90DF90CF90BF9098
:102D9000AF909F908F900C947E16CE010E940A1ED9
:102DA000CC0DDD1DDFCF0F931F93CF93DF93EB018E
:102DB000F801A881B9813281311103C08A179B07BC
:102DC000A9F086E02802B0011124CD01861B970BE3
:102DD0004817590781F086E001900D928A95E1F736
:102DE00088819981860F971F99838883DF91CF917E
:102DF0001F910F910895BF01822FDF91CF911F91F5
:102E00000F910C947F16CF92DF92EF92FF921F9357
:102E1000CF93DF936C01EB01142F7901842F0E9473
:102E200080168AEF1802A0011124CC15DD0531F0BF
:102E3000FE01E40FF51F828181110BC0F701D183E0
:102E4000C083DF91CF911F91FF90EF90DF90CF90E3
:102E50000895EF01EACF0F931F93CF938B01209139
:102E6000390521113DC0FB01C281C11122C084304E
:102E7000FDE59F0719F128F483309D4589F0C1E0F5
:102E800018C08630EDE59E0709F187309D45B9F7FA
:102E900060911701709118014FEF81E395E01DC01B
:102EA00067E372E087E395E00E94811681E08093FA
:102EB00039058C2FCF911F910F91089561E375E033
:102EC00087E395E00E94811682E0F1CF60911901BD
:102ED00070911A0141E087E392E00E949416E9CFD5
:102EE00085309D4511F5FB01C281CC2311F32130C2
:102EF00031F0223081F010923905C0E0DACF6091D4
:102F000037057091380529E131E041E087E392E02F
:102F10000E940317F0CF609137057091380527E1C3
:102F200031E04FEF81E395E0F3CF213069F02230BB
:102F300009F0A5CF4091190150911A012FEF67E3D5
:102F400075E081E395E009C04091170150911801A7
:102F500021E067E375E087E392E00E94D3168FCF0C
:102F60001092B9008CE08093B8000895EF92FF9220
:102F70000F931F93CF93DF93182FEB011092BC0098
:102F800084EA8093BC000E9403277C018091BC00EE
:102F900087FF27C08091B900887F883029F0809111
:102FA000B900887F8031D9F51093BB0084E8809305
:102FB000BC000E9403278C018091BC0087FF24C0C5
:102FC0002091B900287F90E080E02831B1F081E0C5
:102FD00090E0203411F490E080E091958195910982
:102FE0000CC0CF3FDC0791F20E9403278E199F0986
:102FF0008C179D0758F28EEF9FEFDF91CF911F91B5
:103000000F91FF90EF900895CF3FDC07A9F20E9447
:103010000327801B910B8C179D0770F2ECCF8FEF6D
:103020009FEFEBCF0F931F93CF93DF93EB01809331
:10303000BB0084E88093BC000E9403278C01809130
:10304000BC0087FF11C02091B900287F81E090E08B
:10305000283211F490E080E0919581959109DF91FB
:10306000CF911F910F910895CF3FDC0741F30E944C
:103070000327801B910B8C179D0708F38EEF9FEFA2
:10308000EECF0F931F93CF93DF93EC0184E88093EF
:10309000BC000E9403278C018091BC0087FF08C000
:1030A0008091BB0090E0DF91CF911F910F91089527
:1030B000CF3FDC0789F30E940327801B910B8C17FD
:1030C0009D0750F38EEF9FEFEECF84E98093BC0015
:1030D000089590933F0580933E050895E0913E0545
:1030E000F0913F05309721F00190F081E02D099497
:1030F00080E00895E0913E05F0913F05309799F00A
:1031000020912C01222359F02091800627FF07C02F
:10311000DC012C9111962C93119725E02C930280C1
:10312000F381E02D09940895E0913E05F0913F056B
:10313000309739F022E0DC012C930480F581E02DFA
:103140000994089520913C0530913D0528173907D1
:1031500071F090933D0580933C05E0913E05F09120
:103160003F05309721F00680F781E02D09940895FE
:1031700020913A0530913B052817390771F090935B
:103180003B0580933A05E0913E05F0913F0530976D
:1031900021F00084F185E02D0994089585B78068B9
:1031A00085BF85B7806885BF0895089508950C94FC
:1031B000D51808950C94D9180E94CE180E94D618DC
:1031C0000C94D71881E008950E94FA260E94E60523
:1031D0000E948F270E9449130C94DA18AF92BF9275
:1031E000CF92DF92EF92FF920F931F93CF93DF93D3
:1031F000CDB7DEB72A970FB6F894DEBF0FBECDBFAE
:103200000E9413060E94E218882309F461C081E439
:10321000A82E85E0B82E10E000E0C02E802F0E947E
:103220006F06E82EF501D1905F01D81609F44AC067
:103230008091FC0581FD0E94750680E0FF24F394D7
:10324000DE249D2D9F21C9F18E83CF82EF2081E066
:1032500009F480E088870E9403278160782F9A878D
:1032600089874E815F8168858A850E94C219F8012D
:10327000EF5BFA4F8081F826F0820E9487130E944C
:103280001C290E946E1890914005891791F10E94A7
:103290006E18809340052A960FB6F894DEBF0FBED5
:1032A000CDBFDF91CF911F910F91FF90EF90DF90F5
:1032B000CF90BF90AF900C94B2098F5FFF0C863017
:1032C00009F0BFCF0F5F1F4F0E30110509F0A5CFDA
:1032D0008FEF89838A831B820E9403278160782F66
:1032E0009D838C8349815A816B818D810E94C21993
:1032F000C4CF2A960FB6F894DEBF0FBECDBFDF91C4
:10330000CF911F910F91FF90EF90DF90CF90BF90E2
:10331000AF900895CF93DF93DC018C91682F70E01C
:1033200021E030E001C0220F8A95EAF711964C9116
:10333000119750E0EA01C15BDA4F988112968C91A7
:1033400012978823C9F080915F058823C1F086E039
:10335000849FF001859FF00D1124E60FF71FEE0FFB
:10336000FF1FE35DFE4F408151814D935C93292BFC
:103370002883DF91CF910895892F8223E6CF20956E
:103380002923F6CFCF93DF93CDB7DEB72B970FB6B8
:10339000F894DEBF0FBECDBF4F83588769877A8709
:1033A0008B878A859B85892B21F0CA0189238F3FD2
:1033B000E1F41E821D8285E0FE013796DE01119642
:1033C00001900D928A95E1F749815A816B817C8148
:1033D0008D819E810E9430212B960FB6F894DEBF1E
:1033E0000FBECDBFDF91CF910895CE0107960E9409
:1033F0008A19DFCFFC01808191810E94E723929599
:103400009F70963041F480915F0591E08927809309
:103410005F0590935E050895CF93C82F882309F424
:10342000E6C08238C1F40E946E1881FDE0C089E3D5
:103430000E9415240E9489242FEF81EE94E02150F0
:1034400080409040E1F700C0000089E30E941C2406
:10345000CF910C9489248338A1F40E946E1880FDCA
:10346000C6C083E50E9415240E9489242FEF81EEB7
:1034700094E0215080409040E1F700C0000083E5D7
:10348000E5CF8438A1F40E946E1882FDB0C087E4B5
:103490000E9415240E9489242FEF81EE94E0215090
:1034A00080409040E1F700C0000087E4CFCF8CEF70
:1034B0008C0F813A48F48C2F0E94172B811197C0F2
:1034C0008C2F0E941524C4CF80E28C0F883048F4E2
:1034D000C77081E001C0880FCA95EAF70E943D24B9
:1034E000B7CF8BE58C0F833068F481E890E0C53A64
:1034F00031F083E890E0C63A11F482E890E0CF9191
:103500000C94A21888E58C0F873108F068C082EE11
:1035100090E0C83A09F460C089EE90E0C93A09F435
:103520005BC08AEE90E0CA3A09F456C085EB90E0A1
:10353000CB3A09F451C086EB90E0CC3A09F44CC088
:1035400083EB90E0CB3B09F447C084EB90E0CC3BAD
:1035500009F442C087EB90E0CD3AF1F18CEC90E0B9
:10356000C03BD1F18DEC90E0CE3AB1F183E891E02F
:10357000CF3A91F18AE891E0C13B71F182E991E0A3
:10358000C23B51F184E991E0C33B31F181E292E029
:10359000C43B11F183E292E0C53BF1F084E292E09A
:1035A000C63BD1F085E292E0C73BB1F086E292E003
:1035B000C83B91F087E292E0C93B71F08FE690E062
:1035C000CD3B51F080E790E0CE3B31F090E080E0E1
:1035D000CA3B11F48AE292E0CF910C94B818C03F34
:1035E00030F08C2F0E942A28CF910C941129CF9172
:1035F0000895882309F452C0823871F40E946E182D
:1036000081FF4CC089E30E9415240E94892489E32C
:103610000E941C240C948924833859F40E946E184B
:1036200080FF3CC083E50E9415240E94892483E525
:10363000EFCF843859F40E946E1882FF2FC087E4C0
:103640000E9415240E94892487E4E2CF9CEF980F02
:10365000913AF0F290E2980F983050F4877091E030
:1036600001C0990F8A95EAF7892F0E944324D2CF8F
:103670009BE5980F933020F490E080E00C94A21822
:1036800098E5980F973120F490E080E00C94B818FA
:10369000803F20F00E9492280C9411290895CF9326
:1036A000C82F0E940C1AC93349F42FEF87EE93E01C
:1036B000215080409040E1F700C000008C2FCF9156
:1036C0000C94F91A882321F00E943D240C9489243B
:1036D0000895882321F00E9443240C94892408959E
:1036E000BF92CF92DF92EF92FF920F931F93CF93EF
:1036F000DF937C01D62FC72FFC01058102950F7047
:10370000128111110E945D240E943324D82E882337
:1037100071F01123B1F080E28D0F883090F082E0DB
:103720000E94D4240E94332491E0D82ED926CC2E96
:10373000C2949FE0C922EC2DF0E0EF56FB4C0C94B4
:10374000E332D12CF4CF0C2F0F70C07F11F0029513
:10375000007F1123A9F0002359F080E28D0F8830FB
:1037600010F0D11109C0802F0E943D240E948924AD
:103770008D2F0E940C1A14C0802F0E945024F6CF67
:103780008D2F0E94F91A002359F080E28D0F8830A6
:1037900010F0D1112CC0802F0E9443240E94892454
:1037A0002C2D2850330B2430310520F40E946E1844
:1037B0000E94B209DD2009F423C20E942F2480FD5B
:1037C0001FC2F70112820E9429240E94B222C7015F
:1037D0000E940A1E0E942924DF91CF911F910F9110
:1037E000FF90EF90DF90CF90BF900C94D322802F6A
:1037F0000E945624D3CFFC2FFF70BF2EC07FC03253
:1038000019F0B29480EFB822DD2339F0D13019F1EC
:10381000112359F1002321F1ABCF112381F00111C4
:1038200006C00E9470248B290E94621BB9CF013010
:10383000C1F70E9470248B290E947624B1CF011118
:1038400006C00E947F248B2D0E94691BA9CF0130E6
:1038500009F4A6CFF6CF112329F0023008F0A0CF4B
:103860008B2DE2CF01119CCFEECF002361F3D93332
:1038700049F42FEF37EE83E0215030408040E1F7EC
:1038800000C000008D2F0E94F91A8ACF8C2F8695D8
:103890008695837069F0813009F082CF8D2F9C2F3F
:1038A0009370111102C090E080E00E94B81878CFA8
:1038B0008D2F9C2F9370111102C090E080E00E9428
:1038C000A2186ECF112309F1D53F99F0D63FB9F078
:1038D000D43F49F480917A0690917B068160909361
:1038E0007B0680937A068D2F0E942A280E94112938
:1038F00057CF80917A0690917B068260F0CF8091BD
:103900007A0690917B068460EACFD53F89F0D63F56
:10391000A9F0D43F49F480917A0690917B068E7F7E
:1039200090937B0680937A068D2F0E949228DECF9B
:1039300080917A0690917B068D7FF2CF80917A06F6
:1039400090917B068B7FECCF8C2F837009F041C068
:10395000111126CF4D2F429546954770440F440FC5
:103960000D2F0F7010E030E020E0042E04C0000F97
:10397000111F221F331F0A94D2F760E070E0CB01C1
:10398000D4FF0FC06FE070E080E090E004C0660FED
:10399000771F881F991F4A95D2F76095709580957B
:1039A0009095C695C695C370602B712B822B932B77
:1039B000C23049F058F4C13019F00E946622F0CEAE
:1039C0000E945422EDCE0E947822EACE0E9452221A
:1039D000E7CE8695112311F08C2F8170882309F48E
:1039E000DFCE4D2F429546954770440F440F0D2F63
:1039F0000F7010E030E020E0042E04C0000F111F13
:103A0000221F331F0A94D2F760E070E0CB01D4FF8D
:103A10000FC06FE070E080E090E004C0660F771F99
:103A2000881F991F4A95D2F760957095809590955B
:103A3000C695C695C370602B712B822B932BC23019
:103A400049F058F4C13019F00E942923A9CE0E94F0
:103A50001723A6CE0E943B23A3CE0E948C22A0CE89
:103A6000CF70112329F08C2F0E94B2228D2FDCCE33
:103A70008D2F0E94691B8C2F0E94D32291CED23FA2
:103A800081F160F4D03FC9F0D13F21F1112309F455
:103A900041C001116DCE8C2F8F7120C0D33F31F109
:103AA000D43FA1F7112361F1CF718C2F0E94B22274
:103AB00063E08C2F0E94BF2473CE112339F00111D3
:103AC0006FCE8C2F8F710E94F6226ACE023008F0E2
:103AD00067CEF7CF8C2F8F71112371F20E94B22223
:103AE0005FCE8C2F8F711123C9F3C6CF112329F01C
:103AF0008C2F8F710E949D2253CE0E94982250CE0F
:103B000081E00E94D424023008F44ACE82E00E9470
:103B1000D42446CE002359F0D93309F0B3CE9FEF19
:103B2000E7EEF3E09150E040F040E1F7A9CE8C2FB2
:103B30008F71A2CF4C2F4F706D2FC7010E941808B4
:103B40000E94CA212DCED23F71F1C8F4D03F01F1BD
:103B5000D13FB9F180915E05002309F446C0882366
:103B600041F080915F0591E0892780935F05109275
:103B70005E058D2F112389F10E940C1A16C0D43FC7
:103B8000D9F078F0D53F31F711110FC081E006C0B0
:103B9000112359F080915F0591E0892780935F059B
:103BA00004C081E0182710935F054C2F4F706D2FD4
:103BB000C7010E94350AF4CD1111F7CF10925F05AD
:103BC000F4CF112339F080915E05882319F3109208
:103BD0005E05EBCF0023F1F2E8CF0E94F91A86E0F0
:103BE000F70111928A95E9F7E0CF8823F1F21111DC
:103BF000DCCF80915F0591E0892780935F05E7CF57
:103C0000DF91CF911F910F91FF90EF90DF90CF90B8
:103C1000BF9008950F931F93CF93DF93EC018B8197
:103C20009C81892B29F08881998189238F3F29F4F0
:103C3000DF91CF911F910F910895CE010E94CA0983
:103C40008823B1F3688179818A810E94F1238C01F4
:103C50000E944D230E945122B801CE01DF91CF91E5
:103C60001F910F910C94701B882321F00E94502407
:103C70000C9489240895882321F00E9456240C94E2
:103C8000892408950E945D240E946D240E94892445
:103C90000E94B3290E94112990E080E00E94A2189E
:103CA00090E080E00C94B8180E9423240C94421EEB
:103CB0000E944D240C94541EE92FE295EF70E250BF
:103CC000EE3070F4F0E0EF55FB4C0C94E332803FA3
:103CD00019F020F4883E20F481E00895843FE1F358
:103CE00080E00895883EC0F3813FD1F7F5CF93FB84
:103CF000882780F908950E94E7230C945C1ECF93D7
:103D0000DF9300D000D00F92CDB7DEB70F900F90A9
:103D10000F900F900F90DF91CF910895CF93DF9385
:103D200000D000D000D0CDB7DEB726960FB6F894FD
:103D3000DEBF0FBECDBFDF91CF9108951F93CF930C
:103D4000DF93C091600516E0809161058C1304C07B
:103D5000DF91CF911F910895D0E01C9FF0011D9F2E
:103D6000F00D1124EE59FA4F408151816281738127
:103D7000848195810E948E1E2196C770E5CF409167
:103D800092055091930560919405709195058091ED
:103D90009605909197050C948E1E20916005909148
:103DA000610556E0291302C080E0089530E0529F7B
:103DB000F001539FF00D1124EE59FA4F71817613E3
:103DC00006C07081781303C07281741304C02F5F22
:103DD0003F4F2770E7CF81E008951F93CF93DF9384
:103DE00080919705807FC1F4809194058823A1F08C
:103DF00080916005C0916105609192057091930575
:103E00004091950550919605D62FD723DA01A095BC
:103E1000B09516E0C81304C0DF91CF911F910895AB
:103E200090E04115510511F0DF3F31F401968770A4
:103E3000F1CF2A0F3B1F17C0189FF001199FF00DFB
:103E40001124EE59FA4F21812713F0CF2081261338
:103E5000EDCF22812111EACF238134812417350748
:103E600040F3241B350B283C310500F720919705C2
:103E70002F7020612093970526E0289FF001299F4D
:103E8000F00D1124E959FA4F80818F708061808391
:103E900082E995E00E940A1EDF91CF911F910C9458
:103EA0009E1E9F92AF92BF92CF92DF92EF92FF92AF
:103EB0000F931F93CF93DF93CDB7DEB761970FB604
:103EC000F894DEBF0FBECDBF8C0185E0F801DE01A6
:103ED0001D9601900D928A95E1F7D801DC9011961C
:103EE000EC9011971296CC90129780919505909135
:103EF0009605009709F492C120919205309193059F
:103F0000422F43234F3F09F489C11396AD90BC90D3
:103F100090909405992009F422C1A816B906E0F101
:103F2000F501E81BF90BCF01FF24F394883C9105C0
:103F300008F0F12C80919705982F907FFF2009F4CD
:103F4000C7C091118EC0FC2C3E112BC02D1129C071
:103F5000C11027C08F708061809397050E94BF1E9B
:103F600082E995E00E940A1E80919705D801159676
:103F70008C938F2D61960FB6F894DEBF0FBECDBF28
:103F8000DF91CF911F910F91FF90EF90DF90CF9035
:103F9000BF90AF909F900895809590958A0D9B1D3E
:103FA000C3CFA114B10429F08E2D8D218F3F09F0CC
:103FB00054C180E080FF16C04C2D6E2D8D2D0E94C7
:103FC000CD1E882379F082E995E00E940A1E86E0E2
:103FD000E2E9F5E0DF011D928A95E9F70E94BF1E34
:103FE000F12CC7CFAB2829F08E2D8D218F3F09F002
:103FF00031C180E0B82FB170AB2E80FF29C04C2DAD
:104000006E2D8D2D0E94CD1EB82E811121C0DD8612
:10401000EE868D859E850E94E723292F22952F709D
:10402000223050F0243078F49F7051F0F8019581DF
:10403000907F31F4FB2C9DCF9F7011F08823D1F33A
:10404000805E8830B8F3C8010E940A1EBA2CF2CFF5
:10405000CC2009F48ECF80919705816080939705DD
:10406000BFCF3E1106C02D1104C0D801CC2009F4E9
:104070009CC0DD86EE868D859E850E947B1E8823F2
:1040800019F1CC2009F180919705803270F02091D0
:1040900092053091930538872F831986BB86AA86AF
:1040A0008C87CE0107960E940A1E86E0F801A2E9DD
:1040B000B5E001900D928A95E1F70E94ED1E0E94F5
:1040C000BF1EFF24F39455CFC8010E940A1EF9CFEA
:1040D000911115C07A2DB98AA88A4D2D5E2D6C2DAF
:1040E00089890E947F1E82E995E00E940A1E86E06F
:1040F000E2E9F5E0DF011D928A95E9F763C03E1120
:1041000012C02D1110C0C1100EC0F8018583C80166
:104110000E940A1EE2E9F5E086E0DF011D928A9521
:10412000E9F7F92C26CFDD86EE868D859E850E94E7
:104130007B1E882349F2CC2039F28091970580328A
:1041400008F4B3CF20919205309193053A832983E7
:104150001B82BD82AC828E83CE010196A4CFA816AD
:10416000B90698F1F501E81BF90BCF01F12C883C59
:10417000910508F049C0FC2CCC2009F4A5CF3E11D4
:1041800032C02D1130C08091970580FD23C0982F3B
:10419000907F01F1D80115968C931597903F39F0D7
:1041A000982F907F905F8F70892B15968C93C80104
:1041B0000E940A1E86E0F801A2E9B5E001900D9286
:1041C0008A95E1F70E94BF1ED4CE809590958A0D06
:1041D0009B1DCCCF86E0F801A2E9B5E001900D92DD
:1041E0008A95E1F7C6CEDD86EE868D859E850E9496
:1041F0007B1E81115ACF809197058160809397052E
:10420000C8010E940A1EB5CE7A2DB98AA88A4D2D02
:104210005E2D6C2D89890E947F1E69CFCC2009F408
:1042200053CFDD86EE868D859E850E947B1EF82EFF
:10423000882309F449CF86E0F801A2E9B5E00190AE
:104240000D928A95E1F782E995E00E94FA190E94A1
:10425000ED1EB8CF81E08C25CDCE81E08C25AACE95
:104260001F93CF93DF93CDB7DEB72C970FB6F8949B
:10427000DEBF0FBECDBF4F83588769877A878B8794
:104280009C87CE0107960E94511F882369F08A857A
:104290009B85892B39F04F815885842F85238F3F4B
:1042A00009F071C016E05FC086E0FE013796DE01BE
:1042B000119601900D928A95E1F78A859B85892B4D
:1042C00089F388859F8189238F3F61F32091610560
:1042D00030E0C90101968770992740916005481721
:1042E000190671F40E94581E109261051092600523
:1042F00086E0E2E9F5E0DF011D928A95E9F7D2CF89
:1043000096E0929FD001939FB00D1124AE59BA4F01
:10431000FE01319601900D929A95E1F78093610527
:104320000E949E1EBFCF819FC00111248E599A4FBB
:104330000E94511F8823E9F0E09160051E9FF00163
:104340001124EE59FA4F4081518162817381848139
:1043500095810E948E1E8091600590E00196877085
:10436000992780936005809160059091610589137C
:10437000DACF2C960FB6F894DEBF0FBECDBFDF911B
:10438000CF911F91089569857A858B859C850E94C0
:104390008E1E88CFEF92FF920F931F93CF93DF93E0
:1043A0008C01892B81F0F12CEE24E394E801219615
:1043B000F8018491843770F4843008F05FC0813054
:1043C000B1F08230A1F1DF91CF911F910F91FF9059
:1043D000EF900895853709F44CC008F43DC09CE780
:1043E000980F903780F78F770E94F91A49C00E5FB7
:1043F0001F4FFE01849190E2980F983060F487700F
:10440000FE2D01C0FF0F8A95EAF78F2F0E946024CE
:104410000E94892402C00E940C1A8F2D815030F214
:10442000EFE9FFE03197F1F700C00000F7CF0E5F32
:104430001F4FFE01849190E2980F983050F48770DE
:10444000FE2D01C0FF0F8A95EAF78F2F0E94662488
:10445000DFCF0E94F91AE1CF0E5F1F4FFE01C4911A
:10446000C150D8F28FE99FE00197F1F700C000003A
:10447000F7CF0E5F1F4FFE01F490CFCF0E940C1AB2
:104480008E01CBCF08950C9442220E944322609368
:10449000D3057093D4058093D5059093D6050C94DD
:1044A000421E08950C9445220F931F930091D3054B
:1044B0001091D4052091D5053091D605602B712B34
:1044C000822B932B1F910F910C9445220F931F93D6
:1044D0000091D3051091D4052091D5053091D605D2
:1044E00060237123822393231F910F910C94452203
:1044F0000F931F930091D3051091D4052091D505FA
:104500003091D60560277127822793271F910F913D
:104510000C9445220C944A080E948A226093CF058D
:104520007093D0058093D1059093D2050C94421ED0
:1045300060E070E0CB010C948C220F931F9341E05C
:1045400050E060E070E08A019B0104C0000F111F81
:10455000221F331F8A95D2F7C901B8011F910F910D
:104560000C948C220F931F9341E050E060E070E0C8
:1045700004C0440F551F661F771F8A95D2F780919C
:10458000CF059091D005A091D105B091D2058A01B7
:104590009B01082B192B2A2B3B2BC901B8011F911A
:1045A0000F910C948C220F931F9341E050E060E038
:1045B00070E004C0440F551F661F771F8A95D2F71D
:1045C000CB01BA0160957095809590950091CF05CB
:1045D0001091D0052091D1053091D205602371232F
:1045E000822393231F910F910C948C220F931F937E
:1045F00041E050E060E070E004C0440F551F661FCA
:10460000771F8A95D2F78091CF059091D005A09120
:10461000D105B091D2058A019B01082719272A27C5
:104620003B27C901B8011F910F910C948C220F9365
:104630001F930091CF051091D0052091D1053091A5
:10464000D205602B712B822B932B1F910F910C9411
:104650008C220F931F930091CF051091D0052091CC
:10466000D1053091D20560237123822393231F91BA
:104670000F910C948C220F931F930091CF051091F2
:10468000D0052091D1053091D2056027712782276E
:1046900093271F910F910C948C220895E92FEE0F10
:1046A000E90FEE0F8E0F982F977041E001C0440F75
:1046B0009A95EAF786958695869595E0899FF0010B
:1046C0001124E856FA4F30E020E070E05191DF010C
:1046D0001197CB01022E02C0969587950A94E2F7B6
:1046E000817081958527842385278C932F5F3F4F89
:1046F0002530310559F70895E92FEE0FE90FEE0F38
:104700008E0F982F977086958695869525E0829FC7
:10471000F0011124E856FA4F50E040E080E021918A
:1047200030E0092E02C0369527950A94E2F72170F1
:104730003327042E01C0220F0A94EAF7822B4F5F21
:104740005F4F4530510559F70895BF92CF92DF92E0
:10475000EF92FF920F931F93CF93DF938C01C09042
:10476000CF05D090D005E090D105F090D205809192
:10477000D3059091D405A091D505B091D605C82A4E
:10478000D92AEA2AFB2ACFE1D0E0BC2ED701C60104
:104790000C2E04C0B695A795979587950A94D2F7E5
:1047A00080FD0EC0219788F7B12C8B2DDF91CF9122
:1047B0001F910F91FF90EF90DF90CF90BF900895E1
:1047C000B8018C2F0E94520A019761F3EECFCF936C
:1047D000DF93EC010E94A523BE01DF91CF910C94E1
:1047E000520A1F93CF93DF93EB0190915D059923BC
:1047F00031F0CB01DF91CF911F910C94E7238823F7
:1048000079F0CB010E94A523182F682FCE010E94BA
:104810004E23BE01812FDF91CF911F910C94520A3C
:10482000CB010E947C23182FF4CF682F80911B01AD
:1048300090911C010C943E26682F80911B01909151
:104840001C010C94492680911B0190911C010C9431
:1048500054268091D70585958595859508958091F5
:10486000D705877008959091D705977081E009F476
:1048700080E008958091FB0508959091FB05892BB8
:104880008093FB05089580959091FB059823909364
:10489000FB0508958093FB0508951092FB0508958C
:1048A0009091FA05892B8093FA050895809590914F
:1048B000FA0598239093FA0508951092FA05089541
:1048C0009091F905892B8093F90508958095909131
:1048D000F90598239093F90508951092F905089524
:1048E0008091D805089508950C9473249091D8056B
:1048F000981721F08093D8050C9474240895809122
:10490000D805882329F01092D80580E00C947424EF
:104910000895E0911B01F0911C018091FB058083BB
:10492000E0911B01F0911C0180819091FA05892B87
:104930008083E0911B01F0911C0180819091F90529
:10494000892B80839091D805992381F0E0911B01F8
:10495000F0911C018081892B808380911B019091B3
:104960001C010E94DA2581110E947F2480911B0185
:1049700090911C010C947A1808950C94BC2498E032
:10498000899F90011124622B6093D7050E94B22267
:104990008091D7058595859585950C94BD241092B9
:1049A000D70580E00C94BD249091D705809589238C
:1049B0008093D705282F277071F4282F082E000C1C
:1049C000330B9217130639F08595859585950E94CE
:1049D000D3220C94CF240895CF92DF92EF92FF92CE
:1049E0006C01EE24FF2420E0C114D104E104F104A1
:1049F00019F0C701B60120E1C72ED82EE92EFF24F9
:104A0000C114D104E104F10419F0285FC701B60113
:104A10006B017C0154E0F694E794D794C7945A95BF
:104A2000D1F7C114D104E104F10419F02C5FC701DE
:104A3000B6016B017C0142E0F694E794D794C794E9
:104A40004A95D1F7C114D104E104F10419F02E5FA5
:104A5000C701B6019695879577956795672B682B63
:104A6000692B09F02F5F822FFF90EF90DF90CF909E
:104A7000089590E080E00E943A3421E08C3E9E4F01
:104A800009F020E0822F089582E090E00C942C340D
:104A900083E090E00C942C34CF9384E090E00E946B
:104AA0002C34C82F81E290E00E942C34982F8C2F58
:104AB000CF910895CF93C92F682F84E090E00E9492
:104AC00040346C2F81E290E0CF910C9440348FE021
:104AD00090E00C943434AB01BC018FE090E00C9476
:104AE0005234AB01BC0183E190E00C94523460E09D
:104AF00070E0CB010C9471256CEE7EEF90E080E0CD
:104B00000E945E3460E082E090E00E94403460E009
:104B100083E090E00E9440341092D3051092D405B7
:104B20001092D5051092D60560E084E090E00E94D6
:104B3000403460E081E290E00E94403460E085E033
:104B400090E00E94403460E086E090E00E944034B3
:104B50006FEF87E090E00E94403440E050E0BA01FF
:104B600088E090E00E94523460E08DE090E00E9486
:104B7000403440E050E0BA0188E190E00E945234B5
:104B800060E087E190E00E94403440E050E0BA01EC
:104B90008CE190E00E94523460E080E290E00E945C
:104BA00040340C9400080C947C25682F8EE090E033
:104BB0000C944034FC01329680912C01882321F022
:104BC000809180069EE187FF96E080E0915008F496
:104BD000089521912223D1F38F5FF8CF9C01FC012E
:104BE00032969FEF80E04191461751F09F3F19F4B4
:104BF000411101C0982F8F5F8630A9F79F3F09F4BC
:104C00000895290F311D97FD3A95F90162830895A2
:104C1000FC01329608962191261303C0DF011197FB
:104C20001C92E817F907B9F70895E62FE695E6957F
:104C3000E695EE3168F4E80FF92FF11D677021E079
:104C400030E001C0220F6A95EAF78281822B8283CD
:104C50000895E62FE695E695E695EE3170F4E80FB7
:104C6000F92FF11D677021E030E001C0220F6A9535
:104C7000EAF72095828128232283089520912C0130
:104C8000222329F02091800627FD0C9415260C94F0
:104C9000EE2520912C01222329F02091800627FD6A
:104CA0000C9429260C940826FC01329680912C0144
:104CB000882351F08091800687FF06C08EE1DF01D6
:104CC0001D928A95E9F7089586E0F9CF08950C942E
:104CD00066260E94672680918606843009F439C0D2
:104CE0001092FD0588E190E020E40FB6F894A895B5
:104CF000809360000FBE2093600080E00E94B209A4
:104D00000E9484138091FE0581110AC081E0809386
:104D1000FE058091390681708093FF050E94101175
:104D20000E94672683B7817F846083BF83B78160D9
:104D300083BF7894889583B78E7F83BF0FB6F8942E
:104D4000A895809160008861809360001092600057
:104D50000FBE08950895CF930E9400060E94130687
:104D60000E94AA26C0E08C2F0E946F06811105C008
:104D7000CF5FCE30C1F7CF91089581E0FCCF089589
:104D80000C94BF260E94581E0E946E180E94B20901
:104D90001092FE058091FF0581110E947C130E94F4
:104DA000C9120C94C0261F921FB61F9211248F9314
:104DB0009F93AF93BF938091FD05811113C08091A4
:104DC0007C0690917D06A0917E06B0917F0641966B
:104DD000A11DB11D80937C0690937D06A0937E0655
:104DE000B0937F06BF91AF919F918F911F901FBE8F
:104DF0001F90189582E084BD93E095BD9AEF97BD12
:104E000080936E0008952FB7F89480917C0690915E
:104E10007D06A0917E06B0917F062FBF0895CF92A8
:104E2000DF92EF92FF920F931F932FB7F894409168
:104E30007C0650917D0660917E0670917F062FBFA3
:104E40006A017B01EE24FF248C0130E020E0C016D3
:104E5000D106E206F30650F0481B590BCA011F9118
:104E60000F91FF90EF90DF90CF900895415051093E
:104E7000F3CF78941F921FB61F9211248F939F93A4
:104E8000AF93BF9380917C0690917D06A0917E06A2
:104E9000B0917F060196A11DB11D80937C06909371
:104EA0007D06A0937E06B0937F06BF91AF919F9140
:104EB0008F911F901FBE1F901895F89481E08093EA
:104EC000E00080E28093D800E9ECF0E010828FE10E
:104ED0009EE40197F1F700C000001DBA109268002F
:104EE0001CBC10BE1FBA10927A0010926E00109275
:104EF0006F0010927100109272001082ECEBF0E0E3
:104F0000108214B817B81AB81DB810BA108215B8A4
:104F100018B81BB81EB811BA0C94003F08950E942F
:104F20003925811102C00E94D3250E944425809317
:104F3000FC050E944C2590938106809380060E9478
:104F40004825682F70E090E080E00C945222809118
:104F5000040680FF12C06091200185E0689FB001C7
:104F60001124759567957595679560387105A8F555
:104F700061157105A1F1862F089581FF09C0609127
:104F8000200185E0689FB001112475956795EDCFEC
:104F90006091200182FD0AC0809103068823D1F030
:104FA00090911F0160912001891728F085E0689F8A
:104FB000B0011124DACF869FB001112485E0869FCD
:104FC0009001879F300D1124692F70E0C9010E9464
:104FD000CF32CBCF65E070E0CECF8FE7089581E090
:104FE00008958091040680FF0CC060911E0170E05E
:104FF00075956795759567956115710549F1862FCA
:10500000089581FF06C060911E0170E07595679557
:10501000F3CF60911E0182FD0BC09091030699238E
:10502000A1F060911D0180911E01961738F0682F44
:1050300070E06038710500F38FE70895899FC00123
:10504000112470E00E94CF32F4CF61E070E0D7CF3E
:1050500081E00895803F31F40E94A72781958093D5
:1050600008060895813F19F40E94A727F8CF823FD0
:1050700031F40E94A7278195809307060895833F06
:1050800019F40E94A727F8CF893F29F40E94F1273D
:105090008093090608958A3F21F40E94F1278195A3
:1050A000F7CF8B3F31F40E94F127819580930A0658
:1050B00008958C3F19F40E94F127F8CF843F31F412
:1050C000809106068160809306060895853F21F44D
:1050D000809106068260F7CF863F21F48091060614
:1050E0008460F1CF873F21F4809106068860EBCF82
:1050F000883F21F4809106068061E5CF8D3F31F431
:105100008091040681608093040608958E3F21F407
:10511000809104068260F7CF8F3FB9F78091040633
:105120008460F1CF90910706803F41F4809108069A
:1051300087FD10920806992371F00895813F29F4A4
:10514000809108061816ACF3F6CF823F81F497FFE2
:10515000F2CF109207068091080690910906892BDC
:1051600090910A06892B49F7109203060895833F10
:1051700019F4191674F3DFCF893F39F480910906C9
:105180001816CCF610920906D6CF8A3F29F48091E2
:10519000090687FFD0CFF6CF8B3F39F480910A06FE
:1051A00087FFC9CF10920A06C6CF8C3F29F48091A1
:1051B0000A061816BCF3BFCF843F31F4809106066F
:1051C0008E7F80930606B7CF853F21F48091060637
:1051D0008D7FF7CF863F21F4809106068B7FF1CF3C
:1051E000873F21F480910606877FEBCF883F21F42B
:1051F000809106068F7EE5CF8D3F31F480910406C5
:105200008E7F8093040697CF8E3F21F48091040611
:105210008D7FF7CF8F3F09F08ECF809104068B7F73
:10522000F0CF85E096E00E9494180E9403279093A7
:1052300002068093010608951F93CF93DF93809118
:105240000106909102060E940F27AC01909103067F
:105250002091210130E0911106C0209100068AE0E2
:10526000289F900111244217530778F020910706D8
:10527000C0910806D091090610910A06211109C0B3
:105280008C2F8D2B812B09F06AC0DF91CF911F915C
:1052900008959F3F19F09F5F90930306121624F420
:1052A0000E94A727809307068091070687FF05C005
:1052B0000E94A7278195809307061C1624F40E945C
:1052C000A727809308068091080687FF05C00E94E3
:1052D000A727819580930806309107063323A1F014
:1052E00020910806222381F045EB3403C0011124EC
:1052F000992369F19093070645EB2403900111244B
:10530000332349F1309308061D1624F40E94F12737
:10531000809309068091090687FF05C00E94F12746
:10532000819580930906111624F40E94F127809339
:105330000A0680910A0687FF05C00E94F127819521
:1053400080930A06DF91CF911F910C94112981E07F
:1053500080930706D1CF81E080930806D5CF9F3F89
:1053600009F099CFAACF86E0E5E0F6E0DF011D92D3
:105370008A95E9F710920306109204060895833087
:1053800081F128F4813059F08230D1F008958530D0
:1053900009F449C0B8F1863009F456C008958091E7
:1053A0000006482F460F5527551F4F3F510524F43F
:1053B000680F6093000608958FEF809300060895AC
:1053C00080912101482F460F5527551F4F3F51050A
:1053D00024F4680F6093210108958FEF80932101D9
:1053E000089580912001482F460F5527551F4F3FA4
:1053F000510524F4680F6093200108958FEF809386
:105400002001089580911F01482F460F5527551FF1
:105410004F3F510524F4680F60931F0108958FEFEB
:1054200080931F01089580911E01482F460F552734
:10543000551F4F3F510524F4680F60931E010895D6
:105440008FEF80931E01089580911D01482F460F14
:105450005527551F4F3F510524F4680F60931D01D8
:1054600008958FEF80931D010895833011F128F482
:10547000813049F0823091F00895853081F120F13A
:105480008630C1F1089580910006681720F4861BCC
:1054900080930006089510920006089580912101DE
:1054A000681720F4861B8093210108951092210132
:1054B000089580912001681720F4861B80932001B5
:1054C000089510922001089580911F01681720F41B
:1054D000861B80931F01089510921F0108958091EB
:1054E0001E01681720F4861B80931E0108951092F8
:1054F0001E01089580911D01681720F4861B80937A
:105500001D01089510921D0108950F931F9341E00E
:1055100050E060E070E08A019B0104C0000F111FA1
:10552000221F331F8A95D2F7C901B8010E94522267
:105530001F910F910C94581EEBEFE80FEF3308F01A
:1055400065C0F0E0E155FB4C0C94E3320E94D3259A
:1055500081E008958091FC05807F8093FC0581E0C7
:1055600080930C0608950E94581E2FEF83ED90E360
:10557000215080409040E1F700C000000E945D276C
:10558000E7CF9091FC05892F8E7F90FF81608093FB
:10559000FC0580FDDDCF817F8093FC05D9CF909104
:1055A000FC05892F8D7F91FF82608093FC0581FF30
:1055B000CFCF8091FC058160EFCF9091FC05892FC2
:1055C0008B7F92FF84608093FC0582FDF2CFC0CF79
:1055D0009091FC05892F877F93FF88608093FC055D
:1055E00083FDE7CFB5CF0E94581E90918006892F8A
:1055F00097FB87F9805880938006AACF80E00E94AD
:10560000852AA6CF8953FBCF8D51F9CF80E008952D
:1056100080E008950C94082B8E518A3030F4E82FE6
:10562000F0E0E650FE4F8081089580E00895CF932A
:10563000C82F80910C068130E1F0882329F0823058
:10564000E9F110920C0613C00E943A24813159F4FA
:105650008C2F0E94082B811125C08C2F0E949C2A20
:105660008170CF9108950E943A24823289F380E0BC
:10567000F8CF0E943A24813159F30E943A248232B1
:1056800039F38C2F0E940A2B81110AC0C43199F082
:1056900060F4CB3029F0C03119F782E080930C061A
:1056A00081E0DECF81E090E0DBCFC93221F0C8336A
:1056B000B9F380E0D5CF10920C06FBCFC93219F1B7
:1056C00088F4C43101F120F4C73081F181E0C9CF01
:1056D00082EE8C0F8630D0F78C2F0E940C2B80939B
:1056E0000B06F4CFCE3401F140F46AE0CB3471F70D
:1056F00080910B060E94BF29E9CFC13579F061E0A6
:10570000C235B1F3E3CF80910B06882319F01092D4
:105710000B06DCCF81E080930C06A3CF61E0809183
:105720000B060E94352AD2CF6AE0F9CF109200060C
:1057300084E180932101C09320018CE380931F01B9
:1057400088E080931E0188E280931D01BFCF809185
:105750002D0608950F931F93CF93DF9300D00F92E0
:10576000CDB7DEB78C010E94092E823011F0843053
:1057700021F584E089831B830A8382E08093E9001A
:105780008FEF9091E800815095FD06C095ED9A95B8
:10579000F1F700008111F5CF8091E80085FF0DC081
:1057A00050E040E063E070E0CE0101960E94262EBA
:1057B0008091E8008E778093E8000F900F900F9013
:1057C000DF91CF911F910F910895CF93DF9300D078
:1057D0000F92CDB7DEB720918606243031F523E055
:1057E0002983805891099B838A8382E08093E90012
:1057F0008FEF9091E800815095FD06C095ED9A9548
:10580000F1F700008111F5CF8091E80085FF0DC010
:1058100050E040E063E070E0CE0101960E94262E49
:105820008091E8008E778093E8000F900F900F90A2
:10583000DF91CF910895CF93DF93EC010E94092E61
:10584000823011F08430F9F482E08093E9008FEF28
:105850009091E800815095FD06C095ED9A95F1F77D
:1058600000008111F5CF8091E80085FF0CC050E069
:1058700040E066E070E0CE010E94262E8091E800B4
:105880008E778093E800DF91CF910895CF93DF93D7
:10589000EC010E94092E823011F08430B9F580911C
:1058A0002C018823B1F18091800687FF32C060E22D
:1058B00082E08093E9008FEF9091E800815095FDA0
:1058C00006C095ED9A95F1F700008111F5CF809112
:1058D000E80085FF1BC080912C0170E050E040E0A3
:1058E000811104C050E040E068E070E0CE010E9409
:1058F000262E8091E8008E778093E80080E2FE01FA
:10590000ADE0B6E001900D928A95E1F7DF91CF917D
:10591000089568E081E0CDCF80918506811109C0AE
:105920000E94B42F0E9411308091E2008460809325
:10593000E2000895109285060895089508950C9444
:10594000C22642E061EC81E00E94322F42E261EC2B
:1059500082E00C94322F80918806833009F45FC076
:1059600030F48130C1F1823009F49BC008958A304F
:1059700009F487C08B3009F46DC0893009F04EC03E
:1059800080918706813209F049C080918B06909101
:105990008C06029708F042C08091E800877F8093D0
:1059A000E8008091E80082FF35C09091F30080917B
:1059B000F200029729F48091F1008B7F813021F46D
:1059C0008091F10080932D068091E8008B77809381
:1059D000E8000C94662F80918706813AF9F4809153
:1059E000E800877F8093E80080918B0690918C0679
:1059F000892B61F460E28DE096E070E00E94752EE4
:105A00008091E8008B778093E800089560E090E053
:105A100080E0F3CF809186068111C3CF08958091F5
:105A20008706813AD9F780918B0690918C06892B55
:105A3000A9F78091E800877F8093E8008091E800D3
:105A400080FFFCCF80912C018093F1008091E800D1
:105A50008E77BDCF80918706813201F780918B06CA
:105A600090918C06892BD1F68091E800877F8093F6
:105A7000E8000E94662F8091890680932C010C9487
:105A8000581E80918706813249F68091E800877F11
:105A90008093E8000E94662F80918A0680932E06EC
:105AA000089580918706813A09F0B8CF8091E80087
:105AB000877F8093E8008091E80080FFFCCF809191
:105AC0002E06C2CF84B7877F84BF0FB6F894A895FF
:105AD00080916000886180936000109260000FBE2A
