:100000000C940A050C9427050C9427050C942705DD
:100010000C9427050C9427050C9427050C942705B0
:100020000C9427050C9427050C942D300C9400316A
:100030000C94CF260C9427050C9427050C942705C7
:100040000C9427050C9427050C9427050C94270580
:100050000C9427050C9435270C9427050C94270540
:100060000C9427050C9427050C9427050C94270560
:100070000C9427050C9427050C9427050C94270550
:100080000C9427050C9427050C9427050C94270540
:100090000C9427050C9427050C9427050C94270530
:1000A0000C9427050C9427050C9427056572676F3F
:1000B000646F785F657A2F73616570204020302E01
:1000C000372E3130362D33332D673561613932317A
:1000D0002D6469727479006572676F646F785F650B
:1000E0007A2F73616570204020302E372E313036E4
:1000F0002D33332D673561613932312D6469727466
:1001000079000000F0A102532B00E000E100E101C2
:1001100000001E00140004001D00000004081F0061
:100120001A0016001B002D02296820000800070095
:10013000060003512C442100150009451900E20076
:100140001901220017000A42050000001B01065D8C
:100150003A0800003B0800000601075D1308000094
:1001600001530000500423001C000B00110000008C
:100170004F04240018000D0010002A744B002500C5
:100180000C000E00360003513044260012000F0010
:1001900037002D452F682700130033423800055DD6
:1001A0004E002A0031002871E5006500000035008E
:1001B0002B00E000E100340200001E0014000400E7
:1001C0001D00100000001F001A0016001B000C008C
:1001D0002C0020000800070006000B002C00210066
:1001E000150009001900E2001901220017000A0099
:1001F000050000001B012300000000002900000092
:10020000060100000000000001000000500423006F
:100210001C000B00110000004F04240018000D000A
:1002200010002A744B0025000C000E00360003510C
:100230003044260012000F0037002D452F6827009C
:10024000130033423800055D4E002A00310028714A
:10025000E5006500000001002B00E000E100010066
:1002600000000000F400F200F700010004080000A4
:10027000F000F100F600010010500000F500F3005E
:10028000F80013502C440000F900FA000100E200CD
:100290001901000001000000010000001B01010025
:1002A0000100000001000000060100000000000045
:1002B00011500000AC00010001000100010000002D
:1002C000AB0053005F005C0059006200A9005500BC
:1002D00060005D005A006300AE00540061005E00E3
:1002E0005B008500A80056005700010001000100D6
:1002F000AA002A0031002871E500650000001250B4
:100300002B00E000E1000000000000001E021E00C3
:100310002D000000010000001F021F002E0200003F
:100320001050000020022000350001002C44000085
:1003300021022100340200000000000022022200FD
:10034000000000000000035D00000000000000004D
:100350000000045D0000000000000000010000003B
:1003600023022300000000000100000024022400FA
:1003700034002A004B000000250225000000000088
:1003800027020000350026002E0000002602000093
:10039000350227002D0200004E002A00310028718E
:1003A000E5000000000000002B00E000E10000007C
:1003B00000003A0000004A000000000001003B007D
:1003C000500100004C00000010503C004F011B0188
:1003D000000000002C443D0000004D000000E20041
:1003E00000003E00000000005001000000003F003F
:1003F00000000000000000000000400000000000BD
:100400000000000050044100060150003C000000C4
:100410004F0442001D0151004B004E004B004300B1
:1004200000005200500400000100440000004F0092
:100430004F0400002F684500190100003C00000037
:100440004E002A0031002871E50000000000125023
:100450002B00E000E10001000000010001000100AC
:100460000100010001000100010001000100010084
:100470001050010001000100010001002C440100A6
:100480000100010001000100000001000100010065
:10049000010000000000035D0000000000000000FB
:1004A0000000045D000000000000000001000000EA
:1004B00000000000000000000100000042003E00BB
:1004C0003A0000004B00000043003F003B000000EA
:1004D00027020000440040003C000000260200000B
:1004E000450041003D0000004E002A003100287107
:1004F000E5000000000000000000000000002A2BC2
:1005000028000000000000000000000000000000C3
:100510000029000000002C1E34202122243426272C
:10052000252E362D3738271E1F202122232425264D
:100530003333362E37381F0405060708090A0B0C1B
:100540000D0E0F101112131415161718191A1B1C63
:100550001D2F3130232D350405060708090A0B0C21
:100560000D0E0F101112131415161718191A1B1C43
:100570001D2F3130354C000000000000000000004D
:10058000000000000000000000000000000000006B
:10059000000000000000000000000000000000005B
:1005A000000000000000000000000000000000004B
:1005B000000000000000000000000000000000003B
:1005C000000000000000000000000000000000002B
:1005D000000000000000000000000000000000001B
:1005E000000000000000000000000000000000000B
:1005F00000000000000000000000000000000000FB
:1006000000000000000000000000000000000000EA
:1006100000000000000000010101010101000101D2
:1006200001010000000000000000000000000000C8
:1006300001000100010101010101010101010101AC
:10064000010101010101010101010101010101019A
:100650000100000001010000000000000000000097
:10066000000000000000000000000000000000008A
:1006700000010101010000047F3F1F643214643255
:1006800014783C1E1E140A052223252628292A2C0C
:100690002D2F3032333536383A3B3D3E40424345CC
:1006A00047494A4C4E5051535557595A5C5E606207
:1006B000646668696B6D6F71737577797B7D7F8117
:1006C000838587898A8C8E90929496989A9C9E9F17
:1006D000A1A3A5A7A8AAACAEAFB1B3B4B6B8B9BB35
:1006E000BCBEBFC1C2C3C5C6C7C9CACBCCCDCED0A4
:1006F000D1D2D2D3D4D5D6D7D7D8D9D9DADADBDB91
:10070000DBDCDCDCDCDCDDDDDDDDDCDCDCDCDCDB27
:10071000DBDBDADAD9D9D8D7D7D6D5D4D3D2D2D170
:10072000D0CECDCCCBCAC9C7C6C5C3C2C1BFBEBC63
:10073000BBB9B8B6B4B3B1AFAEACAAA8A7A5A3A1D4
:100740009F9E9C9A98969492908E8C8A8987858396
:10075000817F7D7B79777573716F6D6B6968666476
:1007600062605E5C5A5957555351504E4C4A494746
:10077000454342403E3D3B3A3836353332302F2DEB
:100780002C2A292826252322FFAA7F554000010173
:100790000101010101010102020202020202020240
:1007A0000303030303030303040404040404040510
:1007B00005050505060606060607070707070808D4
:1007C0000808090909090A0A0A0B0B0B0C0C0C0D85
:1007D0000D0D0E0E0E0F0F0F10101111111212131E
:1007E000131414151516161717181819191A1A1B99
:1007F0001B1C1D1D1E1E1F202021222223242425F8
:100800002626272829292A2B2C2D2D2E2F30313230
:1008100032333435363738393A3B3C3D3E3F404140
:1008200042434445464748494A4C4D4E4F50515328
:1008300054555658595A5B5D5E5F616264656668DF
:10084000696B6C6D6F7072737577787A7B7D7E8063
:1008500082838587888A8C8E8F91939596989A9CAF
:100860009EA0A2A3A5A7A9ABADAFB1B3B5B7BABCC3
:10087000BEC0C2C4C6C9CBCDCFD1D4D6D8DBDDDF94
:10088000E2E4E7E9EBEEF0F3F5F8FAFDFF040330FC
:1008900000000016034500720067006F0044006FFF
:1008A000007800200045005A000000160345007241
:1008B0000067006F0044006F007800200045005A78
:1008C0000000000403090409023B00020100A0FA31
:1008D00009040000010301010009211101000122A6
:1008E00040000705810308000A0904010001030014
:1008F000000009211101000122C000070582032028
:10090000000A1201100100000008EDFE07130100AB
:100910000102030105010902A10185020901A100EB
:1009200005091901290515002501950575018102A3
:100930009501750381010501093009311581257F74
:1009400095027508810609381581257F950175087E
:100950008106050C0A38021581257F9501750881ED
:1009600006C0C005010980A10185031A81002A8300
:1009700000160100260300950175108100C0050CCA
:100980000901A10185041A01002A9C021601002612
:100990009C02950175108100C005010906A1018521
:1009A00005050719E029E71500250195087501815E
:1009B000020507190029EF1500250195F075018141
:1009C0000205081901290595057501910295017522
:1009D000039101C005010906A101050719E029E7F6
:1009E00015002501950875018102950175088101A1
:1009F0000507190029FF150026FF009506750881D7
:100A000000050819012905950575019102950175E3
:100A1000039101C011241FBECFEFDAE0DEBFCDBFCE
:100A200012E0A0E0B1E0ECEEF9E602C005900D9214
:100A3000A430B107D9F726E0A4E0B2E001C01D92CE
:100A4000A339B207E1F70E945E2D0C9472340C9426
:100A5000000080B38C7080BB81B3836F81BB08952D
:100A600084B1807F84B985B1807F85B98AB1837F65
:100A70008AB98BB1837F8BB93E9846980895CF93FE
:100A8000C82F873070F58091060190910701892B5E
:100A900089F564E670E080E40E94B4179093070142
:100AA00080930601892BD1F464E670E082E10E9414
:100AB00010189093070180930601892B79F481E047
:100AC00090E001C0880FCA95EAF764E670E080956F
:100AD0000E9410189093070180930601CF910C9407
:100AE00063188A30B9F040F4883071F0893079F0B9
:100AF000209A2898CF9108958C3091F070F08D3025
:100B0000B9F73E9A4698F6CF219A2998F3CF229AC0
:100B10002A98F0CF239A2B98EDCF529A5A98EACF81
:100B2000539A5B98E7CFCF93873008F040C080910D
:100B3000060190910701C0E0892B71F464E670E032
:100B400080E40E94B4179093070180930601892BDB
:100B500031F0C0E00E9463188C2FCF91089564E6B5
:100B600070E083E10E9410189093070180930601C2
:100B7000892B79F764E670E081E40E94B4179093C2
:100B8000070180930601892B21F784E690E00E94FB
:100B90003F1897FF05C09093070180930601D9CFB6
:100BA000C82FC0951092070110920601D3CFCFB184
:100BB0008FB1869586958C73C3708C2BC82FC0958A
:100BC000CBCF08950C94E1050E94870790E09093A5
:100BD0000701809306010E9430050E942905E5E087
:100BE000F2E0A3E1B2E011921D9282E0E331F80756
:100BF000D1F78EE00E94EE0C0C948F090E948707BB
:100C000090E090930701809306010E9430050E94B6
:100C10002905E5E0F2E0119282E0E331F807D9F727
:100C20000895EF92FF920F931F93CF93DF938091DC
:100C3000060190910701892B91F0809104028F5F4A
:100C40008093040281110BC00E94870790E090936B
:100C5000070180930601892B11F40E941C0703E110
:100C600012E0C0E0D0E087E0E82EEC0E8C2F0E946E
:100C70003F058E2D0E943F058C2F0E949305F801A1
:100C800091918F01F12C891721F031978083FF24F6
:100C9000F3948E2D0E949305F80196818917D9F05F
:100CA000868381E08F29D82B0E943005CF5FC73023
:100CB000D1F62D2F4EE065E072E083E192E00E94D4
:100CC000710D0E94990981E0DF91CF911F910F91E1
:100CD000FF90EF90089580E0E5CFE82FF0E0EB5F24
:100CE000FD4F8081089508953BB1242F2095232343
:100CF0003BB1432B3FB7F894680F791F86179707CE
:100D000011F43FBF0895FC015191CF01E8E04BB9C8
:100D1000000000C057FF2BB9550F000000C000C0F5
:100D200000C02BB900C0EA9591F7E8CF2AB1242B77
:100D30002AB9660F771F660F771F0E9474068FE32C
:100D400091E00197F1F700C00000089540E80C948D
:100D50009606CF93DF938091390680FD37C0EEE38E
:100D6000F6E01182108212821382349686E0EA370E
:100D7000F807B9F70E94AE1764E670E084E80E94B5
:100D8000B417CEE3D6E064E670E088810E941018C4
:100D900064E670E089810E94101864E670E08A8140
:100DA0000E94101864E670E08B810E94101824964F
:100DB00086E0CA37D80739F70E9463186FE070E001
:100DC0008EE396E0DF91CF910C94A606CEE3D6E0B9
:100DD000CE010E94000F249686E0CA37D807C1F7DB
:100DE000C9CF259A2D9A0895269A2E9A0895279A62
:100DF0002F9A089556985E98089525982D980895ED
:100E000026982E98089527982F9808950E94FA06FC
:100E10000E94FD060E9400070C94030790E0909347
:100E200089008093880090938B0080938A00909330
:100E30008D0080938C0008950E9406078FEF0E941A
:100E40000E070E94F1062FEF80E792E021508040CC
:100E50009040E1F700C000000E94F4062FEF80E709
:100E600092E0215080409040E1F700C000000E94D5
:100E7000F7062FEF80E792E0215080409040E1F7A5
:100E800000C000000E94FD062FEF80E792E0215095
:100E900080409040E1F700C000000E9400072FEF63
:100EA00080E792E0215080409040E1F700C00000D0
:100EB0000E9403070C94060789EA8093800089E06A
:100EC0008093810024982C983F988AB18F7C8AB9AE
:100ED0006E98479A8BB180638BB9769A0E9463258E
:100EE00060933006709331068093320690933306F8
:100EF00067702FEF629FC001112495958795959596
:100F000087950E940E070E941C070C94230880E21C
:100F100090E0909307018093060180912102811156
:100F20000EC00E94AE1781E0809321022FEF83ED67
:100F300090E3215080409040E1F700C0000064E65B
:100F400070E080E40E94B41790930701809306013B
:100F5000892B09F04EC064E670E080E00E94101812
:100F60009093070180930601892B09F042C064E643
:100F700070E080E00E9410189093070180930601B2
:100F8000892BB9F564E670E08FE30E941018909306
:100F9000070180930601892B61F50E94631864E6BE
:100FA00070E080E40E94B4179093070180930601DB
:100FB000892BF9F464E670E08CE00E94101890939D
:100FC000070180930601892BA1F464E670E080E0BC
:100FD0000E9410189093070180930601892B49F411
:100FE00064E670E08FE30E941018909307018093ED
:100FF00006010E9463188091060108951092300640
:1010000010923106109232061092330684E080610D
:1010100080933006609130067091310680913206DF
:10102000909133060E9467250C947325611108C0C6
:10103000FC018281882321F087ED90E00E948C09D9
:1010400090E080E008950895FB018A302DE5920735
:1010500071F08B302DE5920791F089309D45B1F408
:1010600082818823A1F00E94CF2580E008958281AB
:10107000882369F08CEA90E00E948C09F6CF828187
:10108000882329F081E00E943213EFCF81E0089598
:10109000CF92DF92EF92FF92CF936B017C010E947F
:1010A000E824C82F0E94FA060E94FD060E9400074D
:1010B0000E940307C150C73040F4EC2FF0E0EC5819
:1010C000FB4C0C94E1320E94F106C701B601CF91AE
:1010D000FF90EF90DF90CF9008950E94F1060E945C
:1010E000F406F3CF0E94F1060E94F706EECF0E94AD
:1010F000F1060E94F406F8CFCF93DF939C013A9556
:1011000021153F4168F5EC01CC27D170DC01AA27FD
:10111000B270AC01442754709C012227387094FFB0
:1011200011C080E1CD2B09F480E0AB2B09F0806287
:10113000452B09F08064232B09F08068FB01DF91C7
:10114000CF91099481E0CD2B09F480E0AB2B09F01D
:101150008260452B09F08460232B81F38860EECFF9
:10116000DF91CF910895CF93DF93EC01805E9109D9
:10117000089720F060E37EE1209711F46EE57BE1B3
:10118000CE010E947C088C2FDF91CF910C94081A1D
:10119000CF93DF93EC010E94F51ACE01805E910996
:1011A000089720F067E37EE1209711F465E67BE184
:1011B000CE01DF91CF910C947C08CF93DF93EC01AB
:1011C0000E94B308CE01DF91CF910C94C80881E052
:1011D00008950C9424081F93CF93DF9300D000D080
:1011E0000F92CDB7DEB749835A836B8320915D059B
:1011F00089819A8121111BC06623A9F00E94A12335
:10120000182F682F89819A810E944A2369817A81E7
:10121000812F0F900F900F900F900F90DF91CF9133
:101220001F910C94340A0E947823182FEFCF0E944C
:10123000A12369817A81EDCFFC01408151816281D6
:10124000738184810C94EB081F93CF93DF9390E01C
:10125000FC01EA50FB4F1491FC01EA50FA4FD49183
:101260008A589A4FFC01C491DD2319F081EE0E9447
:10127000081ACC2319F086EE0E94081A812F0E94CA
:101280004B1BCC2319F086EE0E94F51ADD2331F0BA
:1012900081EEDF91CF911F910C94F51ADF91CF91E0
:1012A0001F910895FF920F931F93CF93DF938C01AB
:1012B000F62EF8018491882349F1E80121968130C6
:1012C00049F4FE011491812F0E94081A812F0E9477
:1012D000F51A06C0823089F4FE0184910E94081A32
:1012E0008E010F5F1F4F8F2D815018F3EFE9FFE044
:1012F0003197F1F700C00000F7CF833019F4FE01F9
:101300008491E5CF0E942409E801EACFDF91CF91D3
:101310001F910F91FF90089560E00C9452090E9474
:101320003525811102C00E94CF250E94C20D0C9468
:101330005C070C94E205282F2F7041F0822F90E07B
:101340002A3010F44D9608950697089587E290E0AC
:10135000089508950C94A90981E008950C94AC09AE
:10136000CF93C82F0E94AA098C2FCF910C94AE095D
:1013700008950E94541E0E94B8092FEF84E39CE058
:10138000215080409040E1F700C000000C945927A4
:101390000F931F93CF93DF93EC010E941C098C01E4
:1013A000BE010E942917882309F441C0BE01C8016B
:1013B0000E94E9088823D9F1BE01C8010E94390EB4
:1013C0008823A9F1BE01C8010E941715882379F16D
:1013D000BE01C8010E945815882349F1BE01C80109
:1013E0000E943A14882319F18A81882341F001155B
:1013F0008CE51807D1F00E3D8CE51807F1F00631A9
:101400001C4551F50E9436249A819923D9F08A7A95
:1014100091E009F490E090932202811111C089E2D9
:101420000E9411240E94852402C00E94B90980E014
:10143000DF91CF911F910F9108950E94CF25F7CF93
:1014400085E3EECF80912202811104C089E20E94DF
:101450001824E8CF85E3FBCFCE01DF91CF911F9118
:101460000F910C94E7080895972F70E026E0929F63
:10147000600D711D1124FB0194E5899FE00DF11DA4
:101480001124EE0FFF1FEA5FFE4F8591949108959E
:10149000FC01EE0FFF1FEE5FFE4F859194910895C2
:1014A000CF93DF930E94340A0E94140CEC01811543
:1014B00020E5920708F042C0811530E4930708F058
:1014C00018C1883E910528F5803E910508F0A4C01A
:1014D000883A910588F4853A910508F093C08130E7
:1014E000910509F499C0009709F496C0049708F093
:1014F00093C0D0E0C0E090C08F3B910508F490C04D
:10150000805C9109C03CD105A0F30E94480AEC011F
:1015100083C08115904250F4C11581E0D80708F0CE
:101520007BC0C03FD10528F3D06576C0C11590E3DC
:10153000D90708F0D4C0CE019F70E7CF811525E50B
:10154000920758F5811534E5930708F001C181151C
:1015500042E5940750F4C11581E5D80708F4CCC0E2
:10156000DC2FCC27C16FD06A57C0982F96959695DF
:101570009E0123703327C115D34508F0DAC0C1E0BE
:10158000D0E002C0CC0FDD1F2A95E2F720E2929F47
:10159000C0011124C82BD92BCAC0C1158AE5D807B0
:1015A000A0F4C11599E5D90708F0E2C0C11526E5F8
:1015B000D20708F4D2C0C11538E5D30708F499CF93
:1015C000DC2FCC27C06FD06A27C0C1154BE5D407EC
:1015D00008F48FCFC1158CE5D80708F4D7C0CE0129
:1015E00090568115904208F084CF8D2F8F710E9404
:1015F000AB0C90E0982F882788279F719C012C2B9B
:10160000E901B4C0853A910509F4C3C0863A910551
:1016100009F0C2C0C2E8D0E4CE01DF91CF910895B5
:10162000883A910509F4BBC0893A910509F4BAC01A
:101630008A3A910509F4B9C08B3A910509F4B8C00A
:101640008C3A910509F4B7C08B3B910509F4B6C0FB
:101650008C3B910509F4B5C08D3A910509F4B4C0ED
:10166000803B910509F4B3C08E3A910509F4B2C0EC
:101670008F3A910509F4B1C0813B910509F4B0C0DE
:10168000823B910509F4AFC0833B910509F4AEC0DC
:10169000843B910509F4ADC0853B910509F4ACC0CC
:1016A000863B910509F4ABC0873B910509F4AAC0BC
:1016B000883B910509F4A9C0893B910509F4A8C0AC
:1016C0008D3B910509F4A7C08E3B910509F4A6C096
:1016D0008A3B910509F4A5C0C0E0D4E49DCFCE01BA
:1016E0009927D3FF03C0EC01D86C96CFEC01D06CE6
:1016F00093CFDF70D06A90CFCE01E4E096958795C6
:10170000EA95E1F783702C2F26952695237040E209
:10171000249F90011124382B8C2F8370C1E0D0E0DE
:1017200002C0CC0FDD1F8A95E2F7C22BD32BDC68F9
:1017300073CFC1E0D0E002C0CC0FDD1F2A95E2F7E5
:1017400030E2939FC0011124C82BD92BDA6864CFF3
:10175000D82FCC27C46FD06A5FCF8C2F0E94AB0CE0
:10176000C82FD0E0DC2FCC27CC27DF71D06254CF3C
:101770008C2F8F700E94AB0C34E0D695C7953A95AC
:10178000E1F7CF709C2FEC01D06946CFDD27D06602
:1017900043CFC1E8D0E440CFC3E8D0E43DCFC2EEB0
:1017A000D4E43ACFC9EED4E437CFCAEED4E434CF90
:1017B000C5EBD4E431CFC6EBD4E42ECFC3EBD4E4F5
:1017C0002BCFC4EBD4E428CFC7EBD4E425CFCCECAB
:1017D000D4E422CFCDECD4E41FCFC3E8D5E41CCFB2
:1017E000CAE8D5E419CFC2E9D5E416CFC4E9D5E4F7
:1017F00013CFC1E2D6E410CFC3E2D6E40DCFC4E2EA
:10180000D6E40ACFC5E2D6E407CFC6E2D6E404CFD9
:10181000C7E2D6E401CFCFE6D4E4FECEC0E7D4E4FD
:10182000FBCECAE2D6E4F8CE82389105B1F1B0F42D
:101830008133910509F475C048F48932910509F4A2
:1018400069C08A32910509F473C008958533910502
:1018500009F459C08933910501F10895833E91053A
:10186000A9F138F4803E9105F9F0823E910549F1E5
:101870000895863E9105A9F1873E9105C9F1843E00
:10188000910519F52091810621FF1FC080918006E6
:1018900084FD14C087EE90E00895209180062370A7
:1018A000A1F080EE90E008952091800620FD47C0D1
:1018B0003091810630FF09C024FF44C090E080E0F1
:1018C00004C02091800622FDF7CF08952091800664
:1018D00022FD3BC03091810630FDE3CF24FFF5CFE0
:1018E000EDCF2091800623FFF0CF24FDE7CFD2CFAC
:1018F0002091800623FD2CC03091810631FFEECF70
:1019000084EE90E008952091800625FFDECF89E2E5
:1019100090E008952091800625FFD7CF85E390E0E1
:1019200008952091800626FFD0CF8AE290E00895A6
:101930002091800626FFC9CF81E390E0089589E3D6
:1019400090E0089583EE90E0089582EE90E008958F
:1019500086EE90E008959091800692FF06C0282FB1
:1019600028712830F9F4877F846093FF06C0282F00
:1019700028712831F1F4877E84612091810620FF4F
:1019800006C0382F38713830D9F4877F816021FF45
:1019900006C0282F28712831D1F4877E816194FDFB
:1019A000877E0895282F24712430F9F68B7F886074
:1019B000DCCF282F2471243101F78B7E8861DDCFA5
:1019C000382F3171313019F78E7F8860E0CF282FA2
:1019D0002171213121F78E7E8861E1CFCF93C82F0D
:1019E00090E00E94F3328093240290932502282FE6
:1019F000FC019BEF8E2F821B8C1710F0CF91089566
:101A00009193F8CFEF92FF920F931F93CF93DF93B1
:101A10001092230250912402E52FF091250240E01C
:101A2000A62FB0E07BEF9AEFE92EF12C9E2F951BAD
:101A3000981748F040932302DF91CF911F910F91A7
:101A4000FF90EF90089591919B3F81F3292F30E013
:101A5000691768F08D01021B130B98012E313105B7
:101A60006CF09F0121503109E9017883DFCFE70154
:101A7000C21BD30B9E012A0F3B1FF0CF41E0D6CFF4
:101A80000F931F93CF93DF9310922602509124025D
:101A900030912302DB018C01E52FF091250290E0CB
:101AA0008E2F851B841748F03093230290932602D3
:101AB000DF91CF911F910F9108956D91E801899168
:101AC0008E01681751F060816B3F49F42083BD019E
:101AD00061507109EB01888331E03196E1CF91E0EB
:101AE000FCCFCF92DF92EF92FF921F93CF93DF93C1
:101AF0007C016B01C42F122F0E94FF266AEF70E059
:101B00000E94B932D82F80912302882319F16D2FBA
:101B10008C2F0E94020D112369F02D2F4C2FB6013E
:101B2000C701DF91CF911F91FF90EF90DF90CF9091
:101B30000C94400D80912302882379F38091260232
:101B40008111EBCFDF91CF911F91FF90EF90DF904C
:101B5000CF9008951111E1CFF1CFCF93DF93EC0136
:101B600097FF0CC0FB018281882341F00E94D80DB1
:101B7000CE019F770E941C0E0E94040E81E0DF912F
:101B8000CF9108958CE090E00E942A3490E0B0E07C
:101B9000A0E08093340690933506A0933606B09368
:101BA00037060895609134068CE090E00C943E3442
:101BB0000E943624809338060E944924809134067E
:101BC000813089F0882359F0823091F08430B9F067
:101BD0008FE39CE90197F1F700C00000089582EEC1
:101BE0000E94081AF5CF88E193E00E94DD08F0CF4B
:101BF00082EE0E94081A87E50E944B1BE9CF86EE11
:101C00000E944B1B88E1F8CF80913406813071F03F
:101C1000882341F0823031F0843061F080913806C1
:101C20000C94462482EE0E94F51AF8CF8CE20E94B2
:101C30004B1BF4CF88E2FBCF0F931F93CF93DF931F
:101C40008C01CCE0D0E0C8010C2E02C0969587959F
:101C50000A94E2F78F700E949B090E944B1B249705
:101C6000CC3F8FEFD80779F7DF91CF911F910F917C
:101C700008950F931F93CF93DF93EC018B01FB012A
:101C80008281882371F0C33EFCE5DF0719F188F4F7
:101C9000C13EECE5DE07C9F081E0C23EFCE5DF07AE
:101CA00089F0B801CE01DF91CF911F910F910C9473
:101CB000AD0DC43E8CE5D80779F084E0C53EECE577
:101CC000DE0779F78093340602C0109234060E9432
:101CD000D20DE7CF82E0F6CF83E0F4CFAF92BF9290
:101CE000CF92DF92FF920F931F93CF93DF93362F04
:101CF000472FE82FF0E0E357F84F71110DC06491C2
:101D0000762F862FDF91CF911F910F91FF90DF905B
:101D1000CF90BF90AF900895C72FD0E02491F22EBE
:101D2000022F10E056E0659FC0011124EFEFF0E0B4
:101D3000BF010E94B932832F90E0880F991F35E5CB
:101D4000369FD001379FB00D11248A1B9B0B982F13
:101D5000990F980F6F01CC1ADD0AC09ED001C19E69
:101D6000B00DD09EB00D11248B2F949FA001112493
:101D7000452F55276F01C41AD50AC09EA001C19EE8
:101D8000500DD09E500D11245F01A91AB108AC9ED0
:101D90006001AD9ED00CBC9ED00C1124CD2CDD2456
:101DA000EC19FD09E09FE001E19FD00DF09FD00DFF
:101DB0001124ED2F62307105A1F048F46115710511
:101DC00069F06130710589F0EB2F852F07C0643011
:101DD000710571F088F066307105B1F76E2F722FC2
:101DE00091CFE22F2B2F8D2FF9CFE22F252FF6CF7A
:101DF000EB2F822F2D2FF2CF2B2F8F2DE52FEECF14
:101E0000FC01828120813181982F281708F4922FBC
:101E1000391708F4932F9383391B3183291B2083AF
:101E2000891B828308950895CF93DF93762FE9016C
:101E3000682F842F0E946E0E798368838A831B82A9
:101E4000DF91CF9108950F931F93CF93DF93EC0110
:101E500010E000E090910A019017110609F06CF46F
:101E60000E94A9068C8190E00196817099278C834D
:101E7000DF91CF911F910F91089520912A02200F99
:101E8000312F311D220F331F220F331F225C394F98
:101E90004C8160913B0680913A0696959017110609
:101EA00051F04CF0442349F040913C060E94140F3D
:101EB0000F5F1F4FCFCF4423B9F340E0F7CF0F930D
:101EC0001F93CF93DF938C01FC0184819581019650
:101ED0008170992795838483C0E0D5E580910A01BC
:101EE000C81730F0DF91CF911F910F910C94A90684
:101EF00020912A022C0F3327331F220F331F220F6A
:101F0000331F225C394F8C2F8695F801448155810F
:101F1000840F952F911D817040913C0660913B0686
:101F20008D9F802D11240E94140FCF5FD7CF0F9368
:101F30001F93CF9380912A0290910B0124E0829FFE
:101F4000F0011124E25CF94F891730F1C0E0609193
:101F50000A01C61740F10E94A9062091080180914C
:101F60002802820F8093280290910901920F90938A
:101F70000901191654F4082E000C990B40910A011E
:101F80004150550B841795071CF0219520930801AB
:101F9000CF911F910F9108951182108212821382A6
:101FA0008F5F3496D1CF0C2F10E070E0C8010E94F3
:101FB000CD32E0912A02E80F80912802082E000C11
:101FC000990B24E0E29FF001112408171907ACF0E7
:101FD00080910901082E000C990B801791076CF075
:101FE0009F01225C394F40913C0660913B068091F5
:101FF0003A060E94140FCF5FAACFE25CF94F11821C
:10200000108212821382F7CFAF92BF92CF92DF92EB
:10201000EF92FF920F931F93CF93DF93FC01828186
:10202000EE24EA9480FD02C0EE24E394F12C3FE01C
:10203000B32E80910A01F816C8F00E94A90680917B
:10204000290291E0E91255C0811102C080910A0174
:10205000815080932902DF91CF911F910F91FF90C2
:10206000EF90DF90CF90BF90AF900895C0912A027B
:102070000F2D10E0C00FD12FD11DCC0FDD1FCC0FC5
:10208000DD1FC25CD94F198218821A821B8224E09C
:10209000C22ED12CA12C809129028A0D80311CF1F5
:1020A0006B2D0E94AB32892F082E000C990B08175C
:1020B000190791F480913C068C9DA0018D9D500DD7
:1020C000112455954795559547959E0160913B067E
:1020D00080913A060E94140FAE0CF1E0CF1AD1089D
:1020E000D1F6F394A6CF87FFDFCF90910A01890F35
:1020F000DBCF90E0019660910A0170E00E94CD3242
:10210000A8CFFF920F931F93CF93DF93EC01F12C95
:102110000FEF10E060910A01F61670F00E94A90618
:102120009A818C8190FF24C08F5F8C83DF91CF9147
:102130001F910F91FF90089520912A022F0D3327B0
:10214000331F220F331F220F331F225C394F70E0E1
:10215000C8010E94CD32962F8C8140913C0660913F
:102160003B06F99E800D11240E94140FF394D2CFE8
:102170008150DBCF80913906982F9E7F29F48170A2
:1021800082608093390608958A34E8F38170886408
:10219000F8CF88E090E00C943234CF92DF92EF9247
:1021A000FF926B017C010E94BA10B701A60188E082
:1021B00090E0FF90EF90DF90CF900C945034E9E3E3
:1021C000F6E083E0808311828FEF82838383148221
:1021D00060817181828193810C94CD108091390648
:1021E00080FF02C08695089580E00895E9E3F6E057
:1021F00080818E7F808360817181828193810E9442
:10220000CD10109233022FEF80E792E021508040F2
:102210009040E1F700C000000C94A906E9E3F6E065
:1022200080818E7F8083109233022FEF80E792E0CF
:10223000215080409040E1F700C000000C94A906B6
:1022400080913D06833018F48F5F80933D06609146
:10225000390670913A0680913B0690913C060C94A9
:10226000CD1080913D06882319F0815080933D0662
:102270006091390670913A0680913B0690913C0638
:102280000C94CD109091390690FF15C090912A02C0
:1022900020910B0134E0939FF0011124E25CF94F8F
:1022A000921710F00C94A9068183608342831382F5
:1022B0009F5F3496F5CF0895CF93DF9300D000D081
:1022C000CDB7DEB79091390690FF0AC09E012F5F0F
:1022D0003F4F0E94140F4B8169818A810E944211F5
:1022E0000F900F900F900F90DF91CF910895CF93A3
:1022F000DF93EC01EC81F0E0E857F94F4491E9E31A
:10230000F6E0628181810E945C118C818F5F8C83F9
:10231000DF91CF910895CF93DF93EC01E9E3F6E0ED
:10232000438162818C810E945C118C818F5F8C83E0
:10233000DF91CF910895AF92BF92CF92DF92EF924B
:10234000FF920F931F93CF93DF9300D000D0CDB7B0
:10235000DEB7182FF62E042FE22E9091390690FF4B
:1023600029C0E92FE695AE2FB0E0AB52BE4F8C915D
:10237000809332029E7F923061F59E012F5F3F4F26
:10238000812F0E94140F4B8169818A810E94421122
:1023900010933A06F0923B0600933C06EE2051F073
:1023A0006091390670913A0680913B0690913C0607
:1023B0000E94CD100F900F900F900F90DF91CF9152
:1023C0001F910F91FF90EF90DF90CF90BF90AF9053
:1023D0000895823019F400913C06DACF863019F462
:1023E00010913A06D5CF8930D9F3893189F6E95170
:1023F0008E2F8170D82EE695F0E0E857F84FA59023
:10240000B490C12CBB2460910A01C61618F00E943A
:10241000A906BECFEC2DF0E0AE9EC001AF9E900DA0
:10242000BE9E900D112470E00E94B932812FD11010
:1024300012C0860F20912A022E0F3F2F311D220F2E
:10244000331F220F331F225C394F402F6F2D0E9404
:10245000140FC394D8CF861BEDCFE9E3F6E091814A
:10246000282F438162818CE0890F0C949B1181E0BD
:102470000C942D12E9E3F6E09181282F43816281CB
:1024800084EF890F0C949B1181E00C943A12E9E3DC
:10249000F6E062812FEF620F08F46FEF282F43817F
:1024A00081810C949B1181E00C944712E9E3F6E0E2
:1024B00062812FEF621B08F460E0282F4381818145
:1024C0000C949B1181E00C945612E9E3F6E04381F1
:1024D0002CE0420F08F44FEF282F628181810C9489
:1024E0009B1181E00C946512E9E3F6E043812CE056
:1024F000421B08F440E0282F628181810C949B11DB
:1025000081E00C94741220E00C949B110F931F93A4
:10251000CF93DF9300D000D0CDB7DEB78C01809190
:10252000270281110AC09E012F5F3F4F4FEF6FEFCF
:102530000E94140F8A8180932702F80184818130E0
:1025400071F0882339F040E0823011F44091270285
:1025500080E003C08091270240E060E004C0609109
:10256000270240E080E00E944211F801848190E05F
:10257000019663E070E00E94CD3284830F900F904B
:102580000F900F90DF91CF911F910F91089560915F
:102590003906669570E04BE050E08CE091E00E94D7
:1025A0001D34892B19F481E0809333020E94FF26A9
:1025B00090932C0280932B0208959091390690FFFE
:1025C00035C09170811128C09260909339066623BE
:1025D00051F06091390670913A0680913B069091D6
:1025E0003C060E94CD1060913906669570E04BE084
:1025F00050E08CE091E00E941D34892BA1F01092F4
:10260000330281E080932E0240913C0660913B06AC
:1026100080913A060C948312853210F09864D5CFDD
:10262000880F982BD2CF0E94C712EBCF0895682F46
:1026300090913906969581E0890F853208F081E006
:102640000C94DD1281E00C941713682F90913906D9
:1026500096958FEF890F09F484E20C94DD1281E0E6
:102660000C94251361E00C94DD12E9E3F6E080811F
:102670008160808386950C9432138091390680FDA9
:102680000C94F6100C94351360E00C94DD128091DC
:10269000310281112EC00E943525811104C00E9493
:1026A000CF250E94DF100E94C910609339067093F5
:1026B0003A0680933B0690933C066E7F61F40E943D
:1026C000DF100E94C9106093390670933A06809318
:1026D0003B0690933C060E94BA1010923302809100
:1026E000390680FF03C086950E94441381E08093E1
:1026F00031020895E9E3F6E0808181608083869568
:102700000C9444131092330208950F931F93CF93A8
:10271000DF9380913302882309F48DC080913202C7
:10272000E0913906E695E81BE0932D028230C9F569
:10273000F0E0EC57F94FE491CE2FD0E007E711E13C
:1027400080912E02882389F010922E020E94FF268B
:102750009E0120953095820F931F90932C028093B9
:102760002B021092300210922F0280912B02909136
:102770002C020E940B278C179D0708F45CC0E09187
:102780002B02F0912C02CE0FDF1FD0932C02C093AE
:102790002B028BE292E0F801DF91CF911F910F9114
:1027A0000994863049F4F0E0EF57F94FE491CE2FC9
:1027B000D0E00BE811E1C4CF893051F4E695F0E0A8
:1027C000E258F94FE491CE2FD0E001E810E1B8CF04
:1027D0008F3051F4E695F0E0E558F94FE491CE2FB3
:1027E000D0E004E010E1ACCF853149F4F0E0E858E6
:1027F000F94FE491CE2FD0E007E91FE0A1CFC8EE5A
:10280000D3E00FE51FE0883109F49ACF833239F421
:10281000E6E7F6E0C591D49106E812E191CFC4EF66
:10282000D1E003E21FE0843209F48ACFC0EDD7E0A3
:1028300003E11FE085CFDF91CF911F910F910895A4
:10284000FA01811101C0FB010994CF93DF93C82FD6
:10285000D62F0E94EE108C1740F00E94EE108D17BC
:1028600020F4DF91CF910C9422138C2FDF91CF9124
:102870000C9432130F931F93CF938C01FB01C281F1
:10288000CC2309F465C00E9436248272F801E25C10
:10289000FC45E431F10538F4E558FB4C0C94E13289
:1028A0000E943D13C0E08C2FCF911F910F9108958E
:1028B0004FE253E162E273E10E942014F3CF42E25F
:1028C00053E16FE273E1F8CF44E452E167E372E170
:1028D000F3CF47E352E164E472E1EECF42E652E126
:1028E00063E572E1E9CF43E552E162E672E1E4CFEC
:1028F00040E852E161E772E1DFCF41E752E160E891
:1029000072E1DACF41E351E160E271E1D5CF40E21B
:1029100051E161E371E1D0CF81E00E943213C2CF77
:1029200065E082E00E942514BDCF68E086E0FACF22
:102930006EE089E0F7CF64E18FE0F4CF67E185E1F5
:10294000F1CF88E1EACF62E289E1ECCF83E2E5CF23
:10295000C1E0A9CF0F931F93CF93DF93C62FD42F3E
:10296000022FFC0182818823C9F0609336020E9405
:10297000FF26909335028093340280E28C0F8830DA
:1029800008F050C0C77081E001C0880FCA95EAF70F
:10299000DF91CF911F910F910C945E1B1091360225
:1029A000161335C080913402909135020E940B2796
:1029B000883C910560F5C0E2CD0F1D17B9F080E2AB
:1029C000810F883040F4177081E001C0880F1A959C
:1029D000EAF70E94651BC83048F481E09D2F97708C
:1029E00001C0880F9A95EAF70E945E1B802F0E9413
:1029F0004B1BC830B8F4D77081E001C0880FDA955E
:102A0000EAF7DF91CF911F910F910C94651B80E243
:102A10008C0F883038F4C77081E001C0880FCA95E8
:102A2000EAF7EFCFDF91CF911F910F9108959C01AD
:102A3000CB01233F4CE5340731F190F4283DFCE510
:102A40003F07E9F0293D4CE5340769F1273D3C4556
:102A500079F426E241EE61EE0E94AA1480E0089526
:102A6000253FFCE53F07B9F090F0263F3C45B9F023
:102A7000FC0182818823D1F010923602089527E26A
:102A800045EE65EEE9CF26E241EE60EEE5CF27E2C6
:102A900045EE64EEE1CF26E241EE62EEDDCF27E2C5
:102AA00045EE66EED9CF28E241E0EBCF81E0089514
:102AB000CF93DF93EC01FB018281882309F419C1D4
:102AC000C230FCE5DF07C0F1C6319CE5D90730F024
:102AD0009E012A5F3C452930310570F50E9448254A
:102AE0009093810680938006C031ECE5DE0709F4FF
:102AF000CFC008F05BC0C8308CE5D80709F4B6C079
:102B000088F5C430ECE5DE0709F4A8C0C0F4C23093
:102B10008CE5D80709F49CC0809180068260C330A0
:102B2000DC4509F498C080918006909181060E944E
:102B300056250E94541E80E0DF91CF910895809128
:102B400080068061C630ECE5DE0709F484C0809120
:102B500080068860C730DC4508F47DC0809180061F
:102B6000806279C0CC308CE5D80709F489C070F454
:102B7000809180068C60CA30ECE5DE0709F46BC0FA
:102B800008F478C0809180068E7F65C0CE308CE5D9
:102B9000D80709F479C0809180068B7FCF30DC455F
:102BA00008F459C0809180068F7E55C0CB3FECE57C
:102BB000DE0709F457C030F5C3318CE5D80709F4B6
:102BC0006FC078F4C131ECE5DE0709F465C0C231AD
:102BD000DC4509F0A8CF0E94541E809180068F77B3
:102BE0003AC0C5318CE5D80709F462C008F476C054
:102BF000809181068160CA3FDC4509F094CF8093C3
:102C0000810691CFCF3FFCE5DF0709F44DC088F482
:102C1000809181068D7FCD3F9CE5D90781F380911E
:102C200081068E7FCE3FDC4550F380918106836024
:102C3000E6CFC130FDE5DF0709F459C008F444C010
:102C400080E0C230DD4509F06ECF0E94D1256BCF08
:102C50008091800681608093800665CF8091800698
:102C60008460F9CF809181068260C9CF809180060F
:102C70008064F1CF0E94541E809180068068EBCF63
:102C8000809180068D7FE7CF80918006877FE3CF9C
:102C9000809180068F7DDFCF809180068F7BDBCF98
:102CA00080918006837FD7CF809181068C7FA7CFCC
:102CB0008091800682FB992790F921E0922790FB72
:102CC00082F990FB83F9C7CF80918106982F909568
:102CD00091708E7F892B90FB81F991CF0E94541EB9
:102CE00090918006892F97FB87F98058B4CF81E0B7
:102CF000ACCF81E021CF08950895089508950F93F2
:102D00001F93CF93DF93EC018B010E947B160E94EF
:102D1000541E0E94942219830883DF91CF911F9142
:102D20000F9108958F929F92AF92BF92CF92DF92B0
:102D3000EF92FF921F93CF93DF93EC017B01142F4F
:102D40008090CF059090D005A090D105B090D2058D
:102D50000E94541E0E94942286E0180260011124F1
:102D6000CE15DF05C1F40E94541E8092CF059092CB
:102D7000D005A092D105B092D205812FDF91CF91DD
:102D80001F91FF90EF90DF90CF90BF90AF909F90FA
:102D90008F900C947C16CE010E94061ECC0DDD1D7A
:102DA000DFCF0F931F93CF93DF93EB01F801A8813F
:102DB000B9813281311103C08A179B07A9F086E0DF
:102DC0002802B0011124CD01861B970B4817590723
:102DD00081F086E001900D928A95E1F788819981D2
:102DE000860F971F99838883DF91CF911F910F9151
:102DF0000895BF01822FDF91CF911F910F910C9405
:102E00007D16CF92DF92EF92FF921F93CF93DF93C5
:102E10006C01EB01142F7901842F0E947E168AEF3A
:102E20001802A0011124CC15DD0531F0FE01E40FDC
:102E3000F51F828181110BC0F701D183C083DF911F
:102E4000CF911F91FF90EF90DF90CF900895EF0109
:102E5000EACF0F931F93CF938B0120913905211156
:102E60003DC0FB01C281C11122C08430FDE59F0736
:102E700019F128F483309D4589F0C1E018C08630EF
:102E8000EDE59E0709F187309D45B9F7609117017F
:102E9000709118014FEF81E395E01DC067E372E088
:102EA00087E395E00E947F1681E0809339058C2F9F
:102EB000CF911F910F91089561E375E087E395E04D
:102EC0000E947F1682E0F1CF6091190170911A0182
:102ED00041E087E392E00E949216E9CF85309D455C
:102EE00011F5FB01C281CC2311F3213031F02230E6
:102EF00081F010923905C0E0DACF6091370570910A
:102F0000380529E131E041E087E392E00E940117B2
:102F1000F0CF609137057091380527E131E04FEF30
:102F200081E395E0F3CF213069F0223009F0A5CF9D
:102F30004091190150911A012FEF67E375E081E389
:102F400095E009C0409117015091180121E067E315
:102F500075E087E392E00E94D1168FCF1092B900FE
:102F60008CE08093B8000895EF92FF920F931F9327
:102F7000CF93DF93182FEB011092BC0084EA80936B
:102F8000BC000E94FF267C018091BC0087FF27C007
:102F90008091B900887F883029F08091B900887FBE
:102FA0008031D9F51093BB0084E88093BC000E9467
:102FB000FF268C018091BC0087FF24C02091B900BE
:102FC000287F90E080E02831B1F081E090E020346B
:102FD00011F490E080E09195819591090CC0CF3F6C
:102FE000DC0791F20E94FF268E199F098C179D071E
:102FF00058F28EEF9FEFDF91CF911F910F91FF90CD
:10300000EF900895CF3FDC07A9F20E94FF26801BB6
:10301000910B8C179D0770F2ECCF8FEF9FEFEBCFEA
:103020000F931F93CF93DF93EB018093BB0084E852
:103030008093BC000E94FF268C018091BC0087FF1A
:1030400011C02091B900287F81E090E0283211F46E
:1030500090E080E0919581959109DF91CF911F914A
:103060000F910895CF3FDC0741F30E94FF26801B9C
:10307000910B8C179D0708F38EEF9FEFEECF0F9308
:103080001F93CF93DF93EC0184E88093BC000E94F0
:10309000FF268C018091BC0087FF08C08091BB0097
:1030A00090E0DF91CF911F910F910895CF3FDC0702
:1030B00089F30E94FF26801B910B8C179D0750F30C
:1030C0008EEF9FEFEECF84E98093BC00089590933C
:1030D0003F0580933E050895E0913E05F0913F0540
:1030E000309721F00190F081E02D099480E008955F
:1030F000E0913E05F0913F05309799F020912C0129
:10310000222359F02091800627FF07C0DC012C9173
:1031100011962C93119725E02C930280F381E02DDA
:1031200009940895E0913E05F0913F05309739F0FC
:1031300022E0DC012C930480F581E02D09940895B0
:1031400020913C0530913D052817390771F0909387
:103150003D0580933C05E0913E05F0913F05309799
:1031600021F00680F781E02D0994089520913A0519
:1031700030913B052817390771F090933B058093F8
:103180003A05E0913E05F0913F05309721F000842B
:10319000F185E02D0994089585B7806885BF85B7CE
:1031A000806885BF0895089508950C94D3180895F4
:1031B0000C94D7180E94CC180E94D4180C94D518DF
:1031C00081E008950E94F6260E94E4050E948B2764
:1031D0000E9447130C94D818AF92BF92CF92DF92FF
:1031E000EF92FF920F931F93CF93DF93CDB7DEB78C
:1031F0002A970FB6F894DEBF0FBECDBF0E9411060E
:103200000E94E018882309F45FC081E4A82E85E0BD
:10321000B82E10E000E0C02E802F0E946D06E82E30
:10322000F501D1905F01D81609F448C08091FC05E2
:1032300081FD0E94730680E0FF24F394DE249D2D1F
:103240009F21B9F18E83CF82EF2081E009F480E0E5
:1032500088870E94FF268160782F9A8789874E8110
:103260005F8168858A850E94BE19F801EF5BFA4F7D
:103270008081F826F0820E9418290E946C18909193
:103280004005891791F10E946C18809340052A9699
:103290000FB6F894DEBF0FBECDBFDF91CF911F9167
:1032A0000F91FF90EF90DF90CF90BF90AF900C9474
:1032B000B0098F5FFF0C863009F0C1CF0F5F1F4F41
:1032C0000E30110509F0A7CF8FEF89838A831B8207
:1032D0000E94FF268160782F9D838C8349815A81CB
:1032E0006B818D810E94BE19C6CF2A960FB6F894C5
:1032F000DEBF0FBECDBFDF91CF911F910F91FF9029
:10330000EF90DF90CF90BF90AF900895CF93DF9371
:10331000DC018C91682F70E021E030E001C0220FC9
:103320008A95EAF711964C91119750E0EA01C15B3A
:10333000DA4F988112968C9112978823C9F0809168
:103340005F058823C1F086E0849FF001859FF00D22
:103350001124E60FF71FEE0FFF1FE35DFE4F4081C4
:1033600051814D935C93292B2883DF91CF91089550
:10337000892F8223E6CF20952923F6CFCF93DF93A1
:10338000CDB7DEB72B970FB6F894DEBF0FBECDBF1B
:103390004F83588769877A878B878A859B85892B96
:1033A00021F0CA0189238F3FE1F41E821D8285E04E
:1033B000FE013796DE01119601900D928A95E1F794
:1033C00049815A816B817C818D819E810E942C2153
:1033D0002B960FB6F894DEBF0FBECDBFDF91CF9115
:1033E0000895CE0107960E948619DFCFFC018081E7
:1033F00091810E94E32392959F70963041F48091D1
:103400005F0591E0892780935F0590935E0508959D
:10341000CF93C82F882309F4E6C08238C1F40E94F4
:103420006C1881FDE0C089E30E9411240E9485246C
:103430002FEF81EE94E0215080409040E1F700C0F2
:10344000000089E30E941824CF910C9485248338CE
:10345000A1F40E946C1880FDC6C083E50E9411246F
:103460000E9485242FEF81EE94E02150804090400F
:10347000E1F700C0000083E5E5CF8438A1F40E94A5
:103480006C1882FDB0C087E40E9411240E9485243C
:103490002FEF81EE94E0215080409040E1F700C092
:1034A000000087E4CFCF8CEF8C0F813A48F48C2F4B
:1034B0000E94132B811197C08C2F0E941124C4CF1E
:1034C00080E28C0F883048F4C77081E001C0880F1B
:1034D000CA95EAF70E943924B7CF8BE58C0F833069
:1034E00068F481E890E0C53A31F083E890E0C63AAC
:1034F00011F482E890E0CF910C94A01888E58C0F2D
:10350000873108F068C082EE90E0C83A09F460C0E4
:1035100089EE90E0C93A09F45BC08AEE90E0CA3ABD
:1035200009F456C085EB90E0CB3A09F451C086EB24
:1035300090E0CC3A09F44CC083EB90E0CB3B09F42B
:1035400047C084EB90E0CC3B09F442C087EB90E0AD
:10355000CD3AF1F18CEC90E0C03BD1F18DEC90E0F4
:10356000CE3AB1F183E891E0CF3A91F18AE891E067
:10357000C13B71F182E991E0C23B51F184E991E0F4
:10358000C33B31F181E292E0C43B11F183E292E06E
:10359000C53BF1F084E292E0C63BD1F085E292E0D7
:1035A000C73BB1F086E292E0C83B91F087E292E03F
:1035B000C93B71F08FE690E0CD3B51F080E790E0A1
:1035C000CE3B31F090E080E0CA3B11F48AE292E019
:1035D000CF910C94B618C03F30F08C2F0E94262853
:1035E000CF910C940D29CF910895882309F452C0EE
:1035F000823871F40E946C1881FF4CC089E30E94EC
:1036000011240E94852489E30E9418240C948524A7
:10361000833859F40E946C1880FF3CC083E50E94F7
:1036200011240E94852483E5EFCF843859F40E9449
:103630006C1882FF2FC087E40E9411240E94852409
:1036400087E4E2CF9CEF980F913AF0F290E2980F66
:10365000983050F4877091E001C0990F8A95EAF78D
:10366000892F0E943F24D2CF9BE5980F933020F4FE
:1036700090E080E00C94A01898E5980F973120F422
:1036800090E080E00C94B618803F20F00E948E28D5
:103690000C940D290895CF93C82F0E94081AC9339E
:1036A00049F42FEF87EE93E0215080409040E1F7FE
:1036B00000C000008C2FCF910C94F51A882321F0C4
:1036C0000E9439240C9485240895882321F00E94B7
:1036D0003F240C9485240895BF92CF92DF92EF92FD
:1036E000FF920F931F93CF93DF937C01D62FC72FA9
:1036F000FC01058102950F70128111110E9459245D
:103700000E942F24D82E882371F01123B1F080E27B
:103710008D0F883090F082E00E94D0240E942F24E8
:1037200091E0D82ED926CC2EC2949FE0C922EC2D50
:10373000F0E0E157FB4C0C94E132D12CF4CF0C2F8C
:103740000F70C07F11F00295007F1123A9F00023B4
:1037500059F080E28D0F883010F0D11109C0802F10
:103760000E9439240E9485248D2F0E94081A14C0BB
:10377000802F0E944C24F6CF8D2F0E94F51A002333
:1037800059F080E28D0F883010F0D1112CC0802FBD
:103790000E943F240E9485242C2D2850330B243076
:1037A000310520F40E946C180E94B009DD2009F454
:1037B00023C20E942B2480FD1FC2F70112820E94A7
:1037C00025240E94AE22C7010E94061E0E942524C5
:1037D000DF91CF911F910F91FF90EF90DF90CF90ED
:1037E000BF900C94CF22802F0E945224D3CFFC2F65
:1037F000FF70BF2EC07FC03219F0B29480EFB822A4
:10380000DD2339F0D13019F1112359F1002321F1D1
:10381000ABCF112381F0011106C00E946C248B29CB
:103820000E945E1BB9CF0130C1F70E946C248B2926
:103830000E947224B1CF011106C00E947B248B2DFF
:103840000E94651BA9CF013009F4A6CFF6CF112342
:1038500029F0023008F0A0CF8B2DE2CF01119CCFD0
:10386000EECF002361F3D93349F42FEF37EE83E035
:10387000215030408040E1F700C000008D2F0E94B1
:10388000F51A8ACF8C2F86958695837069F08130E2
:1038900009F082CF8D2F9C2F9370111102C090E000
:1038A00080E00E94B61878CF8D2F9C2F9370111155
:1038B00002C090E080E00E94A0186ECF112309F1B1
:1038C000D53F99F0D63FB9F0D43F49F480917A06BC
:1038D00090917B06816090937B0680937A068D2F72
:1038E0000E9426280E940D2957CF80917A06909138
:1038F0007B068260F0CF80917A0690917B0684608F
:10390000EACFD53F89F0D63FA9F0D43F49F4809162
:103910007A0690917B068E7F90937B0680937A0641
:103920008D2F0E948E28DECF80917A0690917B06A3
:103930008D7FF2CF80917A0690917B068B7FECCFC2
:103940008C2F837009F041C0111126CF4D2F429565
:1039500046954770440F440F0D2F0F7010E030E074
:1039600020E0042E04C0000F111F221F331F0A94F1
:10397000D2F760E070E0CB01D4FF0FC06FE070E0E1
:1039800080E090E004C0660F771F881F991F4A955A
:10399000D2F76095709580959095C695C695C37041
:1039A000602B712B822B932BC23049F058F4C1301D
:1039B00019F00E946222F0CE0E945022EDCE0E94A9
:1039C0007422EACE0E944E22E7CE8695112311F092
:1039D0008C2F8170882309F4DFCE4D2F42954695B8
:1039E0004770440F440F0D2F0F7010E030E020E0BF
:1039F000042E04C0000F111F221F331F0A94D2F798
:103A000060E070E0CB01D4FF0FC06FE070E080E0B9
:103A100090E004C0660F771F881F991F4A95D2F760
:103A20006095709580959095C695C695C370602BEE
:103A3000712B822B932BC23049F058F4C13019F00E
:103A40000E942523A9CE0E941323A6CE0E943723CD
:103A5000A3CE0E948822A0CECF70112329F08C2FF4
:103A60000E94AE228D2FDCCE8D2F0E94651B8C2FE5
:103A70000E94CF2291CED23F81F160F4D03FC9F0B5
:103A8000D13F21F1112309F441C001116DCE8C2FDA
:103A90008F7120C0D33F31F1D43FA1F7112361F1E1
:103AA000CF718C2F0E94AE2263E08C2F0E94BB242A
:103AB00073CE112339F001116FCE8C2F8F710E94BC
:103AC000F2226ACE023008F067CEF7CF8C2F8F71CA
:103AD000112371F20E94AE225FCE8C2F8F711123C1
:103AE000C9F3C6CF112329F08C2F8F710E94992220
:103AF00053CE0E94942250CE81E00E94D024023006
:103B000008F44ACE82E00E94D02446CE002359F029
:103B1000D93309F0B3CE9FEFE7EEF3E09150E040E8
:103B2000F040E1F7A9CE8C2F8F71A2CF4C2F4F70B0
:103B30006D2FC7010E9416080E94C6212DCED23FCC
:103B400071F1C8F4D03F01F1D13FB9F180915E0528
:103B5000002309F446C0882341F080915F0591E07D
:103B6000892780935F0510925E058D2F112389F1BF
:103B70000E94081A16C0D43FD9F078F0D53F31F72B
:103B800011110FC081E006C0112359F080915F052B
:103B900091E0892780935F0504C081E01827109386
:103BA0005F054C2F4F706D2FC7010E94330AF4CD73
:103BB0001111F7CF10925F05F4CF112339F08091E6
:103BC0005E05882319F310925E05EBCF0023F1F216
:103BD000E8CF0E94F51A86E0F70111928A95E9F77D
:103BE000E0CF8823F1F21111DCCF80915F0591E0E5
:103BF000892780935F05E7CFDF91CF911F910F91C8
:103C0000FF90EF90DF90CF90BF9008950F931F9398
:103C1000CF93DF93EC018B819C81892B29F08881E4
:103C2000998189238F3F29F4DF91CF911F910F91C3
:103C30000895CE010E94C8098823B1F36881798173
:103C40008A810E94ED238C010E9449230E944D220B
:103C5000B801CE01DF91CF911F910F910C946C1B95
:103C6000882321F00E944C240C94852408958823F5
:103C700021F00E9452240C94852408950E94592416
:103C80000E9469240E9485240E94AF290E940D2968
:103C900090E080E00E94A01890E080E00C94B618BC
:103CA0000E941F240C943E1E0E9449240C94501E16
:103CB000E92FE295EF70E250EE3070F4F0E0E1565B
:103CC000FB4C0C94E132803F19F020F4883E20F444
:103CD00081E00895843FE1F380E00895883EC0F3D9
:103CE000813FD1F7F5CF93FB882780F908950E9493
:103CF000E3230C94581ECF93DF9300D000D00F9293
:103D0000CDB7DEB70F900F900F900F900F90DF910F
:103D1000CF910895CF93DF9300D000D000D0CDB7DE
:103D2000DEB726960FB6F894DEBF0FBECDBFDF918B
:103D3000CF9108951F93CF93DF93C091600516E054
:103D4000809161058C1304C0DF91CF911F9108957C
:103D5000D0E01C9FF0011D9FF00D1124EE59FA4F89
:103D60004081518162817381848195810E948A1E84
:103D70002196C770E5CF40919205509193056091CF
:103D800094057091950580919605909197050C94F6
:103D90008A1E209160059091610556E0291302C0AA
:103DA00080E0089530E0529FF001539FF00D112400
:103DB000EE59FA4F7181761306C07081781303C0F3
:103DC0007281741304C02F5F3F4F2770E7CF81E0EB
:103DD00008951F93CF93DF9380919705807FC1F45F
:103DE000809194058823A1F080916005C0916105C0
:103DF00060919205709193054091950550919605BB
:103E0000D62FD723DA01A095B09516E0C81304C0C9
:103E1000DF91CF911F91089590E04115510511F068
:103E2000DF3F31F401968770F1CF2A0F3B1F17C097
:103E3000189FF001199FF00D1124EE59FA4F2181BE
:103E40002713F0CF20812613EDCF22812111EACF55
:103E5000238134812417350740F3241B350B283C7C
:103E6000310500F7209197052F7020612093970569
:103E700026E0289FF001299FF00D1124E959FA4FFF
:103E800080818F708061808382E995E00E94061EA8
:103E9000DF91CF911F910C949A1E9F92AF92BF9287
:103EA000CF92DF92EF92FF920F931F93CF93DF9306
:103EB000CDB7DEB761970FB6F894DEBF0FBECDBFAA
:103EC0008C0185E0F801DE011D9601900D928A9526
:103ED000E1F7D801DC901196EC9011971296CC90F6
:103EE00012978091950590919605009709F492C1DB
:103EF0002091920530919305422F43234F3F09F4BF
:103F000089C11396AD90BC9090909405992009F4C6
:103F100022C1A816B906E0F1F501E81BF90BCF01A3
:103F2000FF24F394883C910508F0F12C80919705CB
:103F3000982F907FFF2009F4C7C091118EC0FC2CF0
:103F40003E112BC02D1129C0C11027C08F70806178
:103F5000809397050E94BB1E82E995E00E94061E91
:103F600080919705D80115968C938F2D61960FB689
:103F7000F894DEBF0FBECDBFDF91CF911F910F919F
:103F8000FF90EF90DF90CF90BF90AF909F900895FB
:103F9000809590958A0D9B1DC3CFA114B10429F083
:103FA0008E2D8D218F3F09F054C180E080FF16C017
:103FB0004C2D6E2D8D2D0E94C91E882379F082E92B
:103FC00095E00E94061E86E0E2E9F5E0DF011D9221
:103FD0008A95E9F70E94BB1EF12CC7CFAB2829F0C8
:103FE0008E2D8D218F3F09F031C180E0B82FB17047
:103FF000AB2E80FF29C04C2D6E2D8D2D0E94C91E29
:10400000B82E811121C0DD86EE868D859E850E94A9
:10401000E323292F22952F70223050F0243078F49A
:104020009F7051F0F8019581907F31F4FB2C9DCF6A
:104030009F7011F08823D1F3805E8830B8F3C801F7
:104040000E94061EBA2CF2CFCC2009F48ECF8091AC
:104050009705816080939705BFCF3E1106C02D1153
:1040600004C0D801CC2009F49CC0DD86EE868D8585
:104070009E850E94771E882319F1CC2009F180913A
:104080009705803270F02091920530919305388722
:104090002F831986BB86AA868C87CE0107960E943D
:1040A000061E86E0F801A2E9B5E001900D928A951E
:1040B000E1F70E94E91E0E94BB1EFF24F39455CF36
:1040C000C8010E94061EF9CF911115C07A2DB98A38
:1040D000A88A4D2D5E2D6C2D89890E947B1E82E958
:1040E00095E00E94061E86E0E2E9F5E0DF011D9200
:1040F0008A95E9F763C03E1112C02D1110C0C1109E
:104100000EC0F8018583C8010E94061EE2E9F5E0B1
:1041100086E0DF011D928A95E9F7F92C26CFDD862E
:10412000EE868D859E850E94771E882349F2CC20DD
:1041300039F280919705803208F4B3CF209192052F
:10414000309193053A8329831B82BD82AC828E8392
:10415000CE010196A4CFA816B90698F1F501E81B87
:10416000F90BCF01F12C883C910508F049C0FC2CDB
:10417000CC2009F4A5CF3E1132C02D1130C0809162
:10418000970580FD23C0982F907F01F1D8011596E7
:104190008C931597903F39F0982F907F905F8F7098
:1041A000892B15968C93C8010E94061E86E0F801A3
:1041B000A2E9B5E001900D928A95E1F70E94BB1E3D
:1041C000D4CE809590958A0D9B1DCCCF86E0F801CA
:1041D000A2E9B5E001900D928A95E1F7C6CEDD86A1
:1041E000EE868D859E850E94771E81115ACF809123
:1041F0009705816080939705C8010E94061EB5CE81
:104200007A2DB98AA88A4D2D5E2D6C2D89890E9440
:104210007B1E69CFCC2009F453CFDD86EE868D85D9
:104220009E850E94771EF82E882309F449CF86E0E8
:10423000F801A2E9B5E001900D928A95E1F782E9D3
:1042400095E00E94F6190E94E91EB8CF81E08C2506
:10425000CDCE81E08C25AACE1F93CF93DF93CDB72F
:10426000DEB72C970FB6F894DEBF0FBECDBF4F83DD
:10427000588769877A878B879C87CE0107960E942B
:104280004D1F882369F08A859B85892B39F04F81E2
:104290005885842F85238F3F09F071C016E05FC0D9
:1042A00086E0FE013796DE01119601900D928A9507
:1042B000E1F78A859B85892B89F388859F818923EE
:1042C0008F3F61F32091610530E0C901019687704D
:1042D0009927409160054817190671F40E94541EF1
:1042E000109261051092600586E0E2E9F5E0DF01D9
:1042F0001D928A95E9F7D2CF96E0929FD001939FC5
:10430000B00D1124AE59BA4FFE01319601900D92B5
:104310009A95E1F7809361050E949A1EBFCF819F15
:10432000C00111248E599A4F0E944D1F8823E9F035
:10433000E09160051E9FF0011124EE59FA4F408173
:10434000518162817381848195810E948A1E80914E
:10435000600590E0019687709927809360058091B1
:104360006005909161058913DACF2C960FB6F89409
:10437000DEBF0FBECDBFDF91CF911F91089569853C
:104380007A858B859C850E948A1E88CFEF92FF924A
:104390000F931F93CF93DF938C01892B81F0F12C26
:1043A000EE24E394E8012196F8018491843770F4B7
:1043B000843008F05FC08130B1F08230A1F1DF912C
:1043C000CF911F910F91FF90EF900895853709F4D9
:1043D0004CC008F43DC09CE7980F903780F78F776A
:1043E0000E94F51A49C00E5F1F4FFE01849190E2B2
:1043F000980F983060F48770FE2D01C0FF0F8A95EA
:10440000EAF78F2F0E945C240E94852402C00E943C
:10441000081A8F2D815030F2EFE9FFE03197F1F764
:1044200000C00000F7CF0E5F1F4FFE01849190E2A5
:10443000980F983050F48770FE2D01C0FF0F8A95B9
:10444000EAF78F2F0E946224DFCF0E94F51AE1CF96
:104450000E5F1F4FFE01C491C150D8F28FE99FE05B
:104460000197F1F700C00000F7CF0E5F1F4FFE016C
:10447000F490CFCF0E94081A8E01CBCF08950C94F0
:104480003E220E943F226093D3057093D40580930F
:10449000D5059093D6050C943E1E08950C944122A8
:1044A0000F931F930091D3051091D4052091D5054A
:1044B0003091D605602B712B822B932B1F910F917E
:1044C0000C9441220F931F930091D3051091D405B2
:1044D0002091D5053091D605602371238223932343
:1044E0001F910F910C9441220F931F930091D305BC
:1044F0001091D4052091D5053091D60560277127FC
:10450000822793271F910F910C9441220C94480805
:104510000E9486226093CF057093D0058093D105C9
:104520009093D2050C943E1E60E070E0CB010C9499
:1045300088220F931F9341E050E060E070E08A0111
:104540009B0104C0000F111F221F331F8A95D2F751
:10455000C901B8011F910F910C9488220F931F93EA
:1045600041E050E060E070E004C0440F551F661F5A
:10457000771F8A95D2F78091CF059091D005A091B1
:10458000D105B091D2058A019B01082B192B2A2B4A
:104590003B2BC901B8011F910F910C9488220F93F6
:1045A0001F9341E050E060E070E004C0440F551FED
:1045B000661F771F8A95D2F7CB01BA016095709577
:1045C000809590950091CF051091D0052091D1054F
:1045D0003091D20560237123822393231F910F9181
:1045E0000C9488220F931F9341E050E060E070E04C
:1045F00004C0440F551F661F771F8A95D2F780911C
:10460000CF059091D005A091D105B091D2058A0136
:104610009B01082719272A273B27C901B8011F91A9
:104620000F910C9488220F931F930091CF05109146
:10463000D0052091D1053091D205602B712B822BB2
:10464000932B1F910F910C9488220F931F9300912D
:10465000CF051091D0052091D1053091D20560236E
:104660007123822393231F910F910C9488220F931F
:104670001F930091CF051091D0052091D105309165
:10468000D20560277127822793271F910F910C94E1
:1046900088220895E92FEE0FE90FEE0F8E0F982F65
:1046A000977041E001C0440F9A95EAF78695869588
:1046B000869595E0899FF0011124E856FA4F30E085
:1046C00020E070E05191DF011197CB01022E02C072
:1046D000969587950A94E2F78170819585278423C2
:1046E00085278C932F5F3F4F2530310559F708956B
:1046F000E92FEE0FE90FEE0F8E0F982F977086952A
:104700008695869525E0829FF0011124E856FA4FA0
:1047100050E040E080E0219130E0092E02C0369563
:1047200027950A94E2F721703327042E01C0220F47
:104730000A94EAF7822B4F5F5F4F4530510559F7D6
:104740000895BF92CF92DF92EF92FF920F931F9343
:10475000CF93DF938C01C090CF05D090D005E0902F
:10476000D105F090D2058091D3059091D405A09108
:10477000D505B091D605C82AD92AEA2AFB2ACFE165
:10478000D0E0BC2ED701C6010C2E04C0B695A7956B
:10479000979587950A94D2F780FD0EC0219788F7E8
:1047A000B12C8B2DDF91CF911F910F91FF90EF9046
:1047B000DF90CF90BF900895B8018C2F0E94500ACF
:1047C000019761F3EECFCF93DF93EC010E94A12319
:1047D000BE01DF91CF910C94500A1F93CF93DF93CA
:1047E000EB0190915D05992331F0CB01DF91CF91E1
:1047F0001F910C94E323882379F0CB010E94A1231D
:10480000182F682FCE010E944A23BE01812FDF910D
:10481000CF911F910C94500ACB010E947823182F3E
:10482000F4CF682F80911B0190911C010C943A26C3
:10483000682F80911B0190911C010C94452680915A
:104840001B0190911C010C9450268091D7058595F1
:104850008595859508958091D705877008959091E5
:10486000D705977081E009F480E008958091FB05F9
:1048700008959091FB05892B8093FB050895809501
:104880009091FB0598239093FB0508958093FB0579
:1048900008951092FB0508959091FA05892B809355
:1048A000FA05089580959091FA0598239093FA055A
:1048B00008951092FA0508959091F905892B809337
:1048C000F905089580959091F90598239093F9053D
:1048D00008951092F90508958091D80508950895D6
:1048E0000C946F249091D805981721F08093D805E7
:1048F0000C94702408958091D805882329F0109293
:10490000D80580E00C9470240895E0911B01F0918B
:104910001C018091FB058083E0911B01F0911C013B
:1049200080819091FA05892B8083E0911B01F091A1
:104930001C0180819091F905892B80839091D80585
:10494000992381F0E0911B01F0911C018081892B5A
:10495000808380911B0190911C010E94D6258111BA
:104960000E947B2480911B0190911C010C9478186B
:1049700008950C94B82498E0899F90011124622B2B
:104980006093D7050E94AE228091D70585958595C5
:1049900085950C94B9241092D70580E00C94B92425
:1049A0009091D705809589238093D705282F27706C
:1049B00071F4282F082E000C330B9217130639F0D0
:1049C0008595859585950E94CF220C94CB240895DA
:1049D000CF92DF92EF92FF926C01EE24FF2420E051
:1049E000C114D104E104F10419F0C701B60120E1BA
:1049F000C72ED82EE92EFF24C114D104E104F104FE
:104A000019F0285FC701B6016B017C0154E0F694F0
:104A1000E794D794C7945A95D1F7C114D104E1040F
:104A2000F10419F02C5FC701B6016B017C0142E073
:104A3000F694E794D794C7944A95D1F7C114D1045A
:104A4000E104F10419F02E5FC701B6019695879530
:104A500077956795672B682B692B09F02F5F822F5D
:104A6000FF90EF90DF90CF90089590E080E00E945B
:104A7000383421E08C3E9E4F09F020E0822F0895CB
:104A800082E090E00C942A3483E090E00C942A3485
:104A9000CF9384E090E00E942A34C82F81E290E016
:104AA0000E942A34982F8C2FCF910895CF93C92F2D
:104AB000682F84E090E00E943E346C2F81E290E009
:104AC000CF910C943E348FE090E00C943234AB01E3
:104AD000BC018FE090E00C945034AB01BC0183E149
:104AE00090E00C94503460E070E0CB010C946D25A4
:104AF0006CEE7EEF90E080E00E945C3460E082E04B
:104B000090E00E943E3460E083E090E00E943E34FA
:104B10001092D3051092D4051092D5051092D605A7
:104B200060E084E090E00E943E3460E081E290E04A
:104B30000E943E3460E085E090E00E943E3460E0F8
:104B400086E090E00E943E346FEF87E090E00E94A4
:104B50003E3440E050E0BA0188E090E00E945034DA
:104B600060E08DE090E00E943E3440E050E0BA0109
:104B700088E190E00E94503460E087E190E00E947C
:104B80003E3440E050E0BA018CE190E00E945034A5
:104B900060E080E290E00E943E340C94FE070C94AA
:104BA0007825682F8EE090E00C943E34FC0132961C
:104BB00080912C01882321F0809180069EE187FF5F
:104BC00096E080E0915008F4089521912223D1F3DA
:104BD0008F5FF8CF9C01FC0132969FEF80E04191FE
:104BE000461751F09F3F19F4411101C0982F8F5F74
:104BF0008630A9F79F3F09F40895290F311D97FDCD
:104C00003A95F90162830895FC0132960896219144
:104C1000261303C0DF0111971C92E817F907B9F7B3
:104C20000895E62FE695E695E695EE3168F4E80FEF
:104C3000F92FF11D677021E030E001C0220F6A9565
:104C4000EAF78281822B82830895E62FE695E69526
:104C5000E695EE3170F4E80FF92FF11D677021E051
:104C600030E001C0220F6A95EAF72095828128235F
:104C70002283089520912C01222329F0209180067F
:104C800027FD0C9411260C94EA2520912C01222357
:104C900029F02091800627FD0C9425260C940426EB
:104CA000FC01329680912C01882351F0809180067E
:104CB00087FF06C08EE1DF011D928A95E9F708950E
:104CC00086E0F9CF08950C9462260E9463268091B5
:104CD0008606843009F439C01092FD0588E190E021
:104CE00020E40FB6F894A895809360000FBE20933F
:104CF000600080E00E94B0090E9482138091FE054E
:104D000081110AC081E08093FE058091390681708F
:104D10008093FF050E940E110E94632683B7817F56
:104D2000846083BF83B7816083BF7894889583B79D
:104D30008E7F83BF0FB6F894A8958091600088613C
:104D400080936000109260000FBE08950895CF9385
:104D50000E94FE050E9411060E94A626C0E08C2F2C
:104D60000E946D06811105C0CF5FCE30C1F7CF9193
:104D7000089581E0FCCF08950C94BB260E94541E38
:104D80000E946C180E94B0091092FE058091FF05E8
:104D900081110E947A130E94C7120C94BC261F92A4
:104DA0001FB61F9211248F939F93AF93BF9380914F
:104DB000FD05811113C080917C0690917D06A09124
:104DC0007E06B0917F064196A11DB11D80937C06A1
:104DD00090937D06A0937E06B0937F06BF91AF911E
:104DE0009F918F911F901FBE1F90189582E084BDE8
:104DF00093E095BD9AEF97BD80936E0008952FB70D
:104E0000F89480917C0690917D06A0917E06B091E9
:104E10007F062FBF0895CF92DF92EF92FF920F93FC
:104E20001F932FB7F89440917C0650917D066091B6
:104E30007E0670917F062FBF6A017B01EE24FF245E
:104E40008C0130E020E0C016D106E206F30650F0F7
:104E5000481B590BCA011F910F91FF90EF90DF90F3
:104E6000CF90089541505109F3CF78941F921FB607
:104E70001F9211248F939F93AF93BF9380917C06D1
:104E800090917D06A0917E06B0917F060196A11DAE
:104E9000B11D80937C0690937D06A0937E06B0930F
:104EA0007F06BF91AF919F918F911F901FBE1F9062
:104EB0001895F89481E08093E00080E28093D80018
:104EC000E9ECF0E010828FE19EE40197F1F700C079
:104ED00000001DBA109268001CBC10BE1FBA1092D0
:104EE0007A0010926E0010926F0010927100109272
:104EF00072001082ECEBF0E0108214B817B81AB808
:104F00001DB810BA108215B818B81BB81EB811BA5F
:104F10000C94003F08950E943525811102C00E9423
:104F2000CF250E9440258093FC050E944825909340
:104F30008106809380060E944425682F70E090E0EF
:104F400080E00C944E228091040680FF12C0609194
:104F5000200185E0689FB0011124759567957595CE
:104F6000679560387105A8F561157105A1F1862F67
:104F7000089581FF09C06091200185E0689FB0011C
:104F8000112475956795EDCF6091200182FD0AC0CF
:104F9000809103068823D1F090911F016091200138
:104FA000891728F085E0689FB0011124DACF869F29
:104FB000B001112485E0869F9001879F300D112458
:104FC000692F70E0C9010E94CD32CBCF65E070E05F
:104FD000CECF8FE7089581E008958091040680FF89
:104FE0000CC060911E0170E0759567957595679589
:104FF0006115710549F1862F089581FF06C0609102
:105000001E0170E075956795F3CF60911E0182FDDA
:105010000BC0909103069923A1F060911D0180912E
:105020001E01961738F0682F70E06038710500F3A4
:105030008FE70895899FC001112470E00E94CD324E
:10504000F4CF61E070E0D7CF81E00895803F31F484
:105050000E94A3278195809308060895813F19F443
:105060000E94A327F8CF823F31F40E94A3278195A5
:10507000809307060895833F19F40E94A327F8CF71
:10508000893F29F40E94ED278093090608958A3FFD
:1050900021F40E94ED278195F7CF8B3F31F40E94D8
:1050A000ED27819580930A0608958C3F19F40E949C
:1050B000ED27F8CF843F31F480910606816080931C
:1050C00006060895853F21F4809106068260F7CF99
:1050D000863F21F4809106068460F1CF873F21F45A
:1050E000809106068860EBCF883F21F48091060608
:1050F0008061E5CF8D3F31F480910406816080931B
:10510000040608958E3F21F4809104068260F7CF53
:105110008F3FB9F7809104068460F1CF9091070624
:10512000803F41F48091080687FD1092080699237C
:1051300071F00895813F29F4809108061816ACF3A8
:10514000F6CF823F81F497FFF2CF1092070680914D
:10515000080690910906892B90910A06892B49F738
:10516000109203060895833F19F4191674F3DFCFE4
:10517000893F39F4809109061816CCF61092090679
:10518000D6CF8A3F29F48091090687FFD0CFF6CF8A
:105190008B3F39F480910A0687FFC9CF10920A0627
:1051A000C6CF8C3F29F480910A061816BCF3BFCFF6
:1051B000843F31F4809106068E7F80930606B7CF38
:1051C000853F21F4809106068D7FF7CF863F21F43D
:1051D000809106068B7FF1CF873F21F480910606F0
:1051E000877FEBCF883F21F4809106068F7EE5CF45
:1051F0008D3F31F4809104068E7F8093040697CF13
:105200008E3F21F4809104068D7FF7CF8F3F09F008
:105210008ECF809104068B7FF0CF85E096E00E94D0
:1052200092180E94FF26909302068093010608952B
:105230001F93CF93DF9380910106909102060E9405
:105240000B27AC01909103062091210130E09111D0
:1052500006C0209100068AE0289F90011124421781
:10526000530778F020910706C0910806D0910906EF
:1052700010910A06211109C08C2F8D2B812B09F06A
:105280006AC0DF91CF911F9108959F3F19F09F5FF2
:1052900090930306121624F40E94A3278093070616
:1052A0008091070687FF05C00E94A3278195809300
:1052B00007061C1624F40E94A327809308068091F9
:1052C000080687FF05C00E94A327819580930806E2
:1052D000309107063323A1F020910806222381F0A4
:1052E00045EB3403C0011124992369F1909307061B
:1052F00045EB240390011124332349F13093080630
:105300001D1624F40E94ED2780930906809109065A
:1053100087FF05C00E94ED2781958093090611162D
:1053200024F40E94ED2780930A0680910A0687FFE5
:1053300005C00E94ED27819580930A06DF91CF91E9
:105340001F910C940D2981E080930706D1CF81E055
:1053500080930806D5CF9F3F09F099CFAACF86E06A
:10536000E5E0F6E0DF011D928A95E9F71092030669
:10537000109204060895833081F128F4813059F0A9
:105380008230D1F00895853009F449C0B8F18630F3
:1053900009F456C0089580910006482F460F5527FE
:1053A000551F4F3F510524F4680F60930006089580
:1053B0008FEF80930006089580912101482F460FBA
:1053C0005527551F4F3F510524F4680F6093210165
:1053D00008958FEF80932101089580912001482F37
:1053E000460F5527551F4F3F510524F4680F609312
:1053F000200108958FEF80932001089580911F016F
:10540000482F460F5527551F4F3F510524F4680F6D
:1054100060931F0108958FEF80931F01089580917D
:105420001E01482F460F5527551F4F3F510524F4A5
:10543000680F60931E0108958FEF80931E010895F9
:1054400080911D01482F460F5527551F4F3F51058D
:1054500024F4680F60931D0108958FEF80931D0160
:105460000895833011F128F4813049F0823091F0B1
:105470000895853081F120F18630C1F10895809141
:105480000006681720F4861B80930006089510928A
:105490000006089580912101681720F4861B8093EF
:1054A000210108951092210108958091200168172B
:1054B00020F4861B80932001089510922001089506
:1054C00080911F01681720F4861B80931F010895A7
:1054D00010921F01089580911E01681720F4861B09
:1054E00080931E01089510921E01089580911D0160
:1054F000681720F4861B80931D01089510921D01EA
:1055000008950F931F9341E050E060E070E08A013E
:105510009B0104C0000F111F221F331F8A95D2F771
:10552000C901B8010E944E221F910F910C94541E84
:10553000EBEFE80FEF3308F065C0F0E0E355FB4C0C
:105540000C94E1320E94CF2581E008958091FC0502
:10555000807F8093FC0581E080930C0608950E9473
:10556000541E2FEF83ED90E3215080409040E1F7EF
:1055700000C000000E945927E7CF9091FC05892FB9
:105580008E7F90FF81608093FC0580FDDDCF817F61
:105590008093FC05D9CF9091FC05892F8D7F91FFD9
:1055A00082608093FC0581FFCFCF8091FC058160F4
:1055B000EFCF9091FC05892F8B7F92FF84608093C1
:1055C000FC0582FDF2CFC0CF9091FC05892F877F2B
:1055D00093FF88608093FC0583FDE7CFB5CF0E94E1
:1055E000541E90918006892F97FB87F980588093ED
:1055F0008006AACF80E00E94812AA6CF8953FBCFE4
:105600008D51F9CF80E0089580E008950C94042B2B
:105610008E518A3030F4E82FF0E0E650FE4F808162
:10562000089580E00895CF93C82F80910C068130B3
:10563000E1F0882329F08230E9F110920C0613C0C2
:105640000E943624813159F48C2F0E94042B811141
:1056500025C08C2F0E94982A8170CF9108950E94B6
:105660003624823289F380E0F8CF0E9436248131DB
:1056700059F30E943624823239F38C2F0E94062B74
:1056800081110AC0C43199F060F4CB3029F0C031E7
:1056900019F782E080930C0681E0DECF81E090E094
:1056A000DBCFC93221F0C833B9F380E0D5CF1092F7
:1056B0000C06FBCFC93219F188F4C43101F120F492
:1056C000C73081F181E0C9CF82EE8C0F8630D0F7F0
:1056D0008C2F0E94082B80930B06F4CFCE3401F15F
:1056E00040F46AE0CB3471F780910B060E94BB292D
:1056F000E9CFC13579F061E0C235B1F3E3CF8091F4
:105700000B06882319F010920B06DCCF81E0809302
:105710000C06A3CF61E080910B060E94312AD2CF04
:105720006AE0F9CF1092000684E180932101C093D2
:1057300020018CE380931F0188E080931E0188E2A2
:1057400080931D01BFCF80912D0608950F931F9365
:10575000CF93DF9300D00F92CDB7DEB78C010E94BC
:10576000072E823011F0843021F584E089831B8379
:105770000A8382E08093E9008FEF9091E8008150E6
:1057800095FD06C095ED9A95F1F700008111F5CFD2
:105790008091E80085FF0DC050E040E063E070E0DC
:1057A000CE0101960E94242E8091E8008E7780938E
:1057B000E8000F900F900F90DF91CF911F910F9104
:1057C0000895CF93DF9300D00F92CDB7DEB720912D
:1057D0008606243031F523E02983805891099B8384
:1057E0008A8382E08093E9008FEF9091E8008150F6
:1057F00095FD06C095ED9A95F1F700008111F5CF62
:105800008091E80085FF0DC050E040E063E070E06B
:10581000CE0101960E94242E8091E8008E7780931D
:10582000E8000F900F900F90DF91CF910895CF93E4
:10583000DF93EC010E94072E823011F08430F9F4DE
:1058400082E08093E9008FEF9091E800815095FD10
:1058500006C095ED9A95F1F700008111F5CF809182
:10586000E80085FF0CC050E040E066E070E0CE014B
:105870000E94242E8091E8008E778093E800DF91CB
:10588000CF910895CF93DF93EC010E94072E8230D1
:1058900011F08430B9F580912C018823B1F1809109
:1058A000800687FF32C060E282E08093E9008FEFDC
:1058B0009091E800815095FD06C095ED9A95F1F71D
:1058C00000008111F5CF8091E80085FF1BC0809119
:1058D0002C0170E050E040E0811104C050E040E055
:1058E00068E070E0CE010E94242E8091E8008E775F
:1058F0008093E80080E2FE01ADE0B6E001900D92F9
:105900008A95E1F7DF91CF91089568E081E0CDCFEE
:1059100080918506811109C00E94B22F0E940F302C
:105920008091E20084608093E200089510928506E1
:105930000895089508950C94BE2642E061EC81E03C
:105940000E94302F42E261EC82E00C94302F809173
:105950008806833009F45FC030F48130C1F18230B1
:1059600009F49BC008958A3009F487C08B3009F48C
:105970006DC0893009F04EC080918706813209F0F0
:1059800049C080918B0690918C06029708F042C026
:105990008091E800877F8093E8008091E80082FF93
:1059A00035C09091F3008091F200029729F4809124
:1059B000F1008B7F813021F48091F10080932D06DE
:1059C0008091E8008B778093E8000C94642F80919D
:1059D0008706813AF9F48091E800877F8093E80098
:1059E00080918B0690918C06892B61F460E28DE0AA
:1059F00096E070E00E94732E8091E8008B77809390
:105A0000E800089560E090E080E0F3CF80918606A2
:105A10008111C3CF089580918706813AD9F780918B
:105A20008B0690918C06892BA9F78091E800877FDF
:105A30008093E8008091E80080FFFCCF80912C01EA
:105A40008093F1008091E8008E77BDCF809187062A
:105A5000813201F780918B0690918C06892BD1F6CB
:105A60008091E800877F8093E8000E94642F8091F6
:105A7000890680932C010C94541E809187068132F4
:105A800049F68091E800877F8093E8000E94642FA8
:105A900080918A0680932E06089580918706813A28
:105AA00009F0B8CF8091E800877F8093E80080916B
:105AB000E80080FFFCCF80912E06C2CF84B7877F9D
:105AC00084BF0FB6F894A895809160008861809398
:105AD0006000109260000FBE80E890E00FB6F8946E
