:100000000C9488040C94A5040C94A5040C94A504E9
:100010000C94A5040C94A5040C94A5040C94A504BC
:100020000C94A5040C94A5040C944C300C94203131
:100030000C94D6260C94A5040C94A5040C94A50449
:100040000C94A5040C94A5040C94A5040C94A5048C
:100050000C94A5040C9421270C94A5040C94A504DD
:100060000C94A5040C94A5040C94A5040C94A5046C
:100070000C94A5040C94A5040C94A5040C94A5045C
:100080000C94A5040C94A5040C94A5040C94A5044C
:100090000C94A5040C94A5040C94A5040C94A5043C
:1000A0000C94A5040C94A5040C94A5046572676FC8
:1000B000646F785F657A2F73616570204020302E01
:1000C00031312E31352D32362D676161633736641B
:1000D0002D64697274790002532B00E000E100E1A5
:1000E0000100001E00140004001D00000004081F91
:1000F000001A0016001B002D0229682000080007C6
:1001000000060003512C442100150009451900E2A6
:10011000001901220017000A42050000001B010718
:100120005D68000000690000000601085D6A0000CB
:100130000001530000500423001C000B00110000BC
:10014000004F04240018000D0010002A744B0025F5
:10015000000C000E00360003513044260012000F40
:100160000037002D452F6827001300334238000662
:100170005D4E002A0031002871E500650000003561
:10018000002B00E000E100340200001E0014000417
:10019000001D00100000001F001A0016001B000CBC
:1001A000002C0020000800070006000B002C002196
:1001B00000150009001900E2001901220017000AC9
:1001C00000050000001B01230000000000290000C2
:1001D00000060100000000000001000000500423A0
:1001E000001C000B00110000004F04240018000D3B
:1001F0000010002A744B0025000C000E003600038E
:10020000513044260012000F0037002D452F68277B
:1002100000130033423800065D4E002A00310028EA
:1002200071E5006500000001002B00E000E1000125
:100230000000000000F400F200F7000100040800D4
:1002400000F000F100F600010010500000F500F38E
:1002500000F80013502C440000F900FA000100E2FD
:10026000001901000001000000010000001B010155
:100270000001000000010000000601000000000075
:100280000011500000AC000100010001000100005D
:1002900000AB0053005F005C0059006200A90055EC
:1002A0000060005D005A006300AE00540061005E13
:1002B000005B008500A80056005700010001000106
:1002C00000AA002A0031002871E500650000001234
:1002D000502B00E000E1000000000000001E021EA4
:1002E000002D000000010000001F021F002E020070
:1002F000001050000020022000350001002C4400B6
:10030000002102210034020000000000002202222D
:10031000002D0200000000045D000000000000004D
:10032000000000055D00000000000000000100006A
:10033000002302230000000000010000002402242A
:100340000034002A004B0000002502250036020080
:1003500000270200003500260037020000260200B8
:1003600000350227002E0000004E002A0031002830
:1003700071E5000000000000002B00E000E100003B
:100380000000003A0000004A000000000001003BAD
:1003900000500100004C00000010503C004F011BB9
:1003A00001000000002C443D0000004D000000E270
:1003B0000000003E00000000005001000000003F6F
:1003C00000000000000000000000004000000000ED
:1003D000000000000050044100060150003C0000F5
:1003E000004F0442001D0151004B004E004B0043E2
:1003F0000000005200500400000100440000004FC3
:10040000004F0400002F684500190100003C000067
:10041000004E002A0031002871E5000000000012A3
:10042000502B00E000E1000100000001000100018C
:1004300000010001000100010001000100010001B4
:10044000001050010001000100010001002C4401D6
:100450000001000100010001000000010001000195
:1004600000010000000000045D000000000000002A
:10047000000000055D000000000000000001000019
:100480000000000000000000000100000042003EEB
:10049000003A0000004B00000043003F003B00001A
:1004A0000027020000440040003C0000002602003B
:1004B00000450041003D0000004E002A00310028A8
:1004C00071E5000000000000000000000000002AAC
:1004D0002B280000000000000000000000000000C9
:1004E000000029000000002C1E3420212224342684
:1004F00027252E362D3738271E1F2021222324257D
:10050000263333362E37381F0405060708090A0B31
:100510000C0D0E0F101112131415161718191A1BA3
:100520001C1D2F3130232D350405060708090A0B41
:100530000C0D0E0F101112131415161718191A1B83
:100540001C1D2F3130354C00000000000000000061
:1005500000000000000000000000007E0F00D4FF3B
:10056000FFFFC70000007832190A00047F3F1F64B4
:100570003214643214783C1E1E140A0522232526E8
:1005800028292A2C2D2F3032333536383A3B3D3E40
:100590004042434547494A4C4E5051535557595A8A
:1005A0005C5E6062646668696B6D6F7173757779A4
:1005B0007B7D7F81838587898A8C8E9092949698A3
:1005C0009A9C9E9FA1A3A5A7A8AAACAEAFB1B3B4B5
:1005D000B6B8B9BBBCBEBFC1C2C3C5C6C7C9CACB0A
:1005E000CCCDCED0D1D2D2D3D4D5D6D7D7D8D9D9D5
:1005F000DADADBDBDBDCDCDCDCDCDDDDDDDDDCDC3E
:10060000DCDCDCDBDBDBDADAD9D9D8D7D7D6D5D45A
:10061000D3D2D2D1D0CECDCCCBCAC9C7C6C5C3C226
:10062000C1BFBEBCBBB9B8B6B4B3B1AFAEACAAA87B
:10063000A7A5A3A19F9E9C9A98969492908E8C8A2F
:1006400089878583817F7D7B79777573716F6D6B0A
:100650006968666462605E5C5A5957555351504EE2
:100660004C4A4947454342403E3D3B3A3836353394
:1006700032302F2D2C2A292826252322FFAA7F5508
:100680004000010101010101010101020202020217
:10069000020202020303030303030303040404042A
:1006A00004040405050505050606060606070707F2
:1006B000070708080808090909090A0A0A0B0B0BA9
:1006C0000C0C0C0D0D0D0E0E0E0F0F0F1010111146
:1006D00011121213131414151516161717181819CA
:1006E000191A1A1B1B1C1D1D1E1E1F202021222231
:1006F000232424252626272829292A2B2C2D2D2E74
:100700002F30313232333435363738393A3B3C3D8D
:100710003E3F404142434445464748494A4C4D4E7E
:100720004F50515354555658595A5B5D5E5F616244
:1007300064656668696B6C6D6F7072737577787AD3
:100740007B7D7E8082838587888A8C8E8F9193952E
:1007500096989A9C9EA0A2A3A5A7A9ABADAFB1B352
:10076000B5B7BABCBEC0C2C4C6C9CBCDCFD1D4D632
:10077000D8DBDDDFE2E4E7E9EBEEF0F3F5F8FAFDD4
:10078000FF16034500720067006F0044006F007899
:1007900000200045005A00000028035A0053004181
:1007A00000200054006500630068006E006F006C5C
:1007B000006F006700790020004C00610062007348
:1007C0000000000403090409023B00020100A0FA32
:1007D00009040000010301010009211101000122A7
:1007E00040000705810308000A0904010001030015
:1007F000000009211101000122BC0007058203202D
:10080000000A12011001000000089732744901002B
:100810000102000105010902A10185020901A100EF
:1008200005091901290515002501950575018102A4
:100830009501750381010501093009311581257F75
:1008400095027508810609381581257F950175087F
:100850008106050C0A38021581257F9501750881EE
:1008600006C0C005010980A101850319012AB7004E
:10087000150126B700950175108100C0050C09010E
:10088000A101850419012AA002150126A0029501E3
:1008900075108100C005010906A10185050507192C
:1008A000E029E71500250195087501810205071962
:1008B0000029EF1500250195F07501810205081941
:1008C000012905950575019102950175039101C0F6
:1008D00005010906A101050719E029E71500250111
:1008E00095087501810295017508810105071900B8
:1008F00029FF150026FF00950675088100050819D7
:10090000012905950575019102950175039101C0B5
:1009100011241FBECFEFDAE0DEBFCDBF12E0A0E0B2
:10092000B1E0E0E1FCE602C005900D92A637B10708
:10093000D9F727E0A6E7B2E001C01D92A435B207BF
:10094000E1F70E948E2D0C9481350C940000809864
:10095000889A8198899A84988C9A85988D9A869895
:100960008E9A87988F9A0895209828982198299888
:1009700022982A9823982B9852985A9853985B98C3
:100980003E9846980895CF93C82F873070F5809190
:100990000A0190910B01892B89F564E670E080E4EF
:1009A0000E945A1890930B0180930A01892BD1F46D
:1009B00064E670E082E10E94B61890930B01809388
:1009C0000A01892B79F481E090E001C0880FCA9573
:1009D000EAF764E670E080950E94B61890930B01E8
:1009E00080930A01CF910C9409198A30B9F040F430
:1009F000883071F0893079F0209A2898CF91089545
:100A00008C3091F070F08D30B9F73E9A4698F6CF61
:100A1000219A2998F3CF229A2A98F0CF239A2B98DB
:100A2000EDCF529A5A98EACF539A5B98E7CFCF937B
:100A3000873050F580910A0190910B01C0E0892B1D
:100A400071F464E670E081E40E945A1890930B01FF
:100A500080930A01892B31F0C0E00E9409198C2F84
:100A6000CF91089584E690E00E94E51897FF05C0B5
:100A700090930B0180930A01EFCFC82FC09510927D
:100A80000B0110920A01E9CFCFB18FB186958695FF
:100A90008C73C3708C2BC82FC095E1CF0E94940635
:100AA00090E090930B0180930A010E94B4040C948F
:100AB000A704EF92FF920F931F93CF93DF93809140
:100AC0000A0190910B01892B91F0809176028F5F42
:100AD0008093760281110BC00E94940690E090935F
:100AE0000B0180930A01892B11F40E9429060BED5A
:100AF00016E0C0E0D0E087E0E82EEC0E8C2F0E94DC
:100B0000C3048E2D0E94C3048C2F0E941705F80188
:100B100091918F01F12C891721F031978083FF2467
:100B2000F3948E2D0E941705F8019681891789F09C
:100B3000868381E08F29D82B0E94B404CF5FC73011
:100B4000D1F68D2FDF91CF911F910F91FF90EF90F4
:100B5000089580E0EFCF0E94940690E090930B01FF
:100B600080930A010E94B4040E94A704E9EEF6E013
:100B7000119286E0E73FF807D9F70895CF92DF9208
:100B8000EF92FF920F931F93CF93DF936C01062F89
:100B90000E94541864E670E084E80E945A18CC2D34
:100BA000DD2DF12CE12C10E0E016F10674F00E942E
:100BB0000919B801C601DF91CF911F910F91FF90E4
:100BC000EF90DF90CF900C941A1464E670E0888167
:100BD0000E94B61864E670E089810E94B61864E647
:100BE00070E08A810E94B61864E670E08B810E94F2
:100BF000B6188FEFE81AF80A2496D6CF259A2D9AC0
:100C00000895269A2E9A0895279A2F9A089556980D
:100C10005E98089525982D98089526982E98089501
:100C200027982F9808950E9407060E940A060E949E
:100C30000D060C94100690E0909389008093880034
:100C400090938B0080938A0090938D0080938C000A
:100C500008950E9413068FEF0E941B060E94FE0556
:100C60002FEF80E792E0215080409040E1F700C0F4
:100C700000000E9401062FEF80E792E021508040A3
:100C80009040E1F700C000000E9404062FEF80E7CB
:100C900092E0215080409040E1F700C000000E94A7
:100CA0000A062FEF80E792E0215080409040E1F764
:100CB00000C000000E940D062FEF80E792E0215057
:100CC00080409040E1F700C000000E9410060C94A4
:100CD000130689EA8093800089E08093810024983C
:100CE0002C983F988AB18F7C8AB96E98479A8BB1BD
:100CF00080638BB9769A0E9433256093D7067093F0
:100D0000D8068093D9069093DA0667702FEF629F1A
:100D1000C001112495958795959587950E941B068E
:100D20000E9429060C94230780E290E090930B0127
:100D300080930A018091770281110EC00E9454189D
:100D400081E0809377022FEF83ED90E32150804084
:100D50009040E1F700C0000064E670E080E40E948B
:100D60005A1890930B0180930A01892B09F04EC009
:100D700064E670E080E00E94B61890930B018093C7
:100D80000A01892B09F042C064E670E080E00E940D
:100D9000B61890930B0180930A01892BB9F564E68C
:100DA00070E08FE30E94B61890930B0180930A01C4
:100DB000892B61F50E94091964E670E080E40E94C5
:100DC0005A1890930B0180930A01892BF9F464E679
:100DD00070E08CE00E94B61890930B0180930A019A
:100DE000892BA1F464E670E080E00E94B61890932D
:100DF0000B0180930A01892B49F464E670E08FE3CC
:100E00000E94B61890930B0180930A010E94091961
:100E100080910A0108951092D7061092D806109278
:100E2000D9061092DA0684E080618093D70660913B
:100E3000D7067091D8068091D9069091DA060E9463
:100E400037250C9443250895FB018B322DE592073D
:100E500071F08C322DE5920791F08A329D45B1F404
:100E600082818823A1F00E94A62580E008958281D6
:100E7000882369F08CEA90E00E94EB08F6CF82812B
:100E8000882329F081E00E949212EFCF81E008953B
:100E9000CF92DF92EF92FF92CF936B017C010E9481
:100EA000B824C82F0E9407060E940A060E940D0659
:100EB0000E941006C150C73040F4EC2FF0E0ED570F
:100EC000FA4C0C9436330E94FE05C701B601CF914F
:100ED000FF90EF90DF90CF9008950E94FE050E9452
:100EE0000106F3CF0E94FE050E940406EECF0E9489
:100EF000FE050E940106F8CFCF93DF939C013A953F
:100F000021153F4168F5EC01CC27D170DC01AA27FF
:100F1000B270AC01442754709C012227387094FFB2
:100F200011C080E1CD2B09F480E0AB2B09F0806289
:100F3000452B09F08064232B09F08068FB01DF91C9
:100F4000CF91099481E0CD2B09F480E0AB2B09F01F
:100F50008260452B09F08460232B81F38860EECFFB
:100F6000DF91CF910895CF93DF93EC01805E9109DB
:100F7000089720F062E87EE1209711F468EB7BE1AE
:100F8000CE010E947C078C2FDF91CF910C94B81A70
:100F9000CF93DF93EC010E944F1BCE01805E91093D
:100FA000089720F069E87EE1209711F46FEB7BE170
:100FB000CE01DF91CF910C947C07CF93DF93EC01AE
:100FC0000E94B307CE01DF91CF910C94C80781E056
:100FD00008950C94240708950C94EB071F93CF9366
:100FE000DF9300D000D00F92CDB7DEB749835A838C
:100FF0006B833091000689819A8131111DC066236F
:10100000B9F02223A9F00E945823182F682F898154
:101010009A810E94012369817A81812F0F900F901C
:101020000F900F900F90DF91CF911F910C94750945
:101030000E942F23182FEFCF0E94582369817A81B5
:10104000EDCFFC01262F4081518162817381848123
:101050000C94EE07CF93DF93EC0160E00E9421082F
:10106000BE01DF91CF910C94EC07FF920F931F9379
:10107000CF93DF93E82FF0E0E953FB4FF490C82FB4
:10108000C695C695C695D0E0FE01E95AFA4F04917F
:10109000877010E0082E02C0159507950A94E2F7B4
:1010A00001701127C95BDA4FFE01C491D0E002C084
:1010B000D595C7958A95E2F7C170DD270115110511
:1010C00019F081EE0E94B81A209719F086EE0E945E
:1010D000B81A8F2D0E94A51BCD2B19F086EE0E9409
:1010E0004F1B012B41F081EEDF91CF911F910F91AA
:1010F000FF900C944F1BDF91CF911F910F91FF90A8
:101100000895EF92FF920F931F93CF93DF938C017B
:10111000F62E8AE0E82EF8018491882309F454C061
:10112000813009F04DC0E8012196FE0184918130A3
:1011300091F42196FE0184910E94A51B8E010F5F00
:101140001F4F8F2D815038F3EFE9FFE03197F1F712
:1011500000C00000F7CF823039F4E8012296FE018A
:1011600084910E94B81AEACF833039F4E8012296BC
:10117000FE0184910E944F1BE1CF8430F9F6E80113
:101180002296FE01249190E080E0FE0131962053EA
:10119000330B2A30310548F0019780F2EFE9FFE088
:1011A0003197F1F700C00000F7CFE89EA001E99E5B
:1011B000500D1124C901840F951F2491EF01E5CF33
:1011C0000E943508E801BACFDF91CF911F910F91AE
:1011D000FF90EF90089560E00C9481080E9405252F
:1011E000811102C00E94A6250E945A140C9469061F
:1011F0000C94690B282F2F7041F0822F90E02A3039
:1012000010F44D9608950697089587E290E00895AA
:1012100008950E94A61E0E9408092FEF84E39CE017
:10122000215080409040E1F700C000000C94452719
:101230000F931F93CF93DF93EC0161E00E9421088D
:101240008C01BE010E94C7178823B9F1BE01C801F5
:101250000E94E907882389F1BE01C8010E94D114C8
:10126000882359F1BE01C8010E947A15882329F10B
:10127000BE01C8010E94CC158823F9F0BE01C80147
:101280000E94EF168823C9F0BE01C8010E94AA136C
:10129000882399F08A81882339F001158CE5180795
:1012A00051F00F3D1C4579F0CE01DF91CF911F9198
:1012B0000F910C94E7070E94090980E0DF91CF911C
:1012C0001F910F9108950E94A625F7CF08950C94C1
:1012D000660981E008950C946909CF93C82F0E9494
:1012E00067098C2FCF910C946B09972F70E026E043
:1012F000929F600D711D1124FB0194E5899FE00D03
:10130000F11D1124EE0FFF1FE952FF4F85919491BB
:101310000895CF93DF930E9475090E948E0AEC0115
:10132000811522E5920708F047C0811531E5930742
:1013300008F0C1C0883E910530F5803E910508F067
:1013400099C0883A910588F4853A910508F08BC0D8
:101350008130910509F48EC0009709F48BC0049781
:1013600008F088C0D0E0C0E085C08F3B9105D0F781
:10137000C85AD0E0CC0FDD1FC252DE4F0990D88191
:10138000C02DD46477C08115904250F4C11581E01E
:10139000D80708F06FC0C03FD10520F3D0656AC000
:1013A000C11590E4D907F0F2C11520E5D20708F085
:1013B00065C0DF70D06A5EC0811536E5930718F509
:1013C000811545E5940708F08EC0C11584E5D8075E
:1013D00008F084C09C2F969596959E012370332724
:1013E000C115D34508F46CC0C1E0D0E002C0CC0FF9
:1013F000DD1F2A95E2F730E2939FC0011124C82B2C
:10140000D92BDA6837C0C1158AE5D80778F4C11539
:1014100099E5D90708F071C0C11528E5D20708F48D
:10142000A1CFDC2FCC27C06FD06A24C0C1153BE50B
:10143000D30708F497CFC1154CE5D40708F46BC067
:10144000CE0190568115904208F08CCF8D2F8F7170
:101450000E94250B90E0982F882788279F719C0178
:101460002C2BE90148C0C55AD0E0C45FDD4FC881CC
:10147000D0E0D064CE01DF91CF910895CE01E4E0B9
:1014800096958795EA95E1F783702C2F26952695FA
:10149000237040E2249F90011124382B8C2F8370FD
:1014A000C1E0D0E002C0CC0FDD1F8A95E2F7C22B6D
:1014B000D32BDC68DFCFD82FCC27C16FD06ADACF2F
:1014C000C1E0D0E002C0CC0FDD1F2A95E2F720E298
:1014D000929FC0011124C82BD92BEBCFDC2FCC2736
:1014E000C46FD06AC7CF0E94250BC82FD0E0DC2F75
:1014F000CC27CC27DF71D062BDCF8C2F8F700E949C
:10150000250B34E0D695C7953A95E1F7CF709C2F1F
:10151000EC01D069AFCFDD27D066ACCF8238910522
:10152000B1F1B0F48133910509F475C048F4893202
:10153000910509F469C08A32910509F473C00895D0
:101540008533910509F459C08933910501F1089556
:10155000833E9105A9F138F4803E9105F9F0823E71
:10156000910549F10895863E9105A9F1873E9105BF
:10157000C9F1843E910519F52091420721FF1FC052
:101580008091410784FD14C087EE90E0089520917A
:1015900041072370A1F080EE90E00895209141076B
:1015A00020FD47C03091420730FF09C024FF44C0EE
:1015B00090E080E004C02091410722FDF7CF08951C
:1015C0002091410722FD3BC03091420730FDE3CF1F
:1015D00024FFF5CFEDCF2091410723FFF0CF24FD6D
:1015E000E7CFD2CF2091410723FD2CC03091420795
:1015F00031FFEECF84EE90E008952091410725FF62
:10160000DECF89E290E008952091410725FFD7CFF2
:1016100085E390E008952091410726FFD0CF8AE22C
:1016200090E008952091410726FFC9CF81E390E023
:10163000089589E390E0089583EE90E0089582EEA6
:1016400090E0089586EE90E008959091410792FF12
:1016500006C0282F28712830F9F4877F846093FF13
:1016600006C0282F28712831F1F4877E84612091EB
:10167000420720FF06C0382F38713830D9F4877FF1
:10168000816021FF06C0282F28712831D1F4877E80
:10169000816194FD877E0895282F24712430F9F606
:1016A0008B7F8860DCCF282F2471243101F78B7E5B
:1016B0008861DDCF382F3171313019F78E7F886026
:1016C000E0CF282F2171213121F78E7E8861E1CF73
:1016D00008950C94680BE82FF0E0E751F94F8081F2
:1016E000089508950E944E05EBEDF6E0A9EEB6E0F0
:1016F00011921D9286E0E93EF807D1F78EE00E9434
:10170000960B0C94EE08CF938BED96E00E94590552
:10171000C82F282F4EE069EE76E08BED96E00E9410
:101720001F0C0E94F8088C2FCF910895CF93C82FDB
:1017300090E00E946D3380937C0290937D02282F6D
:10174000FC019BEF8E2F821B8C1710F0CF91089518
:101750009193F8CFEF92FF920F931F93CF93DF9364
:10176000A62F10927B0230917C02E32FF0917D0234
:1017700020E0E62EF12CBBEF0BEF10E09E2F931B29
:10178000981748F020937B02DF91CF911F910F9122
:10179000FF90EF90089591919B3F81F3492F50E086
:1017A000A91798F0B701641B750BAB01052E000C4F
:1017B000660B770B4E3151056105710568F0AF017D
:1017C00041505109EA01B883D9CFE801C41BD50BB8
:1017D000AE014E0D5F1DEACF21E0D0CF0F931F93D6
:1017E000CF93DF9310927E0250917C0230917B0266
:1017F000DB018C01E52FF0917D0290E08E2F851B9F
:10180000841748F030937B0290937E02DF91CF9152
:101810001F910F9108956D91E80189918E016817CC
:1018200051F060816B3F49F42083BD016150710923
:10183000EB01888331E03196E1CF91E0FCCFDF927C
:10184000EF92FF920F931F93CF93DF93EC018B01E5
:10185000E42ED22E0E9406276091790270917A02BE
:1018600090937A02809379022091780230E0261BCF
:10187000370B820F931F6BEF70E00E94EC32F82E53
:101880008093780280917B02882319F16F2D8E2D31
:101890000E94AA0BDD2069F02F2D4E2DB801CE013C
:1018A000DF91CF911F910F91FF90EF90DF900C94FB
:1018B000EE0B80917B02882379F380917E02811167
:1018C000EBCFDF91CF911F910F91FF90EF90DF90C1
:1018D0000895D110E1CFF1CFEF92FF920F931F93B4
:1018E000CF93DF93EB01E82FD11110C0442321F0F7
:1018F000F0E0EF57F94FE4916E2F7E2F8E2FDF919E
:10190000CF911F910F91FF90EF9008950D2F10E050
:10191000282F30E0442329F02F57394FF901249123
:1019200030E0F6E0CF9FC0011124EFEFF0E0BF01FF
:101930000E94EC32AB018C2F90E0880F991FA5E537
:10194000A49FB001A59F700D1124861B970B982FA3
:10195000990F980FBF01601B710B629FD001639FAD
:10196000B00D729FB00D11248B2F9D9FB0011124DB
:10197000672F7727EF01C61BD70BBE01629FE001DF
:10198000639FD00D729FD00D11247F01E91AF108D9
:10199000E09EB001E19E700DF09E700D1124672F46
:1019A0007727E61BF70BE29F8001E39F100DF29F64
:1019B000100D1124E12F722F4230510599F048F497
:1019C0004115510569F04130510581F0EB2F8D2F04
:1019D00007C04430510569F080F046305105B1F739
:1019E0006E2F8DCFE22F7B2F812FFACFE22F7D2F0D
:1019F000F7CFEB2F822F712FF3CF7B2F822FED2F7D
:101A0000EFCF41E00C946C0CFC018281208131818C
:101A1000982F281708F4922F391708F4932F9383DF
:101A2000391B3183291B2083891B828308950895E4
:101A30000C94010DCF93DF93762FE901682F842F4B
:101A40000E94180D798368838A831B82DF91CF916E
:101A500008958091F706982F9E7F29F48170826007
:101A60008093F70608958635E8F381708465F8CF92
:101A700088E090E00C942235CF92DF92EF92FF92B3
:101A80006B017C010E94290DB701A60188E090E05E
:101A9000FF90EF90DF90CF900C944035E7EFF6E0A9
:101AA00083E0808311828FEF82838383148260813D
:101AB0007181828193810C943C0D8091F70680FFA7
:101AC00002C08695089580E008959091FB069330BA
:101AD00018F49F5F9093FB06882351F06091F706FE
:101AE0007091F8068091F9069091FA060C943C0DDD
:101AF000089581E00C94650D9091FB06992319F0EF
:101B000091509093FB06882351F06091F7067091F5
:101B1000F8068091F9069091FA060C943C0D089510
:101B200081E00C947C0DEF92FF920F931F93CF9363
:101B3000DF93009110018091F70680FF16C0C091DD
:101B40000F0124E0C29FE0011124C450D94F7E014F
:101B500010E010131DC0612FCE01DF91CF911F91B6
:101B60000F91FF90EF900C94BE0580911101909120
:101B7000120124E0829FF0011124E450F94F8917EB
:101B8000F0F611821082128213828F5F3496F7CFA3
:101B9000C7010E94040D1F5F84E0E80EF11CD9CF3D
:101BA0009091F70690FF15C09091110120911201BC
:101BB00034E0939FF0011124E450F94F921710F094
:101BC0000C94930D81836083428313829F5F3496CC
:101BD000F5CF0895CF93DF9300D000D0CDB7DEB717
:101BE0009091F70690FF0AC09E012F5F3F4F0E9421
:101BF0001A0D4B8169818A810E94D00D0F900F9040
:101C00000F900F90DF91CF910895CF93DF93EC0168
:101C1000EC81F0E0E458FA4F4491E7EFF6E062819E
:101C200081810E94EA0D8C818F5F8C83DF91CF913F
:101C30000895CF93DF93EC01E7EFF6E043816281F3
:101C40008C810E94EA0D8C818F5F8C83DF91CF9114
:101C500008950F931F93CF93DF9300D000D0CDB79B
:101C6000DEB78C0180917F0281110AC09E012F5F37
:101C70003F4F4FEF6FEF0E941A0D8A8180937F02D2
:101C8000F8016481613069F080917F0240E0662351
:101C900061F040E0623011F440917F0280E060E04A
:101CA00004C060917F0240E080E00E94D00DF80106
:101CB000848190E0019663E070E00E9400338483A9
:101CC0000F900F900F900F90DF91CF911F910F9178
:101CD0000895AF92BF92CF92DF92EF92FF920F934F
:101CE0001F93CF93DF9300D000D0CDB7DEB7182F6E
:101CF000F62E042FE22E9091F70690FF29C0E92FCF
:101D0000E695AE2FB0E0A15FBD4F8C918093D402D9
:101D10009E7F923061F59E012F5F3F4F812F0E9481
:101D20001A0D4B8169818A810E94D00D1093F806AB
:101D3000F092F9060093FA06EE2051F06091F70652
:101D40007091F8068091F9069091FA060E943C0D78
:101D50000F900F900F900F90DF91CF911F910F91E7
:101D6000FF90EF90DF90CF90BF90AF9008958230BA
:101D700019F40091FA06DACF863019F41091F806BA
:101D8000D5CF8930D9F3893189F6E9518E2F817009
:101D9000D82EE695F0E0E458F94FA590B490C12C08
:101DA000BB2460911301C61618F00E94930DBECF9C
:101DB000EC2DF0E0AE9EC001AF9E900DBE9E900D4A
:101DC000112470E00E94EC32812FD11012C0860FD6
:101DD000209111012E0F3F2F311D220F331F220F93
:101DE000331F2450394F402F6F2D0E941A0DC3947A
:101DF000D8CF861BEDCFE7EFF6E09181282F438106
:101E000062818CE0890F0C94690E81E00C94FB0ECA
:101E1000E7EFF6E09181282F4381628184EF890FFB
:101E20000C94690E81E00C94080FE7EFF6E06281F4
:101E30002FEF620F08F46FEF282F438181810C94FC
:101E4000690E81E00C94150FE7EFF6E062812FEF49
:101E5000621B08F460E0282F438181810C94690E95
:101E600081E00C94240FE7EFF6E043812CE0420F71
:101E700008F44FEF282F628181810C94690E81E074
:101E80000C94330FE7EFF6E043812CE0421B08F49B
:101E900040E0282F628181810C94690E81E00C94CE
:101EA000420F20E00C94690EFF920F931F93CF9383
:101EB000DF93EC01F12C0FEF10E060911301F616A7
:101EC00070F00E94930D9A818C8190FF24C08F5FE7
:101ED0008C83DF91CF911F910F91FF9008952091F6
:101EE00011012F0D3327331F220F331F220F331FF2
:101EF0002450394F70E0C8010E940033962F8C8126
:101F00004091FA066091F906F99E800D11240E9415
:101F10001A0DF394D2CF8150DBCFAF92BF92CF9204
:101F2000DF92EF92FF920F931F93CF93DF93FC0109
:101F30008281EE24EA9480FD02C0EE24E394F12C29
:101F40003FE0B32E80911301F816C8F00E94930D64
:101F50008091810291E0E91255C0811102C0809107
:101F60001301815080938102DF91CF911F910F91D6
:101F7000FF90EF90DF90CF90BF90AF900895C09109
:101F800011010F2D10E0C00FD12FD11DCC0FDD1F7F
:101F9000CC0FDD1FC450D94F198218821A821B82C0
:101FA00024E0C22ED12CA12C809181028A0D803197
:101FB0001CF16B2D0E94DE32892F082E000C990B2C
:101FC0000817190791F48091FA068C9DA0018D9D48
:101FD000500D112455954795559547959E01609153
:101FE000F9068091F8060E941A0DAE0CF1E0CF1AA6
:101FF000D108D1F6F394A6CF87FFDFCF90911301DC
:10200000890FDBCF90E001966091130170E00E9490
:102010000033A8CF0F931F93CF938091110190911C
:10202000120124E0829FF0011124E450F94F891736
:1020300030F1C0E060911301C61740F10E94930D8A
:1020400020910D0180918002820F809380029091F7
:102050000E01920F90930E01191654F4082E000CE5
:10206000990B409113014150550B841795071CF0B3
:10207000219520930D01CF911F910F910895118209
:102080001082128213828F5F3496D1CF0C2F10E012
:1020900070E0C8010E940033E0911101E80F8091C7
:1020A0008002082E000C990B24E0E29FF00111241D
:1020B00008171907ACF080910E01082E000C990B3F
:1020C000801791076CF09F012450394F4091FA0618
:1020D0006091F9068091F8060E941A0DCF5FAACF91
:1020E000E450F94F1182108212821382F7CF8F923F
:1020F0009F92AF92BF92CF92DF92EF92FF920F9397
:102100001F93CF93DF93EC014C81042F10E09801D3
:10211000D8010E9444339B01AC010E945A334B0109
:102120005C01E0E2F0E0E01BF10BA5E5B0E0AC0102
:102130009B010E945A336B017C019F01DF010E94C9
:102140003C339B01AC010E9465339B01AC01280D1F
:10215000391D4A1D5B1DC701B6010E941433022FB1
:10216000822F90E02A3260F543E0249F90011124F1
:1021700035952795122F1095F12C85E5E82EE01A5C
:1021800080911301F81660F10E94930D9C8181E00B
:10219000992319F0903219F48FEF80930C018091FC
:1021A0000C01890F8C83DF91CF911F910F91FF90CC
:1021B000EF90DF90CF90BF90AF909F908F90089559
:1021C00025E530E0A901481B590BCA019A01220FED
:1021D000331F280F391F37FFCBCF2F5F3F4FC8CF9B
:1021E0008E2DF1FC802F209111012F0D3327331FED
:1021F000220F331F220F331F2450394F412F60917C
:10220000F9060E941A0DF394BBCF0F931F93CF933F
:10221000DF93EC0110E000E090911301901711069C
:1022200009F06CF40E94930D8C8190E0019681700E
:1022300099278C83DF91CF911F910F910895209161
:102240001101200F312F311D220F331F220F331F99
:102250002450394F4C816091F9068091F80696958B
:102260009017110651F04CF0442349F04091FA06C2
:102270000E941A0D0F5F1F4FCFCF4423B9F340E0E8
:10228000F7CF8F929F92AF92BF92CF92DF92EF9251
:10229000FF920F931F93CF93DF93FC01B280948042
:1022A00081E0848300E015E09BE4A92E88248394D8
:1022B000EE24EA94F12C3BE4C32ED12C809113013F
:1022C000081770F0DF91CF911F910F91FF90EF9061
:1022D000DF90CF90BF90AF909F908F900C94930D14
:1022E000C02FD0E01C9FF0011D9FF00D1124EE5770
:1022F000FD4F91101BC013821282209111012C0FEF
:102300003D2F311D220F331F220F331F2450394F11
:102310001C9FF0011D9FF00D1124EE57FD4F4281CF
:10232000618180810E941A0D0F5FC8CF2381222313
:1023300079F12150238334818A2D821B311101C010
:10234000822F1C9FF0011D9FF00D1124EE57FD4FB1
:102350009091FA06899FC0011124B6010E94EC32C7
:102360006283211104C0332311F01482A38222E07E
:102370002B1518F21C9FF0011D9FF00D1124EE5734
:10238000FD4F8091F80680838091F9068183B5CF57
:102390000E94FD34823091400CF0AFCF82E08B156B
:1023A00030F50E94FD34B7010E9400331C9FF001FC
:1023B0001D9FF00D1124EE57FD4F808322E02B1559
:1023C000C8F40E94FD342091F9062695622F70E032
:1023D0000E940033280F1C9FF0011D9FF00D112457
:1023E000EE57FD4F21831282A382848286CF809193
:1023F000F806DCCF2091F906EECFE7EFF6E080811A
:102400008E7F808360817181828193810E943C0DE7
:102410001092D5022FEF80E792E02150804090404B
:10242000E1F700C000000C94930DE7EFF6E0808127
:102430008E7F80831092D5022FEF80E792E02150AB
:1024400080409040E1F700C000000C94930D609133
:10245000F706669570E04BE050E084E191E00E9461
:102460000D35892B19F481E08093D5020E9406274F
:102470009093CE028093CD0208959091F70690FF3D
:1024800035C09170811128C092609093F706662341
:1024900051F06091F7067091F8068091F9069091DD
:1024A000FA060E943C0D6091F706669570E04BE0DD
:1024B00050E084E191E00E940D35892BA1F010924B
:1024C000D50281E08093D0024091FA066091F9062E
:1024D0008091F8060C94510F8B3210F09465D5CF93
:1024E000880F982BD2CF0E942712EBCF0895682F28
:1024F0009091F706969581E0890F8B3208F081E084
:102500000C943D1281E00C947712682F9091F7069D
:1025100096958FEF890F09F48AE20C943D1281E0C1
:102520000C94851261E00C943D12E7EFF6E0808197
:102530008160808386950C9492128091F70680FDCD
:102540000C94FD110C94951260E00C943D12809156
:10255000D30281112EC00E940525811104C00E9462
:10256000A6250E944E0D0E94380D6093F7067093C9
:10257000F8068093F9069093FA066E7F61F40E9444
:102580004E0D0E94380D6093F7067093F806809305
:10259000F9069093FA060E94290D1092D5028091B7
:1025A000F70680FF03C086950E94A41281E0809305
:1025B000D3020895E7EFF6E08081816080838695FD
:1025C0000C94A4121092D50208950F931F93CF93E9
:1025D000DF938091D502882309F49DC08091D402B5
:1025E000E091F706E695E81BE093CF028230C9F54B
:1025F000F0E0E858FA4FE491CE2FD0E005E01EE07D
:102600008091D002882389F01092D0020E94062780
:102610009E0120953095820F931F9093CE02809358
:10262000CD021092D2021092D1028091CD029091EF
:10263000CE020E9412278C179D0708F46CC0E0910F
:10264000CD02F091CE02CE0FDF1FD093CE02C09309
:10265000CD028DEC92E0F801DF91CF911F910F91A7
:102660000994863049F4F0E0EB58FA4FE491CE2F0C
:10267000D0E009E11EE0C4CF893051F4E695F0E0E6
:10268000EE58FA4FE491CE2FD0E004E51FE0B8CF2A
:102690008F3051F4E695F0E0E159FA4FE491CE2FF6
:1026A000D0E00DE81FE0ACCF853149F4F0E0E4590B
:1026B000FA4FE491CE2FD0E00AE010E1A1CFC8E2BA
:1026C000D0E007E710E1883109F49ACF833239F47A
:1026D000EAE6F5E0C591D49109E21EE091CFC4EF9E
:1026E000D1E005E011E1843209F48ACFC0EDD7E0F2
:1026F00007E11DE0853209F083CF8E2F63E00E9451
:10270000D232E92FF0E0E959FA4FE491CE2FD0E030
:1027100001E411E175CFDF91CF911F910F910895E1
:10272000FA01811101C0FB010994CF93DF93C82FF7
:10273000D62F0E945D0D8C1740F00E945D0D8D1705
:1027400020F4DF91CF910C9482128C2FDF91CF91E6
:102750000C9492120F931F93CF938C01FB01C281B3
:10276000CC2309F465C00E9413248272F801E35C53
:10277000FC45E431F10538F4E657FA4C0C94363355
:102780000E949D12C0E08C2FCF911F910F91089550
:102790004FE852E162E872E10E949013F3CF42E801
:1027A00052E16FE872E1F8CF42E15FE065E07FE07F
:1027B000F3CF45E05FE062E17FE0EECF40E35FE032
:1027C00061E27FE0E9CF41E25FE060E37FE0E4CFF8
:1027D0004EE45FE06FE37FE0DFCF4FE35FE06EE466
:1027E0007FE0DACF40E95DE069E77DE0D5CF49E7FA
:1027F0005DE060E97DE0D0CF81E00E949212C2CF1F
:1028000065E082E00E949513BDCF68E086E0FACFD4
:102810006EE089E0F7CF64E18FE0F4CF67E185E116
:10282000F1CF88E1EACF62E289E1ECCF83E2E5CF44
:10283000C1E0A9CF579A2BB12F773BB130684FB782
:10284000F894660F771F660F771F680F791F681758
:10285000790741F44FBF8FE594E00197F1F700C08D
:1028600000000895FC015191CF01E8E03BB9000060
:1028700000C057FF2BB9550F000000C000C000C0BA
:102880002BB900C0EA9591F7E2CFCF93DF93EC012B
:1028900097FF0CC0FB018281882341F00E947014D5
:1028A000CE019F770E94B4140E949C1481E0DF91B6
:1028B000CF9108958CE090E00E941A3590E0B0E04E
:1028C000A0E08093380790933907A0933A07B0931C
:1028D0003B070895609138078CE090E00C942E350A
:1028E0000E94132480933C070E942624809138077D
:1028F000813089F0882359F0823091F08430B9F02A
:102900008FE39CE90197F1F700C00000089582EE83
:102910000E94B81AF5CF88E193E00E94DD07F0CF5E
:1029200082EE0E94B81A87E50E94A51BE9CF86EEC9
:102930000E94A51B88E1F8CF80913807813071F0A3
:10294000882341F0823031F0843061F080913C077F
:102950000C94232482EE0E944F1BF8CF8CE20E943D
:10296000A51BF4CF88E2FBCF0F931F93CF93DF9388
:102970008C01CCE0D0E0C8010C2E02C09695879562
:102980000A94E2F78F700E94FA080E94DD072497EC
:10299000CC3F8FEFD80779F7DF91CF911F910F913F
:1029A00008950F931F93CF93DF93EC018B01FB01ED
:1029B0008281882361F00E941324CE01825E9C45AF
:1029C0008530910520F4809338070E946A14B8017D
:1029D000CE01DF91CF911F910F910C944514AF92CE
:1029E000BF92CF92DF92EF92FF920F931F93CF93FC
:1029F000DF937C015B01C42FD22FFC0182818823ED
:102A0000F9F04093D8020E9406279093D702809352
:102A1000D60280E28C0F883008F061C0C77081E078
:102A200001C0880FCA95EAF7DF91CF911F910F91EE
:102A3000FF90EF90DF90CF90BF90AF900C94B81BB9
:102A40001091D802141340C08091D6029091D70201
:102A50000E9412276C01B701C5010E945821C816B7
:102A6000D90690F5C0E2CD0F1D17B9F080E2810FB5
:102A7000883040F4177081E001C0880F1A95EAF79A
:102A80000E94BF1BC83048F481E09D2F977001C0A1
:102A9000880F9A95EAF70E94B81B802F0E94A51B09
:102AA000C830E8F4D77081E001C0880FDA95EAF702
:102AB000DF91CF911F910F91FF90EF90DF90CF901A
:102AC000BF90AF900C94BF1B80E28C0F883038F41D
:102AD000C77081E001C0880FCA95EAF7E9CFDF919E
:102AE000CF911F910F91FF90EF90DF90CF90BF900B
:102AF000AF9008950F939C01CB01243F4CE5340720
:102B000059F1A8F4293DFCE53F0701F12A3D4CE5C8
:102B10003407D1F1283D3C4591F406E221EE41EE27
:102B200068ED7CE50E94EF1480E00F910895263F48
:102B3000FCE53F07E9F0B0F0273F3C45F9F0FC0128
:102B40008281882339F11092D802EFCF07E225EE77
:102B500045EE69ED7CE5E6CF06E221EE40EE64EF5E
:102B60007CE5E0CF07E225EE44EE65EF7CE5DACFC9
:102B700006E221EE42EE66EF7CE5D4CF07E225EED9
:102B800046EE67EF7CE5CECF08E221E045EE6AED48
:102B90007CE5C8CF81E0C9CFCF93DF93EC01FB0187
:102BA0008281882309F419C1C230FCE5DF07C0F136
:102BB000C6319CE5D90730F09E012B5F3C4529309A
:102BC000310570F50E9418259093420780934107C4
:102BD000C031ECE5DE0709F4CFC008F05BC0C830B7
:102BE0008CE5D80709F4B6C088F5C430ECE5DE07FB
:102BF00009F4A8C0C0F4C2308CE5D80709F49CC021
:102C0000809141078260C330DC4509F498C080910F
:102C10004107909142070E9426250E94A61E80E04F
:102C2000DF91CF910895809141078061C630ECE536
:102C3000DE0709F484C0809141078860C730DC4515
:102C400008F47DC080914107806279C0CC308CE56A
:102C5000D80709F489C070F4809141078C60CA30AC
:102C6000ECE5DE0709F46BC008F478C080914107F9
:102C70008E7F65C0CE308CE5D80709F479C080918D
:102C800041078B7FCF30DC4508F459C08091410764
:102C90008F7E55C0CC3FECE5DE0709F457C030F518
:102CA000C3318CE5D80709F46FC078F4C131ECE585
:102CB000DE0709F465C0C231DC4509F0A8CF0E94E7
:102CC000A61E809141078F773AC0C5318CE5D807A1
:102CD00009F462C008F476C0809142078160CB3F5E
:102CE000DC4509F094CF8093420791CFC115FDE5F3
:102CF000DF0709F44DC088F4809142078D7FCE3FF5
:102D00009CE5D90781F3809142078E7FCF3FDC4558
:102D100050F3809142078360E6CFC230FDE5DF07C4
:102D200009F459C008F444C080E0C330DD4509F01F
:102D30006ECF0E94A8256BCF809141078160809360
:102D4000410765CF809141078460F9CF80914207A8
:102D50008260C9CF809141078064F1CF0E94A61E96
:102D6000809141078068EBCF809141078D7FE7CF4D
:102D700080914107877FE3CF809141078F7DDFCF2F
:102D8000809141078F7BDBCF80914107837FD7CF35
:102D9000809142078C7FA7CF8091410782FB9927C2
:102DA00090F921E0922790FB82F990FB83F9C7CF3D
:102DB00080914207982F909591708E7F892B90FB80
:102DC00081F991CF0E94A61E90914107892F97FB10
:102DD00087F98058B4CF81E0ACCF81E021CFCF9389
:102DE000DF93EB0186319C4511F50E9413249A81F3
:102DF000992399F08A7A91E009F490E09093D902AE
:102E0000811109C089E20E94C8230E94552480E0F4
:102E1000DF91CF91089585E3F6CF8091D90281119A
:102E200004C089E20E94CF23F0CF85E3FBCF81E08D
:102E3000EFCF08950895089508950F931F93CF93AA
:102E4000DF93EC018B010E9419170E94A61E0E94BD
:102E50004B2219830883DF91CF911F910F91089521
:102E60008F929F92AF92BF92CF92DF92EF92FF929A
:102E70001F93CF93DF93EC017B01142F8090720698
:102E800090907306A0907406B09075060E94A61EDE
:102E90000E944B2286E0180260011124CE15DF0546
:102EA000C1F40E94A61E8092720690927306A092B0
:102EB0007406B0927506812FDF91CF911F91FF901C
:102EC000EF90DF90CF90BF90AF909F908F900C9439
:102ED0001A17CE010E945A1ECC0DDD1DDFCF0F93B5
:102EE0001F93CF93DF93EB01F801A881B981328161
:102EF000311103C08A179B07A9F086E02802B001B0
:102F00001124CD01861B970B4817590781F086E0E5
:102F100001900D928A95E1F788819981860F971F1C
:102F200099838883DF91CF911F910F910895BF01FD
:102F3000822FDF91CF911F910F910C941B17CF928D
:102F4000DF92EF92FF921F93CF93DF936C01EB011F
:102F5000142F7901842F0E941C178AEF1802A001F8
:102F60001124CC15DD0531F0FE01E40FF51F82813F
:102F700081110BC0F701D183C083DF91CF911F91E5
:102F8000FF90EF90DF90CF900895EF01EACF0F937D
:102F90001F93CF938B012091DC0521113DC0FB01D4
:102FA000C281C11122C08530FDE59F0719F128F4C7
:102FB00084309D4589F0C1E018C08730EDE59E075B
:102FC00009F188309D45B9F760911F01709120018A
:102FD0004FEF84ED95E01DC06AED72E08AED95E05B
:102FE0000E941D1781E08093DC058C2FCF911F91EB
:102FF0000F91089564ED75E08AED95E00E941D172C
:1030000082E0F1CF609121017091220141E08AEDCF
:1030100092E00E943017E9CFAC0144505D45433047
:10302000510538F531E086309D4509F430E0F8016E
:103030008281831731F0213031F0223081F01092FB
:10304000DC05C0E0D2CF6091DA057091DB0521E2AA
:1030500031E041E08AED92E00E949F17F0CF60914D
:10306000DA057091DB052FE131E04FEF84ED95E05B
:10307000F3CF213069F0223009F09DCF409121013A
:10308000509122012FEF6AED75E084ED95E009C0C3
:1030900040911F015091200121E06AED75E08AED19
:1030A00092E00E946F1787CF1092B9008CE0809356
:1030B000B8000895EF92FF920F931F93CF93DF9381
:1030C000182FEB011092BC0084EA8093BC000E9490
:1030D00006277C018091BC0087FF27C08091B90042
:1030E000887F883029F08091B900887F8031D9F5B8
:1030F0001093BB0084E88093BC000E9406278C01DB
:103100008091BC0087FF24C02091B900287F90E007
:1031100080E02831B1F081E090E0203411F490E0BB
:1031200080E09195819591090CC0CF3FDC0791F229
:103130000E9406278E199F098C179D0758F28EEF63
:103140009FEFDF91CF911F910F91FF90EF90089526
:10315000CF3FDC07A9F20E940627801B910B8C173A
:103160009D0770F2ECCF8FEF9FEFEBCF0F931F9384
:10317000CF93DF93EB018093BB0084E88093BC0086
:103180000E9406278C018091BC0087FF11C020910E
:10319000B900287F81E090E0283211F490E080E0CF
:1031A000919581959109DF91CF911F910F9108958C
:1031B000CF3FDC0741F30E940627801B910B8C1741
:1031C0009D0708F38EEF9FEFEECF0F931F93CF93E2
:1031D000DF93EC0184E88093BC000E9406278C01F9
:1031E0008091BC0087FF08C08091BB0090E0DF9118
:1031F000CF911F910F910895CF3FDC0789F30E9473
:103200000627801B910B8C179D0750F38EEF9FEFC5
:10321000EECF84E98093BC0008959093E2058093FB
:10322000E1050895E091E105F091E205309721F084
:103230000190F081E02D099480E00895E091E1058E
:10324000F091E205309799F020913501222359F051
:103250002091410727FF07C0DC012C9111962C9388
:10326000119725E02C930280F381E02D09940895B5
:10327000E091E105F091E205309739F022E0DC01C0
:103280002C930480F581E02D099408952091DF05A9
:103290003091E0052817390771F09093E00580938D
:1032A000DF05E091E105F091E205309721F006801D
:1032B000F781E02D099408952091DD053091DE0518
:1032C0002817390771F09093DE058093DD05E091B2
:1032D000E105F091E205309721F00084F185E02DC1
:1032E0000994089585B7806885BF85B7806885BFD4
:1032F0000895089508950C94791908950C947D19F2
:103300000E9472190E947A190C947B1981E0089529
:103310000C948619089508950E94FD260E94720B50
:103320000E9477270E94A7120C947E19BF92CF9219
:10333000DF92EF92FF920F931F93CF93DF93CDB75E
:10334000DEB72A970FB6F894DEBF0FBECDBF0E943E
:103350008A190E948B190E94830B0E948819882366
:1033600009F461C084EEC82E85E0D82E10E000E09C
:10337000B02E802F0E946B0BE82EF601F1906F01AA
:10338000F81609F44AC08091A00681FD0E94710BD5
:103390009F2D9E2580E0FF24F394292F2F21C1F13A
:1033A0008E83BF82EF2081E009F480E088870E944D
:1033B00006278160782F9A8789874E815F8168858B
:1033C0008A850E946C1AF801EC51FA4F8081F82628
:1033D000F0820E94E5120E9422290E941219909107
:1033E000E305891789F10E9412198093E3052A9653
:1033F0000FB6F894DEBF0FBECDBFDF91CF911F9106
:103400000F91FF90EF90DF90CF90BF900C946D09DB
:103410008F5FFF0C863009F0C0CF0F5F1F4F0E305B
:10342000110509F0A5CF8FEF89838A831B820E9443
:1034300006278160782F9D838C8349815A816B8117
:103440008D810E946C1AC5CF2A960FB6F894DEBF04
:103450000FBECDBFDF91CF911F910F91FF90EF90E5
:10346000DF90CF90BF900895CF93DF93DC018C91D4
:10347000682F70E021E030E001C0220F8A95EAF762
:1034800011964C91119750E0EA01CE50DA4F988195
:1034900012968C9112978823C9F080910206882396
:1034A000C1F086E0849FF001859FF00D1124E60FA6
:1034B000F71FEE0FFF1FEA5CFE4F408151814D93D5
:1034C0005C93292B2883DF91CF910895892F822344
:1034D000E6CF20952923F6CFCF93DF93CDB7DEB784
:1034E0002B970FB6F894DEBF0FBECDBF4F83588722
:1034F00069877A878B878A859B85892B21F0CA010A
:1035000089238F3FE1F41E821D8285E0FE013796FC
:10351000DE01119601900D928A95E1F749815A8159
:103520006B817C818D819E810E945B212B960FB6E1
:10353000F894DEBF0FBECDBFDF91CF910895CE01CD
:1035400007960E94341ADFCFFC01808191810E948E
:103550009A2392959F70963051F4863F41F0809166
:10356000020691E089278093020690930106089550
:10357000CF93C82F882309F490C08238C1F40E94E9
:10358000121981FD8AC089E30E94C8230E94552434
:103590002FEF81EE94E0215080409040E1F700C091
:1035A000000089E30E94CF23CF910C9455248338E7
:1035B000A1F40E94121980FD70C083E50E94C82307
:1035C0000E9455242FEF81EE94E0215080409040DE
:1035D000E1F700C0000083E5E5CF8438A1F40E9444
:1035E000121982FD5AC087E40E94C8230E94552404
:1035F0002FEF81EE94E0215080409040E1F700C031
:10360000000087E4CFCF8CEF8C0F813AB8F48C2F79
:103610000E94892B811141C06C2F809123019091D0
:1036200024010E94C125882329F08C2F0E94CF23DA
:103630000E9455248C2F0E94C823B6CF80E28C0FA5
:10364000883048F4C77081E001C0880FCA95EAF756
:103650000E941624A9CFEBE5EC0FE33040F4F0E034
:10366000E859FD4F808190E0CF910C944619E8E530
:10367000EC0FE73150F4F0E0EE0FFF1FE65CFD4F7A
:1036800080819181CF910C945C19C03F30F08C2FD8
:103690000E941C28CF910C940729CF91089588236C
:1036A00009F452C0823871F40E94121981FF4CC093
:1036B00089E30E94C8230E94552489E30E94CF23F6
:1036C0000C945524833859F40E94121980FF3CC091
:1036D00083E50E94C8230E94552483E5EFCF8438F8
:1036E00059F40E94121982FF2FC087E40E94C82358
:1036F0000E94552487E4E2CF9CEF980F913AF0F2B4
:1037000090E2980F983050F4877091E001C0990FC3
:103710008A95EAF7892F0E941C24D2CF9BE5980F47
:10372000933020F490E080E00C94461998E5980FCF
:10373000973120F490E080E00C945C19803F20F0F9
:103740000E9484280C9407290895CF93C82F0E94C3
:10375000B81AC93349F42FEF87EE93E02150804027
:103760009040E1F700C000008C2FCF910C944F1BCC
:10377000882321F00E9416240C9455240895882350
:1037800021F00E941C240C94552408958F929F923E
:10379000AF92BF92CF92DF92EF92FF920F931F935F
:1037A000CF93DF937C01C62F172FFC010581029573
:1037B0000F70D281D1110E9436240E940C24D82E81
:1037C0008823B1F0DD2309F1812F807F803441F01F
:1037D00090E29C0F9830C8F0803611F4C63FA9F0F3
:1037E00082E00E94A0240E940C2491E0D82ED926C9
:1037F000C12EC2949FE0C922FBE0FC15B0F1EC2D74
:10380000F0E0E256FA4C0C943633D12CF1CF012F74
:103810000F70812F807F11F00295007FDD23A9F0CA
:10382000002359F080E28C0F883010F0C11109C0DC
:10383000802F0E9416240E9455248C2F0E94B81AB3
:1038400014C0802F0E942924F6CF8C2F0E944F1B7A
:10385000002359F080E28C0F883010F0C11138C07D
:10386000802F0E941C240E9455242C2D2850330B9D
:103870002430310520F40E9412190E946D09DD23C5
:1038800039F0107F103611F4C63F11F00E94FF236B
:10389000DD2009F4EBC10E94E22380FDE7C1F701BE
:1038A00012820E94DC230E946522C7010E945A1ED8
:1038B0000E94DC23DF91CF911F910F91FF90EF9039
:1038C000DF90CF90BF90AF909F908F900C94862206
:1038D000802F0E942F24C7CF212F2F70B22E812F2F
:1038E000807F803219F0B29480EFB822CC2339F077
:1038F000C13019F1DD2359F1002321F19ECFDD23E1
:1039000081F0011106C00E943C248B290E94B81B43
:10391000ACCF0130C1F70E943C248B290E94422485
:10392000A4CF011106C00E944B248B2D0E94BF1B07
:103930009CCF013009F499CFF6CFDD2329F0023076
:1039400008F093CF8B2DE2CF01118FCFEECF002364
:1039500061F3C93349F43FEF87EE93E03150804083
:103960009040E1F700C000008C2F0E944F1B7DCFDC
:10397000812F86958695837069F0813009F075CF27
:103980008C2F912F9370D11102C090E080E00E94A3
:103990005C196BCF8C2F912F9370D11102C090E0E6
:1039A00080E00E94461961CF8C2FDD2329F00E9410
:1039B0001C280E94072959CF0E948428FACF812F02
:1039C000837009F043C0D11150CF2C2F229526953A
:1039D0002770220F220F6C2F6F70862E912CB12C26
:1039E000A12C022E04C0880C991CAA1CBB1C0A9492
:1039F000D2F760E070E0CB01C4FF0FC06FE070E071
:103A000080E090E004C0660F771F881F991F2A95F9
:103A1000D2F76095709580959095212F26952695E3
:103A20002370682979298A299B29223049F058F482
:103A3000213019F00E94192218CF0E94072215CFB9
:103A40000E942B2212CF0E9405220FCF8695DD23E4
:103A500011F0812F8170882309F407CF2C2F229534
:103A600026952770220F220F6C2F6F70862E912CB7
:103A7000B12CA12C022E04C0880C991CAA1CBB1CC2
:103A80000A94D2F760E070E0CB01C4FF0FC06FE092
:103A900070E080E090E004C0660F771F881F991FD8
:103AA0002A95D2F76095709580959095212F26954F
:103AB00026952370682979298A299B29223049F083
:103AC00058F4213019F00E94DC22CFCE0E94CA2285
:103AD000CCCE0E94EE22C9CE0E943F22C6CE012F3C
:103AE0000F70DD2329F0802F0E9465228C2F0ECFCE
:103AF0008C2F0E94BF1B802F0E948622B6CEC23F11
:103B000089F160F4C03FD1F0C13F29F1DD2309F410
:103B100042C0011192CE812F8F7121C0C33F39F174
:103B2000C43FA1F7DD2369F1012F0F71802F0E949F
:103B3000652263E0802F0E948B2497CEDD2339F02D
:103B4000011193CE812F8F710E94A9228ECE023057
:103B500008F08BCEF7CF812F8F71DD2369F20E94A1
:103B6000652283CE812F8F71DD23C9F3C5CFDD237D
:103B700029F0812F8F710E94502277CE0E944B2214
:103B800074CE81E00E94A024023008F46ECE82E060
:103B90000E94A0246ACE002359F0C93309F0E4CE74
:103BA000EFEFF7EE23E0E150F0402040E1F7DACE0E
:103BB000812F8F71A1CFE0E1EC0FE73090F5F0E0BD
:103BC000E655FA4C0C943633DD2309F44ECE809141
:103BD000020691E089278093020647CED093020621
:103BE00044CE81E08D27F7CFD1113FCE81E0F3CFD6
:103BF000D1113BCE1092020638CEDD2319F00E947F
:103C0000E62333CE0E94F22330CEDD2339F08091BB
:103C100001068823E1F21092010627CE0023B9F2B3
:103C200024CE809101060023A9F0882341F08091E1
:103C3000020691E0892780930206109201068C2FDC
:103C4000D111FCCD0E944F1B86E0F70111928A959D
:103C5000E9F70BCE882309F408CED11106CE809166
:103C6000020691E0892780930206D5CFDF91CF919C
:103C70001F910F91FF90EF90DF90CF90BF90AF908A
:103C80009F908F9008950F931F93CF93DF93EC0134
:103C9000688179818A810E94A4238C010E9400237B
:103CA0000E940422B801CE01DF91CF911F910F91A4
:103CB0000C94C61BCF93DF93EC018B819C81892BE5
:103CC00029F08881998189238F3F59F4DF91CF9121
:103CD0000895CE010E94431ECE01DF91CF910C9436
:103CE0002A08CE010E9418098111F3CF0E940C24EA
:103CF000882361F38A81882349F382E0DF91CF91A1
:103D00000C94A024882321F00E9429240C9455248B
:103D10000895882321F00E942F240C94552408959F
:103D20000E9436240E9439240E9455240E942E2A83
:103D30000E94072990E080E00E94461990E080E010
:103D40000C945C190E94D6230C94901E0E94262489
:103D50000C94A21EE92FE295EF70E250EE3070F461
:103D6000F0E0EF54FA4C0C943633803F19F020F415
:103D7000883E20F481E00895843FE1F380E00895D7
:103D8000883EC0F3813FD1F7F5CF93FB882780F9B8
:103D900008950E949A230C94AA1ECF93DF9300D01B
:103DA00000D00F92CDB7DEB70F900F900F900F900D
:103DB0000F90DF91CF910895CF93DF9300D000D083
:103DC00000D0CDB7DEB726960FB6F894DEBF0FBE93
:103DD000CDBFDF91CF9108951F93CF93DF93C09113
:103DE000030616E0809104068C1304C0DF91CF9186
:103DF0001F910895D0E01C9FF0011D9FF00D11242C
:103E0000EB5FF94F4081518162817381848195819B
:103E10000E94DC1E2196C770E5CF40913506509177
:103E20003606609137067091380680913906909178
:103E30003A060C94DC1E209103069091040656E08D
:103E4000291302C080E0089530E0529FF001539F93
:103E5000F00D1124EB5FF94F7181761306C070816C
:103E6000781303C07281741304C02F5F3F4F277013
:103E7000E7CF81E008951F93CF93DF9380913A06B7
:103E8000807FA9F480913706882389F0809103060A
:103E9000C09104066091350670913606A0913806EF
:103EA000B0913906D62FD72316E0C81304C0DF918E
:103EB000CF911F91089590E0109711F0DF3F19F412
:103EC00001968770F2CF189F9001199F300D112431
:103ED000F901EB5FF94F41814713F2CF408146135F
:103EE000EFCF42814111ECCF438154814A1B5B0BE0
:103EF000483C510528F780913A068F708061809385
:103F00003A06F901E65FF94F80818F708061808306
:103F100085E396E00E945A1EDF91CF911F910C9489
:103F2000EC1E8F929F92AF92BF92CF92DF92EF9250
:103F3000FF920F931F93CF93DF93CDB7DEB76197B7
:103F40000FB6F894DEBF0FBECDBF8C0185E0F8013F
:103F5000DE011D9601900D928A95E1F7D801EC9053
:103F60001196FC9011971296CC90129785E3A82E8B
:103F700086E0B82E4091380650913906411551051A
:103F800009F474C19091350620913606892F822359
:103F90008F3F09F46BC113968D909C901497D0902D
:103FA0003706F401E41BF50BDD2009F40AC180910A
:103FB0003A06382F307FE83CF10508F0C1C03111D6
:103FC00089C0DC2C2F1126C09E1124C0C11022C034
:103FD0008F70806180933A060E940D1FC5010E9478
:103FE0005A1E80913A06D80115968C938D2D6196B4
:103FF0000FB6F894DEBF0FBECDBFDF91CF911F91FA
:104000000F91FF90EF90DF90CF90BF90AF909F9077
:104010008F9008958114910429F08F2D8E218F3F68
:1040200009F043C180E080FF15C04C2D6F2D8E2D0F
:104030000E941B1F882371F085E396E00E945A1EA0
:1040400086E0E5E3F6E0DF011D928A95E9F70E943C
:104050000D1F3EC0892829F08F2D8E218F3F09F03A
:1040600021C180E0B82FB170AB2E80FF29C04C2D4C
:104070006F2D8E2D0E941B1FB82E811121C0ED8641
:10408000FE868D859E850E949A23292F22952F706A
:10409000223050F0243078F49F7051F0F80195816F
:1040A000907F31F4DB2CA2CF9F7011F08823D1F3E5
:1040B000805E8830B8F3C8010E945A1EBA2CF2CF35
:1040C000CC2009F493CF80913A06816080933A0620
:1040D000D12C8CCF2F1105C09E1103C0CC2009F428
:1040E0008DC0ED86FE868D859E850E94C91E882323
:1040F00019F1CC2009F180913A06803270F02091BC
:1041000035063091360638872F8319869B868A8636
:104110008C87CE0107960E945A1E86E0F801A5E31F
:10412000B6E001900D928A95E1F70E943B1F0E9434
:104130000D1FDD24D3945ACFC8010E945A1EF9CF17
:10414000311112C0782D998A888AA7016C2D89892E
:104150000E94CD1E85E396E00E945A1E86E0F5017E
:1041600011928A95E9F773CF2F110FC09E110DC0E0
:10417000C1100BC015968C93C8010E945A1E86E090
:10418000F50111928A95E9F731CFED86FE868D858E
:104190009E850E94C91E882379F2CC2069F2809105
:1041A0003A06803208F4B9CF2091350630913606B0
:1041B0003A8329831B829D828C828E83CE01019655
:1041C000AACFE83CF10508F043C0DC2CCC2009F470
:1041D000B3CF2F112CC09E112AC080913A0680FDCA
:1041E0001DC0982F907FD1F015968C931597903F16
:1041F00039F0982F907F905F8F70892B15968C9354
:10420000C8010E945A1E86E0F801A5E3B6E00190BD
:104210000D928A95E1F70E940D1FE8CE86E0F80125
:10422000A5E3B6E001900D928A95E1F7DFCEED8629
:10423000FE868D859E850E94C91E81116ECF80915C
:104240003A06816080933A06C8010E945A1ECECE7B
:10425000782D998A888AA7016C2D89890E94CD1EA4
:1042600086E0F50111928A95E9F7D5CFCC2009F4C3
:1042700063CFED86FE868D859E850E94C91ED82E51
:10428000882309F459CF86E0F801A5E3B6E0019050
:104290000D928A95E1F785E396E00E94A41A0E94A8
:1042A0003B1FB9CF81E08C25DDCE81E08C25BBCED4
:1042B00088EC90E008951F93CF93DF93CDB7DEB7DE
:1042C0002C970FB6F894DEBF0FBECDBF4F83588733
:1042D00069877A878B879C87CE0107960E94911FFA
:1042E000882369F08A859B85892B39F04F81588511
:1042F000842F85238F3F09F071C016E05FC086E0F0
:10430000FE013796DE01119601900D928A95E1F734
:104310008A859B85892B89F38F81988589238F3F97
:1043200061F32091040630E0C90101968770992756
:10433000409103064817190671F40E94A61E1092B8
:1043400004061092030686E0E5E3F6E0DF011D9225
:104350008A95E9F7D2CF96E0929FD001939FB00D56
:104360001124AB5FB94FFE01319601900D929A95E1
:10437000E1F7809304060E94EC1EBFCF819FC0012D
:1043800011248B5F994F0E94911F8823E9F0E091DF
:1043900003061E9FF0011124EB5FF94F408151810C
:1043A00062817381848195810E94DC1E8091030665
:1043B00090E0019687709927809303068091030609
:1043C000909104068913DACF2C960FB6F894DEBFCD
:1043D0000FBECDBFDF91CF911F91089569857A857A
:1043E0008B859C850E94DC1E88CF08950C94F52156
:1043F0000E94F62160937606709377068093780684
:10440000909379060C94901E08950C94F8210F93C4
:104410001F930091760610917706209178063091CF
:104420007906602B712B822B932B1F910F910C948B
:10443000F8210F931F930091760610917706209133
:1044400078063091790660237123822393231F918C
:104450000F910C94F8210F931F9300917606109101
:104460007706209178063091790660277127822798
:1044700093271F910F910C94F8210C9448070E94E8
:104480003D22609372067093730680937406909336
:1044900075060C94901E60E070E0CB010C943F22F6
:1044A0000F931F9341E050E060E070E08A019B01B0
:1044B00004C0000F111F221F331F8A95D2F7C901B4
:1044C000B8011F910F910C943F220F931F9341E06D
:1044D00050E060E070E004C0440F551F661F771F76
:1044E0008A95D2F78091720690917306A091740616
:1044F000B09175068A019B01082B192B2A2B3B2BA7
:10450000C901B8011F910F910C943F220F931F9383
:1045100041E050E060E070E004C0440F551F661FAA
:10452000771F8A95D2F7CB01BA0160957095809577
:104530009095009172061091730620917406309147
:10454000750660237123822393231F910F910C948E
:104550003F220F931F9341E050E060E070E004C001
:10456000440F551F661F771F8A95D2F780917206F8
:1045700090917306A0917406B09175068A019B0113
:10458000082719272A273B27C901B8011F910F9136
:104590000C943F220F931F930091720610917306A3
:1045A0002091740630917506602B712B822B932B12
:1045B0001F910F910C943F220F931F93009172064D
:1045C0001091730620917406309175066023712353
:1045D000822393231F910F910C943F220F931F93DB
:1045E0000091720610917306209174063091750641
:1045F00060277127822793271F910F910C943F22E8
:104600000895E92FEE0FE90FEE0F8E0F982F977098
:1046100041E001C0440F9A95EAF786958695869504
:1046200095E0899FF0011124E55CF94F30E020E02E
:1046300070E05191DF011197CB01022E02C09695D7
:1046400087950A94E2F781708195852784238527D1
:104650008C932F5F3F4F2530310559F70895E92F8F
:10466000EE0FE90FEE0F8E0F982F977086958695B7
:10467000869525E0829FF0011124E55CF94F50E01A
:1046800040E080E0219130E0092E02C03695279568
:104690000A94E2F721703327042E01C0220F0A94F6
:1046A000EAF7822B4F5F5F4F4530510559F7089568
:1046B000BF92CF92DF92EF92FF920F931F93CF930F
:1046C000DF938C01C0907206D0907306E090740660
:1046D000F09075068091760690917706A091780605
:1046E000B0917906C82AD92AEA2AFB2ACFE1D0E07C
:1046F000BC2ED701C6010C2E04C0B695A795979580
:1047000087950A94D2F780FD0EC0219788F7B12CC7
:104710008B2DDF91CF911F910F91FF90EF90DF9044
:10472000CF90BF900895B8018C2F0E9489090197FE
:1047300061F3EECFCF93DF93EC010E945823BE01CB
:10474000DF91CF910C9489091F93CF93DF93EB01F5
:1047500090910006992331F0CB01DF91CF911F9109
:104760000C949A23882379F0CB010E945823182FA8
:10477000682FCE010E940123BE01812FDF91CF91CE
:104780001F910C948909CB010E942F23182FF4CF7D
:10479000682F80912301909124010C944126682F69
:1047A00080912301909124010C944C268091230147
:1047B000909124010C94572680917B0685958595D0
:1047C0008595089580917B068770089582E0809397
:1047D0007A0681E080930206089510927A0610927C
:1047E0000206089580917A06823021F481E0809358
:1047F0007A060895833011F40C94ED230895809186
:104800007A06823021F483E080937A06089581301D
:1048100011F40C94ED23089590917B06977081E03C
:1048200009F480E0089580919F06089590919F0675
:10483000892B80939F060895809590919F069823D9
:1048400090939F06089580939F06089510929F0667
:10485000089590919E06892B80939E0608958095D9
:1048600090919E06982390939E06089510929E061E
:10487000089510929D06089580917C0608950895EC
:104880000C943F2490917C06981721F080937C062D
:104890000C944024089580917C06882329F010927E
:1048A0007C0680E00C9440240895E0912301F0916F
:1048B000240180919F068083E0912301F0912401DF
:1048C000808190919E06892B8083E0912301F09155
:1048D0002401808190919D06892B808390917C0694
:1048E000992381F0E0912301F09124018081892BAB
:1048F000808380912301909124010E94AD25811134
:104900000E944B2480912301909124010C941E1944
:1049100008950C94882498E0899F90011124622BBB
:1049200060937B060E94652280917B068595859524
:1049300085950C94892410927B0680E00C94892440
:1049400090917B068095892380937B06282F277082
:1049500071F4282F082E000C330B9217130639F030
:104960008595859585950E9486220C949B240895B3
:10497000CF92DF92EF92FF926C01EE24FF2420E0B1
:10498000C114D104E104F10419F0C701B60120E11A
:10499000C72ED82EE92EFF24C114D104E104F1045E
:1049A00019F0285FC701B6016B017C0154E0F69451
:1049B000E794D794C7945A95D1F7C114D104E10470
:1049C000F10419F02C5FC701B6016B017C0142E0D4
:1049D000F694E794D794C7944A95D1F7C114D104BB
:1049E000E104F10419F02E5FC701B6019695879591
:1049F00077956795672B682B692B09F02F5F822FBE
:104A0000FF90EF90DF90CF90089590E080E00E94BB
:104A1000283521E08C3E9E4F09F020E0822F08953A
:104A200082E090E00C941A3583E090E00C941A3503
:104A3000CF9384E090E00E941A35C82F81E290E085
:104A40000E941A35982F8C2FCF910895CF93C92F9C
:104A5000682F84E090E00E942E356C2F81E290E078
:104A6000CF910C942E358FE090E00C942235AB0161
:104A7000BC018FE090E00C944035AB01BC0183E1B8
:104A800090E00C94403560E070E0CB010C943D2543
:104A90006CEE7EEF90E080E00E944C3560E082E0BA
:104AA00090E00E942E3560E083E090E00E942E3579
:104AB0001092760610927706109278061092790678
:104AC00060E084E090E00E942E3560E081E290E0BA
:104AD0000E942E3560E085E090E00E942E3560E077
:104AE00086E090E00E942E356FEF87E090E00E9414
:104AF0002E3540E050E0BA0188E090E00E94403559
:104B000060E08DE090E00E942E3540E050E0BA0178
:104B100088E190E00E94403560E087E190E00E94EB
:104B20002E3540E050E0BA018CE190E00E94403523
:104B300060E080E290E00E942E3540E050E0BA0153
:104B400088E190E00E9440350C940B070C944825B6
:104B5000682F8EE090E00C942E35FC013296809107
:104B60003501882321F0809141079EE187FF96E07F
:104B700080E0915008F4089521912223D1F38F5FB2
:104B8000F8CF662301F1209135012223F1F0209125
:104B9000410727FF1AC0462F4695469546954E3148
:104BA00090F4677021E030E002C0220F331F6A9555
:104BB000E2F7840F911DFC01828190E028233923C4
:104BC00081E0232B69F480E00895FC013296089679
:104BD0002191261721F0E817F907D1F7F4CF81E0EA
:104BE00008959C01FC0132969FEF80E041914617A9
:104BF00051F09F3F19F4411101C0982F8F5F86300B
:104C0000A9F79F3F09F40895290F311D97FD3A95A3
:104C1000F90162830895FC013296089621912613CA
:104C200003C0DF0111971C92E817F907B9F708953F
:104C3000E62FE695E695E695EE3168F4E80FF92F54
:104C4000F11D677021E030E001C0220F6A95EAF79C
:104C50008281822B82830895E62FE695E695E6957C
:104C6000EE3170F4E80FF92FF11D677021E030E0AC
:104C700001C0220F6A95EAF72095828128232283BA
:104C8000089520913501222329F02091410727FD25
:104C90000C9418260C94F12520913501222329F03B
:104CA0002091410727FD0C942C260C940B26FC0127
:104CB000329680913501882351F08091410787FF1A
:104CC00006C08EE1DF011D928A95E9F7089586E01E
:104CD000F9CF08950C9469260E946A2680914707AF
:104CE000843009F439C01092A10688E190E020E4F4
:104CF0000FB6F894A895809360000FBE20936000D3
:104D000080E00E946D090E94E2128091A20681114A
:104D10000AC081E08093A2068091F706817080939B
:104D2000A3060E9415120E946A2683B7817F8460C1
:104D300083BF83B7816083BF7894889583B78E7F64
:104D400083BF0FB6F894A895809160008861809326
:104D50006000109260000FBE08950895CF930E94E6
:104D6000AB050E94830B0E94AD26C0E08C2F0E94F1
:104D70006B0B811105C0CF5FCE30C1F7CF91089585
:104D800081E0FCCF08950C94C2260E94A61E0E94CA
:104D900012190E946D091092A2068091A30681113A
:104DA0000E94DA120E9427120C94C3261F921FB68B
:104DB0001F9211248F939F93AF93BF938091A1066D
:104DC000811113C080913D0790913E07A0913F074C
:104DD000B09140074196A11DB11D80933D0790936E
:104DE0003E07A0933F07B0934007BF91AF919F91BB
:104DF0008F911F901FBE1F90189582E084BD93E095
:104E000095BD9AEF97BD80936E0008952FB7F894E3
:104E100080913D0790913E07A0913F07B0914007D8
:104E20002FBF08959C014FB7F89480913D07909152
:104E30003E07A0913F07B09140074FBF821B930BE5
:104E4000089578941F921FB61F9211248F939F93F9
:104E5000AF93BF9380913D0790913E07A0913F078C
:104E6000B09140070196A11DB11D80933D0790931D
:104E70003E07A0933F07B0934007BF91AF919F912A
:104E80008F911F901FBE1F901895F89481E080931A
:104E9000E00080E28093D800E9ECF0E010828FE13E
:104EA0009EE40197F1F700C000001DBA109268005F
:104EB0001CBC10BE1FBA10927A0010926E001092A5
:104EC0006F0010927100109272001082ECEBF0E013
:104ED000108214B817B81AB81DB810BA108215B8D5
:104EE00018B81BB81EB811BA0C94003F08950E9460
:104EF0000525811102C00E94A6250E9410258093DD
:104F0000A0060E94182590934207809341070E94B3
:104F10001425682F70E090E080E00E9405226091E7
:104F200072067091730680917406909175060C94C8
:104F30003D228091AC0680FF12C06091290185E07E
:104F4000689FB001112475956795759567956038D0
:104F50007105A8F561157105A1F1862F089581FFEE
:104F600009C06091290185E0689FB0011124759501
:104F70006795EDCF6091290182FD0AC08091AB0653
:104F80008823D1F09091280160912901891728F098
:104F900085E0689FB0011124DACF869FB00111240B
:104FA00085E0869F9001879F300D1124692F70E066
:104FB000C9010E940033CBCF65E070E0CECF8FE710
:104FC000089581E008958091AC0680FF0CC0609147
:104FD000260170E075956795759567956115710562
:104FE00049F1862F089581FF06C06091260170E087
:104FF00075956795F3CF6091260182FD0BC0909166
:10500000AA069923A1F060912501809126019617A7
:1050100038F0682F70E06038710500F38FE708956D
:10502000899FC001112470E00E940033F4CF61E039
:1050300070E0D7CF81E00895803F31F40E94992736
:1050400081958093B0060895813F19F40E949927B5
:10505000F8CF823F31F40E94992781958093AF0663
:105060000895833F19F40E949927F8CF893F29F4C6
:105070000E94E3278093B10608958A3F21F40E949D
:10508000E3278195F7CF8B3F31F40E94E327819589
:105090008093B20608958C3F19F40E94E327F8CF5D
:1050A000843F31F48091AE0681608093AE0608950E
:1050B000853F21F48091AE068260F7CF863F21F4D0
:1050C0008091AE068460F1CF873F21F48091AE06D7
:1050D0008860EBCF883F21F48091AE068061E5CFF8
:1050E0008D3F31F48091AC0681608093AC060895C9
:1050F0008E3F21F48091AC068260F7CF8F3FB9F7E5
:105100008091AC068460F1CF9091AF06803F59F456
:105110008091B00687FF0DC01092B00691110BC0B0
:105120001092AB0608C0813F81F48091B00618163A
:105130009CF3992381F08091B1069091B206892B5E
:1051400009F064C01092AA060895823F49F497FFBF
:10515000F0CF1092AF068091B0068111ECCFE0CF76
:10516000833F19F41916ACF3E4CF2091B106893FBF
:1051700029F41216F4F61092B106DBCF8A3F19F427
:1051800027FFD7CFF8CF2091B2068B3F29F427FF16
:10519000D0CF1092B206CDCF8C3F19F41216CCF3BB
:1051A000C8CF843F31F48091AE068E7F8093AE06E7
:1051B000C0CF853F21F48091AE068D7FF7CF863F2B
:1051C00021F48091AE068B7FF1CF873F21F480914F
:1051D000AE06877FEBCF883F21F48091AE068F7EAD
:1051E000E5CF8D3F31F48091AC068E7F8093AC0685
:1051F000A0CF8E3F21F48091AC068D7FF7CF8F3FFB
:1052000009F097CF8091AC068B7FF0CF08950E9474
:1052100006279C019091AF068091B006982B21F053
:105220003093A9062093A8069091B1068091B2060A
:10523000982B21F03093A7062093A6068DEA96E0DE
:105240000C943819EF92FF920F931F93CF93DF9333
:1052500000D000D000D0CDB7DEB786E0EDEAF6E0B2
:10526000DE01119601900D928A95E1F7E090AF066C
:10527000F090B0060091B1061091B2061092AF0600
:105280001092B0061092B1061092B2068E2D8F29A0
:1052900091F08091A8069091A9060E941227AC0176
:1052A0009091AB06992309F43FC080912A0184179D
:1052B000150608F447C0802F812B91F08091A60637
:1052C0009091A7060E941227AC019091AA069923FB
:1052D00009F477C0809127018417150608F47FC070
:1052E0008091AF069091B006892B9091B106892BE1
:1052F0009091B206892B11F00E94072986E0FE01E9
:105300003196ADEAB6E001900D928A95E1F72696C6
:105310000FB6F894DEBF0FBECDBFDF91CF911F91C6
:105320000F91FF90EF9008952091A5068AE0289FA5
:10533000900111242417350708F0BDCF9F5F90938B
:10534000AB0602C09F3FD1F7EE2059F00E9499278B
:105350009FEF1E140CF491E0899F802D11248093FF
:10536000AF06FF2059F00E9499279FEF1F140CF4FD
:1053700091E0899F802D11248093B0063091AF0673
:10538000332309F498CF2091B006222309F493CF58
:1053900045EB3403C0011124992359F09093AF06D3
:1053A00045EB240390011124332339F03093B006E8
:1053B00082CF81E08093AF06F3CF81E08093B00687
:1053C0007ACF2091A4068AE0289F90011124241707
:1053D000350708F085CF9F5F9093AA0602C09F3FD4
:1053E000D1F7002359F00E94E3279FEF10160CF429
:1053F00091E0899F802D11248093B106112359F0EB
:105400000E94E3279FEF11160CF491E0899F802DF5
:1054100011248093B2063091B106332309F460CF92
:105420002091B206222309F45BCF45EB3403C0017F
:105430001124992359F09093B10645EB2403900170
:105440001124332339F03093B2064ACF81E08093A0
:10545000B106F3CF81E08093B20642CF86E0EDEA59
:10546000F6E0DF011D928A95E9F71092AB061092E3
:10547000AA061092AC060895833081F128F4813099
:1054800059F08230D1F00895853009F449C0B8F15F
:10549000863009F456C008958091A506482F460F1E
:1054A0005527551F4F3F510524F4680F6093A506FB
:1054B00008958FEF8093A506089580912A01482FC3
:1054C000460F5527551F4F3F510524F4680F609331
:1054D0002A0108958FEF80932A0108958091290170
:1054E000482F460F5527551F4F3F510524F4680F8D
:1054F0006093290108958FEF809329010895809189
:105500002801482F460F5527551F4F3F510524F4BA
:10551000680F6093280108958FEF80932801089504
:1055200080912601482F460F5527551F4F3F5105A3
:1055300024F4680F6093260108958FEF809326016D
:10554000089580912501482F460F5527551F4F3F3D
:10555000510524F4680F6093250108958FEF80931F
:1055600025010895833011F128F4813049F082300B
:1055700091F00895853081F120F18630C1F10895D0
:105580008091A506681720F4861B8093A5060895D0
:105590001092A506089580912A01681720F4861BB1
:1055A00080932A01089510922A010895809129017B
:1055B000681720F4861B8093290108951092290111
:1055C000089580912801681720F4861B8093280194
:1055D000089510922801089580912601681720F4FB
:1055E000861B8093260108951092260108958091CC
:1055F0002501681720F4861B8093250108951092D9
:10560000250108950F931F9341E050E060E070E0A2
:105610008A019B0104C0000F111F221F331F8A95AE
:10562000D2F7C901B8010E9405221F910F910C9475
:10563000A61EEBEFE80FEF3308F05AC0F0E0E1549C
:10564000FA4C0C9436330E94A62581E0089580918F
:10565000A006807F8093A00681E08093B406089521
:105660000E940909F2CF9091A006892F8E7F90FFAA
:1056700081608093A00680FDE8CF817F8093A006A3
:10568000E4CF9091A006892F8D7F91FF8260809357
:10569000A00681FFDACF8091A0068160EFCF9091C4
:1056A000A006892F8B7F92FF84608093A00682FDE5
:1056B000F2CFCBCF9091A006892F877F93FF886090
:1056C0008093A00683FDE7CFC0CF0E94A61E9091D5
:1056D0004107892F97FB87F9805880934107B5CF01
:1056E00080E00E94022BB1CF8953FBCF8D51F9CFBF
:1056F00080E0089580E008950C947A2B8E518A30D2
:1057000030F4E82FF0E0E559FD4F8081089580E006
:105710000895CF93C82F8091B4068130E1F088239B
:1057200029F08230E9F11092B40613C00E941324CC
:10573000813159F48C2F0E947A2B811125C08C2F36
:105740000E94192B8170CF9108950E9413248232F8
:1057500089F380E0F8CF0E941324813159F30E942D
:105760001324823239F38C2F0E947C2B81110AC0C2
:10577000C43199F060F4CB3029F0C03119F782E0E0
:105780008093B40681E0DECF81E090E0DBCFC932C8
:1057900021F0C833B9F380E0D5CF1092B406FBCF27
:1057A000C93219F188F4C43101F120F4C73081F114
:1057B00081E0C9CF82EE8C0F8630D0F78C2F0E940B
:1057C0007E2B8093B306F4CFCE3401F140F46AE02F
:1057D000CB3471F78091B3060E943C2AE9CFC135E2
:1057E00079F061E0C235B1F3E3CF8091B30688234D
:1057F00019F01092B306DCCF81E08093B406A3CFFA
:1058000061E08091B3060E94B22AD2CF6AE0F9CF5C
:105810001092A50684E180932A01C09329018CE3AC
:105820008093280188E08093260188E280932501F7
:10583000BFCF8091D5060895CF93DF9300D00F920C
:10584000CDB7DEB790914707943019F589837B83F4
:105850006A8382E08093E9008FEF9091E8008150A5
:1058600095FD06C095ED9A95F1F700008111F5CFF1
:105870008091E80085FF0DC050E040E063E070E0FB
:10588000CE0101960E94412E8091E8008E77809390
:10589000E8000F900F900F90DF91CF910895BC0119
:1058A00084E00C941C2CBC0183E00C941C2C9C0107
:1058B00082E08093E9009FEF8091E800915085FDA0
:1058C00006C085ED8A95F1F700009111F5CF809122
:1058D000E80085FF0CC050E040E066E070E0C901E0
:1058E0000E94412E8091E8008E778093E800089511
:1058F000CF93DF93EC01809135018823B1F1809142
:10590000410787FF32C060E282E08093E9008FEFB9
:105910009091E800815095FD06C095ED9A95F1F7BC
:1059200000008111F5CF8091E80085FF1BC08091B8
:10593000350170E050E040E0811104C050E040E0EB
:1059400068E070E0CE010E94412E8091E8008E77E1
:105950008093E80080E2FE01A5EBB6E001900D9295
:105960008A95E1F7DF91CF91089568E081E0CDCF8E
:1059700080914607811109C00E94D12F0E942E30CC
:105980008091E20084608093E200089510924607BF
:105990000895089508950C94C52642E061EC81E0D5
:1059A0000E944D2F42E261EC82E00C944D2F8091D9
:1059B0004907833009F45FC030F48130C1F182308F
:1059C00009F49BC008958A3009F487C08B3009F42C
:1059D0006DC0893009F04EC080914807813209F0CE
:1059E00049C080914C0790914D07029708F042C042
:1059F0008091E800877F8093E8008091E80082FF33
:105A000035C09091F3008091F200029729F48091C3
:105A1000F1008B7F813021F48091F1008093D506D5
:105A20008091E8008B778093E8000C94812F80911F
:105A30004807813AF9F48091E800877F8093E80075
:105A400080914C0790914D07892B61F460E285EBC2
:105A500096E070E00E94902E8091E8008B77809312
:105A6000E800089560E090E080E0F3CF8091470780
:105A70008111C3CF089580914807813AD9F7809169
:105A80004C0790914D07892BA9F78091E800877FFB
:105A90008093E8008091E80080FFFCCF8091350181
:105AA0008093F1008091E8008E77BDCF8091480708
:105AB000813201F780914C0790914D07892BD1F6E7
:105AC0008091E800877F8093E8000E94812F809179
:105AD0004A07809335010C94A61E809148078132B5
